{
  "_format": "hh-sol-artifact-1",
  "contractName": "EpicNFT",
  "sourceName": "contracts/EpicNFT.sol",
  "abi": [
    {
      "inputs": [],
      "stateMutability": "nonpayable",
      "type": "constructor"
    },
    {
      "anonymous": false,
      "inputs": [
        {
          "indexed": true,
          "internalType": "address",
          "name": "owner",
          "type": "address"
        },
        {
          "indexed": true,
          "internalType": "address",
          "name": "approved",
          "type": "address"
        },
        {
          "indexed": true,
          "internalType": "uint256",
          "name": "tokenId",
          "type": "uint256"
        }
      ],
      "name": "Approval",
      "type": "event"
    },
    {
      "anonymous": false,
      "inputs": [
        {
          "indexed": true,
          "internalType": "address",
          "name": "owner",
          "type": "address"
        },
        {
          "indexed": true,
          "internalType": "address",
          "name": "operator",
          "type": "address"
        },
        {
          "indexed": false,
          "internalType": "bool",
          "name": "approved",
          "type": "bool"
        }
      ],
      "name": "ApprovalForAll",
      "type": "event"
    },
    {
      "anonymous": false,
      "inputs": [
        {
          "indexed": false,
          "internalType": "address",
          "name": "sender",
          "type": "address"
        },
        {
          "indexed": false,
          "internalType": "uint256",
          "name": "tokenId",
          "type": "uint256"
        }
      ],
      "name": "NewEpicNFTMinted",
      "type": "event"
    },
    {
      "anonymous": false,
      "inputs": [
        {
          "indexed": true,
          "internalType": "address",
          "name": "from",
          "type": "address"
        },
        {
          "indexed": true,
          "internalType": "address",
          "name": "to",
          "type": "address"
        },
        {
          "indexed": true,
          "internalType": "uint256",
          "name": "tokenId",
          "type": "uint256"
        }
      ],
      "name": "Transfer",
      "type": "event"
    },
    {
      "inputs": [],
      "name": "MAX_SUPPLY",
      "outputs": [
        {
          "internalType": "uint256",
          "name": "",
          "type": "uint256"
        }
      ],
      "stateMutability": "view",
      "type": "function"
    },
    {
      "inputs": [
        {
          "internalType": "address",
          "name": "to",
          "type": "address"
        },
        {
          "internalType": "uint256",
          "name": "tokenId",
          "type": "uint256"
        }
      ],
      "name": "approve",
      "outputs": [],
      "stateMutability": "nonpayable",
      "type": "function"
    },
    {
      "inputs": [
        {
          "internalType": "address",
          "name": "owner",
          "type": "address"
        }
      ],
      "name": "balanceOf",
      "outputs": [
        {
          "internalType": "uint256",
          "name": "",
          "type": "uint256"
        }
      ],
      "stateMutability": "view",
      "type": "function"
    },
    {
      "inputs": [
        {
          "internalType": "uint256",
          "name": "tokenId",
          "type": "uint256"
        }
      ],
      "name": "getApproved",
      "outputs": [
        {
          "internalType": "address",
          "name": "",
          "type": "address"
        }
      ],
      "stateMutability": "view",
      "type": "function"
    },
    {
      "inputs": [],
      "name": "getMintedCount",
      "outputs": [
        {
          "internalType": "uint256",
          "name": "",
          "type": "uint256"
        }
      ],
      "stateMutability": "view",
      "type": "function"
    },
    {
      "inputs": [
        {
          "internalType": "address",
          "name": "owner",
          "type": "address"
        },
        {
          "internalType": "address",
          "name": "operator",
          "type": "address"
        }
      ],
      "name": "isApprovedForAll",
      "outputs": [
        {
          "internalType": "bool",
          "name": "",
          "type": "bool"
        }
      ],
      "stateMutability": "view",
      "type": "function"
    },
    {
      "inputs": [],
      "name": "makeAnEpicNFT",
      "outputs": [],
      "stateMutability": "nonpayable",
      "type": "function"
    },
    {
      "inputs": [],
      "name": "name",
      "outputs": [
        {
          "internalType": "string",
          "name": "",
          "type": "string"
        }
      ],
      "stateMutability": "view",
      "type": "function"
    },
    {
      "inputs": [
        {
          "internalType": "uint256",
          "name": "tokenId",
          "type": "uint256"
        }
      ],
      "name": "ownerOf",
      "outputs": [
        {
          "internalType": "address",
          "name": "",
          "type": "address"
        }
      ],
      "stateMutability": "view",
      "type": "function"
    },
    {
      "inputs": [
        {
          "internalType": "address",
          "name": "from",
          "type": "address"
        },
        {
          "internalType": "address",
          "name": "to",
          "type": "address"
        },
        {
          "internalType": "uint256",
          "name": "tokenId",
          "type": "uint256"
        }
      ],
      "name": "safeTransferFrom",
      "outputs": [],
      "stateMutability": "nonpayable",
      "type": "function"
    },
    {
      "inputs": [
        {
          "internalType": "address",
          "name": "from",
          "type": "address"
        },
        {
          "internalType": "address",
          "name": "to",
          "type": "address"
        },
        {
          "internalType": "uint256",
          "name": "tokenId",
          "type": "uint256"
        },
        {
          "internalType": "bytes",
          "name": "_data",
          "type": "bytes"
        }
      ],
      "name": "safeTransferFrom",
      "outputs": [],
      "stateMutability": "nonpayable",
      "type": "function"
    },
    {
      "inputs": [
        {
          "internalType": "address",
          "name": "operator",
          "type": "address"
        },
        {
          "internalType": "bool",
          "name": "approved",
          "type": "bool"
        }
      ],
      "name": "setApprovalForAll",
      "outputs": [],
      "stateMutability": "nonpayable",
      "type": "function"
    },
    {
      "inputs": [
        {
          "internalType": "bytes4",
          "name": "interfaceId",
          "type": "bytes4"
        }
      ],
      "name": "supportsInterface",
      "outputs": [
        {
          "internalType": "bool",
          "name": "",
          "type": "bool"
        }
      ],
      "stateMutability": "view",
      "type": "function"
    },
    {
      "inputs": [],
      "name": "symbol",
      "outputs": [
        {
          "internalType": "string",
          "name": "",
          "type": "string"
        }
      ],
      "stateMutability": "view",
      "type": "function"
    },
    {
      "inputs": [
        {
          "internalType": "uint256",
          "name": "tokenId",
          "type": "uint256"
        }
      ],
      "name": "tokenURI",
      "outputs": [
        {
          "internalType": "string",
          "name": "",
          "type": "string"
        }
      ],
      "stateMutability": "view",
      "type": "function"
    },
    {
      "inputs": [
        {
          "internalType": "address",
          "name": "from",
          "type": "address"
        },
        {
          "internalType": "address",
          "name": "to",
          "type": "address"
        },
        {
          "internalType": "uint256",
          "name": "tokenId",
          "type": "uint256"
        }
      ],
      "name": "transferFrom",
      "outputs": [],
      "stateMutability": "nonpayable",
      "type": "function"
    }
  ],
  "bytecode": "0x608060405260405180610160016040528061012f81526020016200406161012f913960089080519060200190620000389291906200087c565b506040518060400160405280600d81526020017f3c2f746578743e3c2f7376673e0000000000000000000000000000000000000081525060099080519060200190620000869291906200087c565b506040518061014001604052806040518060400160405280600481526020017f436174730000000000000000000000000000000000000000000000000000000081525081526020016040518060400160405280600481526020017f446f67730000000000000000000000000000000000000000000000000000000081525081526020016040518060400160405280600681526020017f486f72736573000000000000000000000000000000000000000000000000000081525081526020016040518060400160405280600581526020017f42756c6c7300000000000000000000000000000000000000000000000000000081525081526020016040518060400160405280600581526020017f426561727300000000000000000000000000000000000000000000000000000081525081526020016040518060400160405280600881526020017f436869636b656e7300000000000000000000000000000000000000000000000081525081526020016040518060400160405280600481526020017f526174730000000000000000000000000000000000000000000000000000000081525081526020016040518060400160405280600781526020017f526162626974730000000000000000000000000000000000000000000000000081525081526020016040518060400160405280600681526020017f536e616b6573000000000000000000000000000000000000000000000000000081525081526020016040518060400160405280600681526020017f5768616c65730000000000000000000000000000000000000000000000000000815250815250600a90600a620002f19291906200090d565b506040518061014001604052806040518060400160405280600481526020017f4c696b650000000000000000000000000000000000000000000000000000000081525081526020016040518060400160405280600481526020017f4c6f76650000000000000000000000000000000000000000000000000000000081525081526020016040518060400160405280600481526020017f486174650000000000000000000000000000000000000000000000000000000081525081526020016040518060400160405280600481526020017f4b696c6c0000000000000000000000000000000000000000000000000000000081525081526020016040518060400160405280600381526020017f456174000000000000000000000000000000000000000000000000000000000081525081526020016040518060400160405280600781526020017f44697374726f790000000000000000000000000000000000000000000000000081525081526020016040518060400160405280600781526020017f4162616e646f6e0000000000000000000000000000000000000000000000000081525081526020016040518060400160405280600481526020017f426561740000000000000000000000000000000000000000000000000000000081525081526020016040518060400160405280600581526020017f50756e636800000000000000000000000000000000000000000000000000000081525081526020016040518060400160405280600581526020017f4275696c64000000000000000000000000000000000000000000000000000000815250815250600b90600a6200055c9291906200090d565b506040518061014001604052806040518060400160405280600781526020017f426974636f696e0000000000000000000000000000000000000000000000000081525081526020016040518060400160405280600881526020017f457468657265756d00000000000000000000000000000000000000000000000081525081526020016040518060400160405280600881526020017f506f6c6b61646f7400000000000000000000000000000000000000000000000081525081526020016040518060400160405280600781526020017f43617264616e6f0000000000000000000000000000000000000000000000000081525081526020016040518060400160405280600681526020017f536f6c616e61000000000000000000000000000000000000000000000000000081525081526020016040518060400160405280600581526020017f546572726100000000000000000000000000000000000000000000000000000081525081526020016040518060400160405280600981526020017f4176616c616e636865000000000000000000000000000000000000000000000081525081526020016040518060400160405280600681526020017f456c726f6e64000000000000000000000000000000000000000000000000000081525081526020016040518060400160405280600781526020017f506f6c79676f6e0000000000000000000000000000000000000000000000000081525081526020016040518060400160405280600681526020017f46616e746f6d0000000000000000000000000000000000000000000000000000815250815250600c90600a620007c79291906200090d565b50348015620007d557600080fd5b506040518060400160405280600481526020017f45706963000000000000000000000000000000000000000000000000000000008152506040518060400160405280600381526020017f455043000000000000000000000000000000000000000000000000000000000081525081600090805190602001906200085a9291906200087c565b508060019080519060200190620008739291906200087c565b50505062000a66565b8280546200088a9062000a30565b90600052602060002090601f016020900481019282620008ae5760008555620008fa565b82601f10620008c957805160ff1916838001178555620008fa565b82800160010185558215620008fa579182015b82811115620008f9578251825591602001919060010190620008dc565b5b50905062000909919062000974565b5090565b82805482825590600052602060002090810192821562000961579160200282015b82811115620009605782518290805190602001906200094f9291906200087c565b50916020019190600101906200092e565b5b50905062000970919062000993565b5090565b5b808211156200098f57600081600090555060010162000975565b5090565b5b80821115620009b75760008181620009ad9190620009bb565b5060010162000994565b5090565b508054620009c99062000a30565b6000825580601f10620009dd5750620009fe565b601f016020900490600052602060002090810190620009fd919062000974565b5b50565b7f4e487b7100000000000000000000000000000000000000000000000000000000600052602260045260246000fd5b6000600282049050600182168062000a4957607f821691505b6020821081141562000a605762000a5f62000a01565b5b50919050565b6135eb8062000a766000396000f3fe608060405234801561001057600080fd5b50600436106101005760003560e01c806370a0823111610097578063c87b56dd11610066578063c87b56dd146102ab578063de9d132f146102db578063e985e9c5146102e5578063ebc9bd3b1461031557610100565b806370a082311461022557806395d89b4114610255578063a22cb46514610273578063b88d4fde1461028f57610100565b806323b872dd116100d357806323b872dd1461019f57806332cb6b0c146101bb57806342842e0e146101d95780636352211e146101f557610100565b806301ffc9a71461010557806306fdde0314610135578063081812fc14610153578063095ea7b314610183575b600080fd5b61011f600480360381019061011a919061202b565b610333565b60405161012c9190612073565b60405180910390f35b61013d610415565b60405161014a9190612127565b60405180910390f35b61016d6004803603810190610168919061217f565b6104a7565b60405161017a91906121ed565b60405180910390f35b61019d60048036038101906101989190612234565b61052c565b005b6101b960048036038101906101b49190612274565b610644565b005b6101c36106a4565b6040516101d091906122d6565b60405180910390f35b6101f360048036038101906101ee9190612274565b6106a9565b005b61020f600480360381019061020a919061217f565b6106c9565b60405161021c91906121ed565b60405180910390f35b61023f600480360381019061023a91906122f1565b61077b565b60405161024c91906122d6565b60405180910390f35b61025d610833565b60405161026a9190612127565b60405180910390f35b61028d6004803603810190610288919061234a565b6108c5565b005b6102a960048036038101906102a491906124bf565b6108db565b005b6102c560048036038101906102c0919061217f565b61093d565b6040516102d29190612127565b60405180910390f35b6102e361094f565b005b6102ff60048036038101906102fa9190612542565b610ad4565b60405161030c9190612073565b60405180910390f35b61031d610b68565b60405161032a91906122d6565b60405180910390f35b60007f80ac58cd000000000000000000000000000000000000000000000000000000007bffffffffffffffffffffffffffffffffffffffffffffffffffffffff1916827bffffffffffffffffffffffffffffffffffffffffffffffffffffffff191614806103fe57507f5b5e139f000000000000000000000000000000000000000000000000000000007bffffffffffffffffffffffffffffffffffffffffffffffffffffffff1916827bffffffffffffffffffffffffffffffffffffffffffffffffffffffff1916145b8061040e575061040d82610b79565b5b9050919050565b606060008054610424906125b1565b80601f0160208091040260200160405190810160405280929190818152602001828054610450906125b1565b801561049d5780601f106104725761010080835404028352916020019161049d565b820191906000526020600020905b81548152906001019060200180831161048057829003601f168201915b5050505050905090565b60006104b282610be3565b6104f1576040517f08c379a00000000000000000000000000000000000000000000000000000000081526004016104e890612655565b60405180910390fd5b6004600083815260200190815260200160002060009054906101000a900473ffffffffffffffffffffffffffffffffffffffff169050919050565b6000610537826106c9565b90508073ffffffffffffffffffffffffffffffffffffffff168373ffffffffffffffffffffffffffffffffffffffff1614156105a8576040517f08c379a000000000000000000000000000000000000000000000000000000000815260040161059f906126e7565b60405180910390fd5b8073ffffffffffffffffffffffffffffffffffffffff166105c7610c4f565b73ffffffffffffffffffffffffffffffffffffffff1614806105f657506105f5816105f0610c4f565b610ad4565b5b610635576040517f08c379a000000000000000000000000000000000000000000000000000000000815260040161062c90612779565b60405180910390fd5b61063f8383610c57565b505050565b61065561064f610c4f565b82610d10565b610694576040517f08c379a000000000000000000000000000000000000000000000000000000000815260040161068b9061280b565b60405180910390fd5b61069f838383610dee565b505050565b606481565b6106c4838383604051806020016040528060008152506108db565b505050565b6000806002600084815260200190815260200160002060009054906101000a900473ffffffffffffffffffffffffffffffffffffffff169050600073ffffffffffffffffffffffffffffffffffffffff168173ffffffffffffffffffffffffffffffffffffffff161415610772576040517f08c379a00000000000000000000000000000000000000000000000000000000081526004016107699061289d565b60405180910390fd5b80915050919050565b60008073ffffffffffffffffffffffffffffffffffffffff168273ffffffffffffffffffffffffffffffffffffffff1614156107ec576040517f08c379a00000000000000000000000000000000000000000000000000000000081526004016107e39061292f565b60405180910390fd5b600360008373ffffffffffffffffffffffffffffffffffffffff1673ffffffffffffffffffffffffffffffffffffffff168152602001908152602001600020549050919050565b606060018054610842906125b1565b80601f016020809104026020016040519081016040528092919081815260200182805461086e906125b1565b80156108bb5780601f10610890576101008083540402835291602001916108bb565b820191906000526020600020905b81548152906001019060200180831161089e57829003601f168201915b5050505050905090565b6108d76108d0610c4f565b838361104a565b5050565b6108ec6108e6610c4f565b83610d10565b61092b576040517f08c379a00000000000000000000000000000000000000000000000000000000081526004016109229061280b565b60405180910390fd5b610937848484846111b7565b50505050565b606061094882611213565b9050919050565b600061095b6007611365565b90506109676007611373565b606481106109aa576040517f08c379a00000000000000000000000000000000000000000000000000000000081526004016109a19061299b565b60405180910390fd5b6109b43382611389565b60006109bf826113a7565b905060006109cc836114ae565b905060006109d9846115b5565b905060008383836040516020016109f2939291906129f7565b604051602081830303815290604052905060006008826009604051602001610a1c93929190612abc565b60405160208183030381529060405290506000610a6183610a3c846116bc565b604051602001610a4d929190612c1d565b6040516020818303038152906040526116bc565b9050600081604051602001610a769190612cae565b6040516020818303038152906040529050610a918882611854565b7febb98688741ffa4c7589bf325de30cf7becb63de567842e1ccdb6cb949fdc82c3389604051610ac2929190612cd0565b60405180910390a15050505050505050565b6000600560008473ffffffffffffffffffffffffffffffffffffffff1673ffffffffffffffffffffffffffffffffffffffff16815260200190815260200160002060008373ffffffffffffffffffffffffffffffffffffffff1673ffffffffffffffffffffffffffffffffffffffff16815260200190815260200160002060009054906101000a900460ff16905092915050565b6000610b746007611365565b905090565b60007f01ffc9a7000000000000000000000000000000000000000000000000000000007bffffffffffffffffffffffffffffffffffffffffffffffffffffffff1916827bffffffffffffffffffffffffffffffffffffffffffffffffffffffff1916149050919050565b60008073ffffffffffffffffffffffffffffffffffffffff166002600084815260200190815260200160002060009054906101000a900473ffffffffffffffffffffffffffffffffffffffff1673ffffffffffffffffffffffffffffffffffffffff1614159050919050565b600033905090565b816004600083815260200190815260200160002060006101000a81548173ffffffffffffffffffffffffffffffffffffffff021916908373ffffffffffffffffffffffffffffffffffffffff160217905550808273ffffffffffffffffffffffffffffffffffffffff16610cca836106c9565b73ffffffffffffffffffffffffffffffffffffffff167f8c5be1e5ebec7d5bd14f71427d1e84f3dd0314c0f7b2291e5b200ac8c7c3b92560405160405180910390a45050565b6000610d1b82610be3565b610d5a576040517f08c379a0000000000000000000000000000000000000000000000000000000008152600401610d5190612d6b565b60405180910390fd5b6000610d65836106c9565b90508073ffffffffffffffffffffffffffffffffffffffff168473ffffffffffffffffffffffffffffffffffffffff161480610dd457508373ffffffffffffffffffffffffffffffffffffffff16610dbc846104a7565b73ffffffffffffffffffffffffffffffffffffffff16145b80610de55750610de48185610ad4565b5b91505092915050565b8273ffffffffffffffffffffffffffffffffffffffff16610e0e826106c9565b73ffffffffffffffffffffffffffffffffffffffff1614610e64576040517f08c379a0000000000000000000000000000000000000000000000000000000008152600401610e5b90612dfd565b60405180910390fd5b600073ffffffffffffffffffffffffffffffffffffffff168273ffffffffffffffffffffffffffffffffffffffff161415610ed4576040517f08c379a0000000000000000000000000000000000000000000000000000000008152600401610ecb90612e8f565b60405180910390fd5b610edf8383836118c8565b610eea600082610c57565b6001600360008573ffffffffffffffffffffffffffffffffffffffff1673ffffffffffffffffffffffffffffffffffffffff1681526020019081526020016000206000828254610f3a9190612ede565b925050819055506001600360008473ffffffffffffffffffffffffffffffffffffffff1673ffffffffffffffffffffffffffffffffffffffff1681526020019081526020016000206000828254610f919190612f12565b92505081905550816002600083815260200190815260200160002060006101000a81548173ffffffffffffffffffffffffffffffffffffffff021916908373ffffffffffffffffffffffffffffffffffffffff160217905550808273ffffffffffffffffffffffffffffffffffffffff168473ffffffffffffffffffffffffffffffffffffffff167fddf252ad1be2c89b69c2b068fc378daa952ba7f163c4a11628f55a4df523b3ef60405160405180910390a4505050565b8173ffffffffffffffffffffffffffffffffffffffff168373ffffffffffffffffffffffffffffffffffffffff1614156110b9576040517f08c379a00000000000000000000000000000000000000000000000000000000081526004016110b090612fb4565b60405180910390fd5b80600560008573ffffffffffffffffffffffffffffffffffffffff1673ffffffffffffffffffffffffffffffffffffffff16815260200190815260200160002060008473ffffffffffffffffffffffffffffffffffffffff1673ffffffffffffffffffffffffffffffffffffffff16815260200190815260200160002060006101000a81548160ff0219169083151502179055508173ffffffffffffffffffffffffffffffffffffffff168373ffffffffffffffffffffffffffffffffffffffff167f17307eab39ab6107e8899845ad3d59bd9653f200f220920489ca2b5937696c31836040516111aa9190612073565b60405180910390a3505050565b6111c2848484610dee565b6111ce848484846118cd565b61120d576040517f08c379a000000000000000000000000000000000000000000000000000000000815260040161120490613046565b60405180910390fd5b50505050565b606061121e82610be3565b61125d576040517f08c379a0000000000000000000000000000000000000000000000000000000008152600401611254906130d8565b60405180910390fd5b600060066000848152602001908152602001600020805461127d906125b1565b80601f01602080910402602001604051908101604052809291908181526020018280546112a9906125b1565b80156112f65780601f106112cb576101008083540402835291602001916112f6565b820191906000526020600020905b8154815290600101906020018083116112d957829003601f168201915b505050505090506000611307611a55565b905060008151141561131d578192505050611360565b60008251111561135257808260405160200161133a9291906130f8565b60405160208183030381529060405292505050611360565b61135b84611a6c565b925050505b919050565b600081600001549050919050565b6001816000016000828254019250508190555050565b6113a3828260405180602001604052806000815250611b13565b5050565b606060006113ea6040518060400160405280600a81526020017f46495253545f574f52440000000000000000000000000000000000000000000081525084611b6e565b9050600a80549050816113fd919061314b565b9050600a81815481106114135761141261317c565b5b906000526020600020018054611428906125b1565b80601f0160208091040260200160405190810160405280929190818152602001828054611454906125b1565b80156114a15780601f10611476576101008083540402835291602001916114a1565b820191906000526020600020905b81548152906001019060200180831161148457829003601f168201915b5050505050915050919050565b606060006114f16040518060400160405280600b81526020017f5345434f4e445f574f524400000000000000000000000000000000000000000081525084611b6e565b9050600b8054905081611504919061314b565b9050600b818154811061151a5761151961317c565b5b90600052602060002001805461152f906125b1565b80601f016020809104026020016040519081016040528092919081815260200182805461155b906125b1565b80156115a85780601f1061157d576101008083540402835291602001916115a8565b820191906000526020600020905b81548152906001019060200180831161158b57829003601f168201915b5050505050915050919050565b606060006115f86040518060400160405280600a81526020017f54484952445f574f52440000000000000000000000000000000000000000000081525084611b6e565b9050600c805490508161160b919061314b565b9050600c81815481106116215761162061317c565b5b906000526020600020018054611636906125b1565b80601f0160208091040260200160405190810160405280929190818152602001828054611662906125b1565b80156116af5780601f10611684576101008083540402835291602001916116af565b820191906000526020600020905b81548152906001019060200180831161169257829003601f168201915b5050505050915050919050565b606060008251905060008114156116e5576040518060200160405280600081525091505061184f565b600060036002836116f69190612f12565b61170091906131ab565b600461170c91906131dc565b9050600060208261171d9190612f12565b67ffffffffffffffff81111561173657611735612394565b5b6040519080825280601f01601f1916602001820160405280156117685781602001600182028036833780820191505090505b5090506000604051806060016040528060408152602001613576604091399050600181016020830160005b8681101561180c5760038101905062ffffff818a015116603f8160121c168401518060081b905060ff603f83600c1c1686015116810190508060081b905060ff603f8360061c1686015116810190508060081b905060ff603f831686015116810190508060e01b90508084526004840193505050611793565b506003860660018114611826576002811461183657611841565b613d3d60f01b6002830352611841565b603d60f81b60018303525b508484525050819450505050505b919050565b61185d82610be3565b61189c576040517f08c379a0000000000000000000000000000000000000000000000000000000008152600401611893906132a8565b60405180910390fd5b806006600084815260200190815260200160002090805190602001906118c3929190611f1c565b505050565b505050565b60006118ee8473ffffffffffffffffffffffffffffffffffffffff16611bda565b15611a48578373ffffffffffffffffffffffffffffffffffffffff1663150b7a02611917610c4f565b8786866040518563ffffffff1660e01b8152600401611939949392919061331d565b6020604051808303816000875af192505050801561197557506040513d601f19601f82011682018060405250810190611972919061337e565b60015b6119f8573d80600081146119a5576040519150601f19603f3d011682016040523d82523d6000602084013e6119aa565b606091505b506000815114156119f0576040517f08c379a00000000000000000000000000000000000000000000000000000000081526004016119e790613046565b60405180910390fd5b805181602001fd5b63150b7a0260e01b7bffffffffffffffffffffffffffffffffffffffffffffffffffffffff1916817bffffffffffffffffffffffffffffffffffffffffffffffffffffffff191614915050611a4d565b600190505b949350505050565b606060405180602001604052806000815250905090565b6060611a7782610be3565b611ab6576040517f08c379a0000000000000000000000000000000000000000000000000000000008152600401611aad9061341d565b60405180910390fd5b6000611ac0611a55565b90506000815111611ae05760405180602001604052806000815250611b0b565b80611aea84611bed565b604051602001611afb9291906130f8565b6040516020818303038152906040525b915050919050565b611b1d8383611d4e565b611b2a60008484846118cd565b611b69576040517f08c379a0000000000000000000000000000000000000000000000000000000008152600401611b6090613046565b60405180910390fd5b505050565b60008083611b7b42611bed565b611b8485611bed565b604051602001611b96939291906129f7565b604051602081830303815290604052905080604051602001611bb8919061343d565b6040516020818303038152906040528051906020012060001c91505092915050565b600080823b905060008111915050919050565b60606000821415611c35576040518060400160405280600181526020017f30000000000000000000000000000000000000000000000000000000000000008152509050611d49565b600082905060005b60008214611c67578080611c5090613454565b915050600a82611c6091906131ab565b9150611c3d565b60008167ffffffffffffffff811115611c8357611c82612394565b5b6040519080825280601f01601f191660200182016040528015611cb55781602001600182028036833780820191505090505b5090505b60008514611d4257600182611cce9190612ede565b9150600a85611cdd919061314b565b6030611ce99190612f12565b60f81b818381518110611cff57611cfe61317c565b5b60200101907effffffffffffffffffffffffffffffffffffffffffffffffffffffffffffff1916908160001a905350600a85611d3b91906131ab565b9450611cb9565b8093505050505b919050565b600073ffffffffffffffffffffffffffffffffffffffff168273ffffffffffffffffffffffffffffffffffffffff161415611dbe576040517f08c379a0000000000000000000000000000000000000000000000000000000008152600401611db5906134e9565b60405180910390fd5b611dc781610be3565b15611e07576040517f08c379a0000000000000000000000000000000000000000000000000000000008152600401611dfe90613555565b60405180910390fd5b611e13600083836118c8565b6001600360008473ffffffffffffffffffffffffffffffffffffffff1673ffffffffffffffffffffffffffffffffffffffff1681526020019081526020016000206000828254611e639190612f12565b92505081905550816002600083815260200190815260200160002060006101000a81548173ffffffffffffffffffffffffffffffffffffffff021916908373ffffffffffffffffffffffffffffffffffffffff160217905550808273ffffffffffffffffffffffffffffffffffffffff16600073ffffffffffffffffffffffffffffffffffffffff167fddf252ad1be2c89b69c2b068fc378daa952ba7f163c4a11628f55a4df523b3ef60405160405180910390a45050565b828054611f28906125b1565b90600052602060002090601f016020900481019282611f4a5760008555611f91565b82601f10611f6357805160ff1916838001178555611f91565b82800160010185558215611f91579182015b82811115611f90578251825591602001919060010190611f75565b5b509050611f9e9190611fa2565b5090565b5b80821115611fbb576000816000905550600101611fa3565b5090565b6000604051905090565b600080fd5b600080fd5b60007fffffffff0000000000000000000000000000000000000000000000000000000082169050919050565b61200881611fd3565b811461201357600080fd5b50565b60008135905061202581611fff565b92915050565b60006020828403121561204157612040611fc9565b5b600061204f84828501612016565b91505092915050565b60008115159050919050565b61206d81612058565b82525050565b60006020820190506120886000830184612064565b92915050565b600081519050919050565b600082825260208201905092915050565b60005b838110156120c85780820151818401526020810190506120ad565b838111156120d7576000848401525b50505050565b6000601f19601f8301169050919050565b60006120f98261208e565b6121038185612099565b93506121138185602086016120aa565b61211c816120dd565b840191505092915050565b6000602082019050818103600083015261214181846120ee565b905092915050565b6000819050919050565b61215c81612149565b811461216757600080fd5b50565b60008135905061217981612153565b92915050565b60006020828403121561219557612194611fc9565b5b60006121a38482850161216a565b91505092915050565b600073ffffffffffffffffffffffffffffffffffffffff82169050919050565b60006121d7826121ac565b9050919050565b6121e7816121cc565b82525050565b600060208201905061220260008301846121de565b92915050565b612211816121cc565b811461221c57600080fd5b50565b60008135905061222e81612208565b92915050565b6000806040838503121561224b5761224a611fc9565b5b60006122598582860161221f565b925050602061226a8582860161216a565b9150509250929050565b60008060006060848603121561228d5761228c611fc9565b5b600061229b8682870161221f565b93505060206122ac8682870161221f565b92505060406122bd8682870161216a565b9150509250925092565b6122d081612149565b82525050565b60006020820190506122eb60008301846122c7565b92915050565b60006020828403121561230757612306611fc9565b5b60006123158482850161221f565b91505092915050565b61232781612058565b811461233257600080fd5b50565b6000813590506123448161231e565b92915050565b6000806040838503121561236157612360611fc9565b5b600061236f8582860161221f565b925050602061238085828601612335565b9150509250929050565b600080fd5b600080fd5b7f4e487b7100000000000000000000000000000000000000000000000000000000600052604160045260246000fd5b6123cc826120dd565b810181811067ffffffffffffffff821117156123eb576123ea612394565b5b80604052505050565b60006123fe611fbf565b905061240a82826123c3565b919050565b600067ffffffffffffffff82111561242a57612429612394565b5b612433826120dd565b9050602081019050919050565b82818337600083830152505050565b600061246261245d8461240f565b6123f4565b90508281526020810184848401111561247e5761247d61238f565b5b612489848285612440565b509392505050565b600082601f8301126124a6576124a561238a565b5b81356124b684826020860161244f565b91505092915050565b600080600080608085870312156124d9576124d8611fc9565b5b60006124e78782880161221f565b94505060206124f88782880161221f565b93505060406125098782880161216a565b925050606085013567ffffffffffffffff81111561252a57612529611fce565b5b61253687828801612491565b91505092959194509250565b6000806040838503121561255957612558611fc9565b5b60006125678582860161221f565b92505060206125788582860161221f565b9150509250929050565b7f4e487b7100000000000000000000000000000000000000000000000000000000600052602260045260246000fd5b600060028204905060018216806125c957607f821691505b602082108114156125dd576125dc612582565b5b50919050565b7f4552433732313a20617070726f76656420717565727920666f72206e6f6e657860008201527f697374656e7420746f6b656e0000000000000000000000000000000000000000602082015250565b600061263f602c83612099565b915061264a826125e3565b604082019050919050565b6000602082019050818103600083015261266e81612632565b9050919050565b7f4552433732313a20617070726f76616c20746f2063757272656e74206f776e6560008201527f7200000000000000000000000000000000000000000000000000000000000000602082015250565b60006126d1602183612099565b91506126dc82612675565b604082019050919050565b60006020820190508181036000830152612700816126c4565b9050919050565b7f4552433732313a20617070726f76652063616c6c6572206973206e6f74206f7760008201527f6e6572206e6f7220617070726f76656420666f7220616c6c0000000000000000602082015250565b6000612763603883612099565b915061276e82612707565b604082019050919050565b6000602082019050818103600083015261279281612756565b9050919050565b7f4552433732313a207472616e736665722063616c6c6572206973206e6f74206f60008201527f776e6572206e6f7220617070726f766564000000000000000000000000000000602082015250565b60006127f5603183612099565b915061280082612799565b604082019050919050565b60006020820190508181036000830152612824816127e8565b9050919050565b7f4552433732313a206f776e657220717565727920666f72206e6f6e657869737460008201527f656e7420746f6b656e0000000000000000000000000000000000000000000000602082015250565b6000612887602983612099565b91506128928261282b565b604082019050919050565b600060208201905081810360008301526128b68161287a565b9050919050565b7f4552433732313a2062616c616e636520717565727920666f7220746865207a6560008201527f726f206164647265737300000000000000000000000000000000000000000000602082015250565b6000612919602a83612099565b9150612924826128bd565b604082019050919050565b600060208201905081810360008301526129488161290c565b9050919050565b7f416c6c204e4654732068617665206265656e206d696e74656400000000000000600082015250565b6000612985601983612099565b91506129908261294f565b602082019050919050565b600060208201905081810360008301526129b481612978565b9050919050565b600081905092915050565b60006129d18261208e565b6129db81856129bb565b93506129eb8185602086016120aa565b80840191505092915050565b6000612a0382866129c6565b9150612a0f82856129c6565b9150612a1b82846129c6565b9150819050949350505050565b60008190508160005260206000209050919050565b60008154612a4a816125b1565b612a5481866129bb565b94506001821660008114612a6f5760018114612a8057612ab3565b60ff19831686528186019350612ab3565b612a8985612a28565b60005b83811015612aab57815481890152600182019150602081019050612a8c565b838801955050505b50505092915050565b6000612ac88286612a3d565b9150612ad482856129c6565b9150612ae08284612a3d565b9150819050949350505050565b7f7b226e616d65223a202200000000000000000000000000000000000000000000600082015250565b6000612b23600a836129bb565b9150612b2e82612aed565b600a82019050919050565b7f222c20226465736372697074696f6e223a2022416e206570696320636f6c6c6560008201527f6374696f6e206f6620636f6f6c206e616d6573222c2022696d616765223a202260208201527f646174613a696d6167652f7376672b786d6c3b6261736536342c000000000000604082015250565b6000612bbb605a836129bb565b9150612bc682612b39565b605a82019050919050565b7f227d000000000000000000000000000000000000000000000000000000000000600082015250565b6000612c076002836129bb565b9150612c1282612bd1565b600282019050919050565b6000612c2882612b16565b9150612c3482856129c6565b9150612c3f82612bae565b9150612c4b82846129c6565b9150612c5682612bfa565b91508190509392505050565b7f646174613a6170706c69636174696f6e2f6a736f6e3b6261736536342c000000600082015250565b6000612c98601d836129bb565b9150612ca382612c62565b601d82019050919050565b6000612cb982612c8b565b9150612cc582846129c6565b915081905092915050565b6000604082019050612ce560008301856121de565b612cf260208301846122c7565b9392505050565b7f4552433732313a206f70657261746f7220717565727920666f72206e6f6e657860008201527f697374656e7420746f6b656e0000000000000000000000000000000000000000602082015250565b6000612d55602c83612099565b9150612d6082612cf9565b604082019050919050565b60006020820190508181036000830152612d8481612d48565b9050919050565b7f4552433732313a207472616e73666572206f6620746f6b656e2074686174206960008201527f73206e6f74206f776e0000000000000000000000000000000000000000000000602082015250565b6000612de7602983612099565b9150612df282612d8b565b604082019050919050565b60006020820190508181036000830152612e1681612dda565b9050919050565b7f4552433732313a207472616e7366657220746f20746865207a65726f2061646460008201527f7265737300000000000000000000000000000000000000000000000000000000602082015250565b6000612e79602483612099565b9150612e8482612e1d565b604082019050919050565b60006020820190508181036000830152612ea881612e6c565b9050919050565b7f4e487b7100000000000000000000000000000000000000000000000000000000600052601160045260246000fd5b6000612ee982612149565b9150612ef483612149565b925082821015612f0757612f06612eaf565b5b828203905092915050565b6000612f1d82612149565b9150612f2883612149565b9250827fffffffffffffffffffffffffffffffffffffffffffffffffffffffffffffffff03821115612f5d57612f5c612eaf565b5b828201905092915050565b7f4552433732313a20617070726f766520746f2063616c6c657200000000000000600082015250565b6000612f9e601983612099565b9150612fa982612f68565b602082019050919050565b60006020820190508181036000830152612fcd81612f91565b9050919050565b7f4552433732313a207472616e7366657220746f206e6f6e20455243373231526560008201527f63656976657220696d706c656d656e7465720000000000000000000000000000602082015250565b6000613030603283612099565b915061303b82612fd4565b604082019050919050565b6000602082019050818103600083015261305f81613023565b9050919050565b7f45524337323155524953746f726167653a2055524920717565727920666f722060008201527f6e6f6e6578697374656e7420746f6b656e000000000000000000000000000000602082015250565b60006130c2603183612099565b91506130cd82613066565b604082019050919050565b600060208201905081810360008301526130f1816130b5565b9050919050565b600061310482856129c6565b915061311082846129c6565b91508190509392505050565b7f4e487b7100000000000000000000000000000000000000000000000000000000600052601260045260246000fd5b600061315682612149565b915061316183612149565b9250826131715761317061311c565b5b828206905092915050565b7f4e487b7100000000000000000000000000000000000000000000000000000000600052603260045260246000fd5b60006131b682612149565b91506131c183612149565b9250826131d1576131d061311c565b5b828204905092915050565b60006131e782612149565b91506131f283612149565b9250817fffffffffffffffffffffffffffffffffffffffffffffffffffffffffffffffff048311821515161561322b5761322a612eaf565b5b828202905092915050565b7f45524337323155524953746f726167653a2055524920736574206f66206e6f6e60008201527f6578697374656e7420746f6b656e000000000000000000000000000000000000602082015250565b6000613292602e83612099565b915061329d82613236565b604082019050919050565b600060208201905081810360008301526132c181613285565b9050919050565b600081519050919050565b600082825260208201905092915050565b60006132ef826132c8565b6132f981856132d3565b93506133098185602086016120aa565b613312816120dd565b840191505092915050565b600060808201905061333260008301876121de565b61333f60208301866121de565b61334c60408301856122c7565b818103606083015261335e81846132e4565b905095945050505050565b60008151905061337881611fff565b92915050565b60006020828403121561339457613393611fc9565b5b60006133a284828501613369565b91505092915050565b7f4552433732314d657461646174613a2055524920717565727920666f72206e6f60008201527f6e6578697374656e7420746f6b656e0000000000000000000000000000000000602082015250565b6000613407602f83612099565b9150613412826133ab565b604082019050919050565b60006020820190508181036000830152613436816133fa565b9050919050565b600061344982846129c6565b915081905092915050565b600061345f82612149565b91507fffffffffffffffffffffffffffffffffffffffffffffffffffffffffffffffff82141561349257613491612eaf565b5b600182019050919050565b7f4552433732313a206d696e7420746f20746865207a65726f2061646472657373600082015250565b60006134d3602083612099565b91506134de8261349d565b602082019050919050565b60006020820190508181036000830152613502816134c6565b9050919050565b7f4552433732313a20746f6b656e20616c7265616479206d696e74656400000000600082015250565b600061353f601c83612099565b915061354a82613509565b602082019050919050565b6000602082019050818103600083015261356e81613532565b905091905056fe4142434445464748494a4b4c4d4e4f505152535455565758595a6162636465666768696a6b6c6d6e6f707172737475767778797a303132333435363738392b2fa26469706673582212204270e4a641e277329a3e352de5cc23feac5590ba44d9a42ea2cb29e6ad4515ef64736f6c634300080b00333c73766720786d6c6e733d27687474703a2f2f7777772e77332e6f72672f323030302f73766727207072657365727665417370656374526174696f3d27784d696e594d696e206d656574272076696577426f783d273020302033353020333530273e3c7374796c653e2e62617365207b2066696c6c3a2077686974653b20666f6e742d66616d696c793a2073657269663b20666f6e742d73697a653a20323470783b207d3c2f7374796c653e3c726563742077696474683d273130302527206865696768743d2731303025272066696c6c3d27626c61636b27202f3e3c7465787420783d273530252720793d273530252720636c6173733d27626173652720646f6d696e616e742d626173656c696e653d276d6964646c652720746578742d616e63686f723d276d6964646c65273e",
  "linkReferences": {},
  "deployedLinkReferences": {}
}