{
  "_format": "hh-sol-artifact-1",
  "contractName": "EpicNFT",
  "sourceName": "contracts/EpicNFT.sol",
  "abi": [
    {
      "inputs": [],
      "stateMutability": "nonpayable",
      "type": "constructor"
    },
    {
      "anonymous": false,
      "inputs": [
        {
          "indexed": true,
          "internalType": "address",
          "name": "owner",
          "type": "address"
        },
        {
          "indexed": true,
          "internalType": "address",
          "name": "approved",
          "type": "address"
        },
        {
          "indexed": true,
          "internalType": "uint256",
          "name": "tokenId",
          "type": "uint256"
        }
      ],
      "name": "Approval",
      "type": "event"
    },
    {
      "anonymous": false,
      "inputs": [
        {
          "indexed": true,
          "internalType": "address",
          "name": "owner",
          "type": "address"
        },
        {
          "indexed": true,
          "internalType": "address",
          "name": "operator",
          "type": "address"
        },
        {
          "indexed": false,
          "internalType": "bool",
          "name": "approved",
          "type": "bool"
        }
      ],
      "name": "ApprovalForAll",
      "type": "event"
    },
    {
      "anonymous": false,
      "inputs": [
        {
          "indexed": false,
          "internalType": "address",
          "name": "sender",
          "type": "address"
        },
        {
          "indexed": false,
          "internalType": "uint256",
          "name": "tokenId",
          "type": "uint256"
        }
      ],
      "name": "NewEpicNFTMinted",
      "type": "event"
    },
    {
      "anonymous": false,
      "inputs": [
        {
          "indexed": true,
          "internalType": "address",
          "name": "previousOwner",
          "type": "address"
        },
        {
          "indexed": true,
          "internalType": "address",
          "name": "newOwner",
          "type": "address"
        }
      ],
      "name": "OwnershipTransferred",
      "type": "event"
    },
    {
      "anonymous": false,
      "inputs": [
        {
          "indexed": true,
          "internalType": "address",
          "name": "from",
          "type": "address"
        },
        {
          "indexed": true,
          "internalType": "address",
          "name": "to",
          "type": "address"
        },
        {
          "indexed": true,
          "internalType": "uint256",
          "name": "tokenId",
          "type": "uint256"
        }
      ],
      "name": "Transfer",
      "type": "event"
    },
    {
      "inputs": [],
      "name": "MAX_SUPPLY",
      "outputs": [
        {
          "internalType": "uint256",
          "name": "",
          "type": "uint256"
        }
      ],
      "stateMutability": "view",
      "type": "function"
    },
    {
      "inputs": [
        {
          "internalType": "address",
          "name": "to",
          "type": "address"
        },
        {
          "internalType": "uint256",
          "name": "tokenId",
          "type": "uint256"
        }
      ],
      "name": "approve",
      "outputs": [],
      "stateMutability": "nonpayable",
      "type": "function"
    },
    {
      "inputs": [
        {
          "internalType": "address",
          "name": "owner",
          "type": "address"
        }
      ],
      "name": "balanceOf",
      "outputs": [
        {
          "internalType": "uint256",
          "name": "",
          "type": "uint256"
        }
      ],
      "stateMutability": "view",
      "type": "function"
    },
    {
      "inputs": [
        {
          "internalType": "uint256",
          "name": "tokenId",
          "type": "uint256"
        }
      ],
      "name": "getApproved",
      "outputs": [
        {
          "internalType": "address",
          "name": "",
          "type": "address"
        }
      ],
      "stateMutability": "view",
      "type": "function"
    },
    {
      "inputs": [],
      "name": "getMintedCount",
      "outputs": [
        {
          "internalType": "uint256",
          "name": "",
          "type": "uint256"
        }
      ],
      "stateMutability": "view",
      "type": "function"
    },
    {
      "inputs": [
        {
          "internalType": "address",
          "name": "owner",
          "type": "address"
        },
        {
          "internalType": "address",
          "name": "operator",
          "type": "address"
        }
      ],
      "name": "isApprovedForAll",
      "outputs": [
        {
          "internalType": "bool",
          "name": "",
          "type": "bool"
        }
      ],
      "stateMutability": "view",
      "type": "function"
    },
    {
      "inputs": [],
      "name": "makeAnEpicNFT",
      "outputs": [],
      "stateMutability": "nonpayable",
      "type": "function"
    },
    {
      "inputs": [],
      "name": "name",
      "outputs": [
        {
          "internalType": "string",
          "name": "",
          "type": "string"
        }
      ],
      "stateMutability": "view",
      "type": "function"
    },
    {
      "inputs": [],
      "name": "owner",
      "outputs": [
        {
          "internalType": "address",
          "name": "",
          "type": "address"
        }
      ],
      "stateMutability": "view",
      "type": "function"
    },
    {
      "inputs": [
        {
          "internalType": "uint256",
          "name": "tokenId",
          "type": "uint256"
        }
      ],
      "name": "ownerOf",
      "outputs": [
        {
          "internalType": "address",
          "name": "",
          "type": "address"
        }
      ],
      "stateMutability": "view",
      "type": "function"
    },
    {
      "inputs": [],
      "name": "renounceOwnership",
      "outputs": [],
      "stateMutability": "nonpayable",
      "type": "function"
    },
    {
      "inputs": [
        {
          "internalType": "address",
          "name": "from",
          "type": "address"
        },
        {
          "internalType": "address",
          "name": "to",
          "type": "address"
        },
        {
          "internalType": "uint256",
          "name": "tokenId",
          "type": "uint256"
        }
      ],
      "name": "safeTransferFrom",
      "outputs": [],
      "stateMutability": "nonpayable",
      "type": "function"
    },
    {
      "inputs": [
        {
          "internalType": "address",
          "name": "from",
          "type": "address"
        },
        {
          "internalType": "address",
          "name": "to",
          "type": "address"
        },
        {
          "internalType": "uint256",
          "name": "tokenId",
          "type": "uint256"
        },
        {
          "internalType": "bytes",
          "name": "_data",
          "type": "bytes"
        }
      ],
      "name": "safeTransferFrom",
      "outputs": [],
      "stateMutability": "nonpayable",
      "type": "function"
    },
    {
      "inputs": [
        {
          "internalType": "address",
          "name": "operator",
          "type": "address"
        },
        {
          "internalType": "bool",
          "name": "approved",
          "type": "bool"
        }
      ],
      "name": "setApprovalForAll",
      "outputs": [],
      "stateMutability": "nonpayable",
      "type": "function"
    },
    {
      "inputs": [
        {
          "internalType": "bytes4",
          "name": "interfaceId",
          "type": "bytes4"
        }
      ],
      "name": "supportsInterface",
      "outputs": [
        {
          "internalType": "bool",
          "name": "",
          "type": "bool"
        }
      ],
      "stateMutability": "view",
      "type": "function"
    },
    {
      "inputs": [],
      "name": "symbol",
      "outputs": [
        {
          "internalType": "string",
          "name": "",
          "type": "string"
        }
      ],
      "stateMutability": "view",
      "type": "function"
    },
    {
      "inputs": [
        {
          "internalType": "uint256",
          "name": "tokenId",
          "type": "uint256"
        }
      ],
      "name": "tokenURI",
      "outputs": [
        {
          "internalType": "string",
          "name": "",
          "type": "string"
        }
      ],
      "stateMutability": "view",
      "type": "function"
    },
    {
      "inputs": [
        {
          "internalType": "address",
          "name": "from",
          "type": "address"
        },
        {
          "internalType": "address",
          "name": "to",
          "type": "address"
        },
        {
          "internalType": "uint256",
          "name": "tokenId",
          "type": "uint256"
        }
      ],
      "name": "transferFrom",
      "outputs": [],
      "stateMutability": "nonpayable",
      "type": "function"
    },
    {
      "inputs": [
        {
          "internalType": "address",
          "name": "newOwner",
          "type": "address"
        }
      ],
      "name": "transferOwnership",
      "outputs": [],
      "stateMutability": "nonpayable",
      "type": "function"
    }
  ],
  "bytecode": "0x608060405260405180610160016040528061012f81526020016200459e61012f913960099080519060200190620000389291906200096a565b506040518060400160405280600d81526020017f3c2f746578743e3c2f7376673e00000000000000000000000000000000000000815250600a9080519060200190620000869291906200096a565b506040518061014001604052806040518060400160405280600481526020017f436174730000000000000000000000000000000000000000000000000000000081525081526020016040518060400160405280600481526020017f446f67730000000000000000000000000000000000000000000000000000000081525081526020016040518060400160405280600681526020017f486f72736573000000000000000000000000000000000000000000000000000081525081526020016040518060400160405280600581526020017f42756c6c7300000000000000000000000000000000000000000000000000000081525081526020016040518060400160405280600581526020017f426561727300000000000000000000000000000000000000000000000000000081525081526020016040518060400160405280600881526020017f436869636b656e7300000000000000000000000000000000000000000000000081525081526020016040518060400160405280600481526020017f526174730000000000000000000000000000000000000000000000000000000081525081526020016040518060400160405280600781526020017f526162626974730000000000000000000000000000000000000000000000000081525081526020016040518060400160405280600681526020017f536e616b6573000000000000000000000000000000000000000000000000000081525081526020016040518060400160405280600681526020017f5768616c65730000000000000000000000000000000000000000000000000000815250815250600b90600a620002f1929190620009fb565b506040518061014001604052806040518060400160405280600481526020017f4c696b650000000000000000000000000000000000000000000000000000000081525081526020016040518060400160405280600481526020017f4c6f76650000000000000000000000000000000000000000000000000000000081525081526020016040518060400160405280600481526020017f486174650000000000000000000000000000000000000000000000000000000081525081526020016040518060400160405280600481526020017f4b696c6c0000000000000000000000000000000000000000000000000000000081525081526020016040518060400160405280600381526020017f456174000000000000000000000000000000000000000000000000000000000081525081526020016040518060400160405280600781526020017f44697374726f790000000000000000000000000000000000000000000000000081525081526020016040518060400160405280600781526020017f4162616e646f6e0000000000000000000000000000000000000000000000000081525081526020016040518060400160405280600481526020017f426561740000000000000000000000000000000000000000000000000000000081525081526020016040518060400160405280600581526020017f50756e636800000000000000000000000000000000000000000000000000000081525081526020016040518060400160405280600581526020017f4275696c64000000000000000000000000000000000000000000000000000000815250815250600c90600a6200055c929190620009fb565b506040518061014001604052806040518060400160405280600781526020017f426974636f696e0000000000000000000000000000000000000000000000000081525081526020016040518060400160405280600881526020017f457468657265756d00000000000000000000000000000000000000000000000081525081526020016040518060400160405280600881526020017f506f6c6b61646f7400000000000000000000000000000000000000000000000081525081526020016040518060400160405280600781526020017f43617264616e6f0000000000000000000000000000000000000000000000000081525081526020016040518060400160405280600681526020017f536f6c616e61000000000000000000000000000000000000000000000000000081525081526020016040518060400160405280600581526020017f546572726100000000000000000000000000000000000000000000000000000081525081526020016040518060400160405280600981526020017f4176616c616e636865000000000000000000000000000000000000000000000081525081526020016040518060400160405280600681526020017f456c726f6e64000000000000000000000000000000000000000000000000000081525081526020016040518060400160405280600781526020017f506f6c79676f6e0000000000000000000000000000000000000000000000000081525081526020016040518060400160405280600681526020017f46616e746f6d0000000000000000000000000000000000000000000000000000815250815250600d90600a620007c7929190620009fb565b50348015620007d557600080fd5b506040518060400160405280600481526020017f45706963000000000000000000000000000000000000000000000000000000008152506040518060400160405280600381526020017f455043000000000000000000000000000000000000000000000000000000000081525081600090805190602001906200085a9291906200096a565b508060019080519060200190620008739291906200096a565b505050620008966200088a6200089c60201b60201c565b620008a460201b60201c565b62000b54565b600033905090565b6000600760009054906101000a900473ffffffffffffffffffffffffffffffffffffffff16905081600760006101000a81548173ffffffffffffffffffffffffffffffffffffffff021916908373ffffffffffffffffffffffffffffffffffffffff1602179055508173ffffffffffffffffffffffffffffffffffffffff168173ffffffffffffffffffffffffffffffffffffffff167f8be0079c531659141344cd1fd0a4f28419497f9722a3daafe3b4186f6b6457e060405160405180910390a35050565b828054620009789062000b1e565b90600052602060002090601f0160209004810192826200099c5760008555620009e8565b82601f10620009b757805160ff1916838001178555620009e8565b82800160010185558215620009e8579182015b82811115620009e7578251825591602001919060010190620009ca565b5b509050620009f7919062000a62565b5090565b82805482825590600052602060002090810192821562000a4f579160200282015b8281111562000a4e57825182908051906020019062000a3d9291906200096a565b509160200191906001019062000a1c565b5b50905062000a5e919062000a81565b5090565b5b8082111562000a7d57600081600090555060010162000a63565b5090565b5b8082111562000aa5576000818162000a9b919062000aa9565b5060010162000a82565b5090565b50805462000ab79062000b1e565b6000825580601f1062000acb575062000aec565b601f01602090049060005260206000209081019062000aeb919062000a62565b5b50565b7f4e487b7100000000000000000000000000000000000000000000000000000000600052602260045260246000fd5b6000600282049050600182168062000b3757607f821691505b6020821081141562000b4e5762000b4d62000aef565b5b50919050565b613a3a8062000b646000396000f3fe608060405234801561001057600080fd5b50600436106101215760003560e01c8063715018a6116100ad578063c87b56dd11610071578063c87b56dd146102f4578063de9d132f14610324578063e985e9c51461032e578063ebc9bd3b1461035e578063f2fde38b1461037c57610121565b8063715018a6146102765780638da5cb5b1461028057806395d89b411461029e578063a22cb465146102bc578063b88d4fde146102d857610121565b806323b872dd116100f457806323b872dd146101c057806332cb6b0c146101dc57806342842e0e146101fa5780636352211e1461021657806370a082311461024657610121565b806301ffc9a71461012657806306fdde0314610156578063081812fc14610174578063095ea7b3146101a4575b600080fd5b610140600480360381019061013b919061237c565b610398565b60405161014d91906123c4565b60405180910390f35b61015e61047a565b60405161016b9190612478565b60405180910390f35b61018e600480360381019061018991906124d0565b61050c565b60405161019b919061253e565b60405180910390f35b6101be60048036038101906101b99190612585565b610591565b005b6101da60048036038101906101d591906125c5565b6106a9565b005b6101e4610709565b6040516101f19190612627565b60405180910390f35b610214600480360381019061020f91906125c5565b61070e565b005b610230600480360381019061022b91906124d0565b61072e565b60405161023d919061253e565b60405180910390f35b610260600480360381019061025b9190612642565b6107e0565b60405161026d9190612627565b60405180910390f35b61027e610898565b005b610288610920565b604051610295919061253e565b60405180910390f35b6102a661094a565b6040516102b39190612478565b60405180910390f35b6102d660048036038101906102d1919061269b565b6109dc565b005b6102f260048036038101906102ed9190612810565b6109f2565b005b61030e600480360381019061030991906124d0565b610a54565b60405161031b9190612478565b60405180910390f35b61032c610a66565b005b61034860048036038101906103439190612893565b610c67565b60405161035591906123c4565b60405180910390f35b610366610cfb565b6040516103739190612627565b60405180910390f35b61039660048036038101906103919190612642565b610d0c565b005b60007f80ac58cd000000000000000000000000000000000000000000000000000000007bffffffffffffffffffffffffffffffffffffffffffffffffffffffff1916827bffffffffffffffffffffffffffffffffffffffffffffffffffffffff1916148061046357507f5b5e139f000000000000000000000000000000000000000000000000000000007bffffffffffffffffffffffffffffffffffffffffffffffffffffffff1916827bffffffffffffffffffffffffffffffffffffffffffffffffffffffff1916145b80610473575061047282610e04565b5b9050919050565b60606000805461048990612902565b80601f01602080910402602001604051908101604052809291908181526020018280546104b590612902565b80156105025780601f106104d757610100808354040283529160200191610502565b820191906000526020600020905b8154815290600101906020018083116104e557829003601f168201915b5050505050905090565b600061051782610e6e565b610556576040517f08c379a000000000000000000000000000000000000000000000000000000000815260040161054d906129a6565b60405180910390fd5b6004600083815260200190815260200160002060009054906101000a900473ffffffffffffffffffffffffffffffffffffffff169050919050565b600061059c8261072e565b90508073ffffffffffffffffffffffffffffffffffffffff168373ffffffffffffffffffffffffffffffffffffffff16141561060d576040517f08c379a000000000000000000000000000000000000000000000000000000000815260040161060490612a38565b60405180910390fd5b8073ffffffffffffffffffffffffffffffffffffffff1661062c610eda565b73ffffffffffffffffffffffffffffffffffffffff16148061065b575061065a81610655610eda565b610c67565b5b61069a576040517f08c379a000000000000000000000000000000000000000000000000000000000815260040161069190612aca565b60405180910390fd5b6106a48383610ee2565b505050565b6106ba6106b4610eda565b82610f9b565b6106f9576040517f08c379a00000000000000000000000000000000000000000000000000000000081526004016106f090612b5c565b60405180910390fd5b610704838383611079565b505050565b606481565b610729838383604051806020016040528060008152506109f2565b505050565b6000806002600084815260200190815260200160002060009054906101000a900473ffffffffffffffffffffffffffffffffffffffff169050600073ffffffffffffffffffffffffffffffffffffffff168173ffffffffffffffffffffffffffffffffffffffff1614156107d7576040517f08c379a00000000000000000000000000000000000000000000000000000000081526004016107ce90612bee565b60405180910390fd5b80915050919050565b60008073ffffffffffffffffffffffffffffffffffffffff168273ffffffffffffffffffffffffffffffffffffffff161415610851576040517f08c379a000000000000000000000000000000000000000000000000000000000815260040161084890612c80565b60405180910390fd5b600360008373ffffffffffffffffffffffffffffffffffffffff1673ffffffffffffffffffffffffffffffffffffffff168152602001908152602001600020549050919050565b6108a0610eda565b73ffffffffffffffffffffffffffffffffffffffff166108be610920565b73ffffffffffffffffffffffffffffffffffffffff1614610914576040517f08c379a000000000000000000000000000000000000000000000000000000000815260040161090b90612cec565b60405180910390fd5b61091e60006112d5565b565b6000600760009054906101000a900473ffffffffffffffffffffffffffffffffffffffff16905090565b60606001805461095990612902565b80601f016020809104026020016040519081016040528092919081815260200182805461098590612902565b80156109d25780601f106109a7576101008083540402835291602001916109d2565b820191906000526020600020905b8154815290600101906020018083116109b557829003601f168201915b5050505050905090565b6109ee6109e7610eda565b838361139b565b5050565b610a036109fd610eda565b83610f9b565b610a42576040517f08c379a0000000000000000000000000000000000000000000000000000000008152600401610a3990612b5c565b60405180910390fd5b610a4e84848484611508565b50505050565b6060610a5f82611564565b9050919050565b610a6e610eda565b73ffffffffffffffffffffffffffffffffffffffff16610a8c610920565b73ffffffffffffffffffffffffffffffffffffffff1614610ae2576040517f08c379a0000000000000000000000000000000000000000000000000000000008152600401610ad990612cec565b60405180910390fd5b6000610aee60086116b6565b9050610afa60086116c4565b60648110610b3d576040517f08c379a0000000000000000000000000000000000000000000000000000000008152600401610b3490612d58565b60405180910390fd5b610b4733826116da565b6000610b52826116f8565b90506000610b5f836117ff565b90506000610b6c84611906565b90506000838383604051602001610b8593929190612db4565b60405160208183030381529060405290506000600982600a604051602001610baf93929190612e79565b60405160208183030381529060405290506000610bf483610bcf84611a0d565b604051602001610be0929190612fda565b604051602081830303815290604052611a0d565b9050600081604051602001610c09919061306b565b6040516020818303038152906040529050610c248882611ba5565b7febb98688741ffa4c7589bf325de30cf7becb63de567842e1ccdb6cb949fdc82c3389604051610c5592919061308d565b60405180910390a15050505050505050565b6000600560008473ffffffffffffffffffffffffffffffffffffffff1673ffffffffffffffffffffffffffffffffffffffff16815260200190815260200160002060008373ffffffffffffffffffffffffffffffffffffffff1673ffffffffffffffffffffffffffffffffffffffff16815260200190815260200160002060009054906101000a900460ff16905092915050565b6000610d0760086116b6565b905090565b610d14610eda565b73ffffffffffffffffffffffffffffffffffffffff16610d32610920565b73ffffffffffffffffffffffffffffffffffffffff1614610d88576040517f08c379a0000000000000000000000000000000000000000000000000000000008152600401610d7f90612cec565b60405180910390fd5b600073ffffffffffffffffffffffffffffffffffffffff168173ffffffffffffffffffffffffffffffffffffffff161415610df8576040517f08c379a0000000000000000000000000000000000000000000000000000000008152600401610def90613128565b60405180910390fd5b610e01816112d5565b50565b60007f01ffc9a7000000000000000000000000000000000000000000000000000000007bffffffffffffffffffffffffffffffffffffffffffffffffffffffff1916827bffffffffffffffffffffffffffffffffffffffffffffffffffffffff1916149050919050565b60008073ffffffffffffffffffffffffffffffffffffffff166002600084815260200190815260200160002060009054906101000a900473ffffffffffffffffffffffffffffffffffffffff1673ffffffffffffffffffffffffffffffffffffffff1614159050919050565b600033905090565b816004600083815260200190815260200160002060006101000a81548173ffffffffffffffffffffffffffffffffffffffff021916908373ffffffffffffffffffffffffffffffffffffffff160217905550808273ffffffffffffffffffffffffffffffffffffffff16610f558361072e565b73ffffffffffffffffffffffffffffffffffffffff167f8c5be1e5ebec7d5bd14f71427d1e84f3dd0314c0f7b2291e5b200ac8c7c3b92560405160405180910390a45050565b6000610fa682610e6e565b610fe5576040517f08c379a0000000000000000000000000000000000000000000000000000000008152600401610fdc906131ba565b60405180910390fd5b6000610ff08361072e565b90508073ffffffffffffffffffffffffffffffffffffffff168473ffffffffffffffffffffffffffffffffffffffff16148061105f57508373ffffffffffffffffffffffffffffffffffffffff166110478461050c565b73ffffffffffffffffffffffffffffffffffffffff16145b80611070575061106f8185610c67565b5b91505092915050565b8273ffffffffffffffffffffffffffffffffffffffff166110998261072e565b73ffffffffffffffffffffffffffffffffffffffff16146110ef576040517f08c379a00000000000000000000000000000000000000000000000000000000081526004016110e69061324c565b60405180910390fd5b600073ffffffffffffffffffffffffffffffffffffffff168273ffffffffffffffffffffffffffffffffffffffff16141561115f576040517f08c379a0000000000000000000000000000000000000000000000000000000008152600401611156906132de565b60405180910390fd5b61116a838383611c19565b611175600082610ee2565b6001600360008573ffffffffffffffffffffffffffffffffffffffff1673ffffffffffffffffffffffffffffffffffffffff16815260200190815260200160002060008282546111c5919061332d565b925050819055506001600360008473ffffffffffffffffffffffffffffffffffffffff1673ffffffffffffffffffffffffffffffffffffffff168152602001908152602001600020600082825461121c9190613361565b92505081905550816002600083815260200190815260200160002060006101000a81548173ffffffffffffffffffffffffffffffffffffffff021916908373ffffffffffffffffffffffffffffffffffffffff160217905550808273ffffffffffffffffffffffffffffffffffffffff168473ffffffffffffffffffffffffffffffffffffffff167fddf252ad1be2c89b69c2b068fc378daa952ba7f163c4a11628f55a4df523b3ef60405160405180910390a4505050565b6000600760009054906101000a900473ffffffffffffffffffffffffffffffffffffffff16905081600760006101000a81548173ffffffffffffffffffffffffffffffffffffffff021916908373ffffffffffffffffffffffffffffffffffffffff1602179055508173ffffffffffffffffffffffffffffffffffffffff168173ffffffffffffffffffffffffffffffffffffffff167f8be0079c531659141344cd1fd0a4f28419497f9722a3daafe3b4186f6b6457e060405160405180910390a35050565b8173ffffffffffffffffffffffffffffffffffffffff168373ffffffffffffffffffffffffffffffffffffffff16141561140a576040517f08c379a000000000000000000000000000000000000000000000000000000000815260040161140190613403565b60405180910390fd5b80600560008573ffffffffffffffffffffffffffffffffffffffff1673ffffffffffffffffffffffffffffffffffffffff16815260200190815260200160002060008473ffffffffffffffffffffffffffffffffffffffff1673ffffffffffffffffffffffffffffffffffffffff16815260200190815260200160002060006101000a81548160ff0219169083151502179055508173ffffffffffffffffffffffffffffffffffffffff168373ffffffffffffffffffffffffffffffffffffffff167f17307eab39ab6107e8899845ad3d59bd9653f200f220920489ca2b5937696c31836040516114fb91906123c4565b60405180910390a3505050565b611513848484611079565b61151f84848484611c1e565b61155e576040517f08c379a000000000000000000000000000000000000000000000000000000000815260040161155590613495565b60405180910390fd5b50505050565b606061156f82610e6e565b6115ae576040517f08c379a00000000000000000000000000000000000000000000000000000000081526004016115a590613527565b60405180910390fd5b60006006600084815260200190815260200160002080546115ce90612902565b80601f01602080910402602001604051908101604052809291908181526020018280546115fa90612902565b80156116475780601f1061161c57610100808354040283529160200191611647565b820191906000526020600020905b81548152906001019060200180831161162a57829003601f168201915b505050505090506000611658611da6565b905060008151141561166e5781925050506116b1565b6000825111156116a357808260405160200161168b929190613547565b604051602081830303815290604052925050506116b1565b6116ac84611dbd565b925050505b919050565b600081600001549050919050565b6001816000016000828254019250508190555050565b6116f4828260405180602001604052806000815250611e64565b5050565b6060600061173b6040518060400160405280600a81526020017f46495253545f574f52440000000000000000000000000000000000000000000081525084611ebf565b9050600b805490508161174e919061359a565b9050600b8181548110611764576117636135cb565b5b90600052602060002001805461177990612902565b80601f01602080910402602001604051908101604052809291908181526020018280546117a590612902565b80156117f25780601f106117c7576101008083540402835291602001916117f2565b820191906000526020600020905b8154815290600101906020018083116117d557829003601f168201915b5050505050915050919050565b606060006118426040518060400160405280600b81526020017f5345434f4e445f574f524400000000000000000000000000000000000000000081525084611ebf565b9050600c8054905081611855919061359a565b9050600c818154811061186b5761186a6135cb565b5b90600052602060002001805461188090612902565b80601f01602080910402602001604051908101604052809291908181526020018280546118ac90612902565b80156118f95780601f106118ce576101008083540402835291602001916118f9565b820191906000526020600020905b8154815290600101906020018083116118dc57829003601f168201915b5050505050915050919050565b606060006119496040518060400160405280600a81526020017f54484952445f574f52440000000000000000000000000000000000000000000081525084611ebf565b9050600d805490508161195c919061359a565b9050600d8181548110611972576119716135cb565b5b90600052602060002001805461198790612902565b80601f01602080910402602001604051908101604052809291908181526020018280546119b390612902565b8015611a005780601f106119d557610100808354040283529160200191611a00565b820191906000526020600020905b8154815290600101906020018083116119e357829003601f168201915b5050505050915050919050565b60606000825190506000811415611a365760405180602001604052806000815250915050611ba0565b60006003600283611a479190613361565b611a5191906135fa565b6004611a5d919061362b565b90506000602082611a6e9190613361565b67ffffffffffffffff811115611a8757611a866126e5565b5b6040519080825280601f01601f191660200182016040528015611ab95781602001600182028036833780820191505090505b50905060006040518060600160405280604081526020016139c5604091399050600181016020830160005b86811015611b5d5760038101905062ffffff818a015116603f8160121c168401518060081b905060ff603f83600c1c1686015116810190508060081b905060ff603f8360061c1686015116810190508060081b905060ff603f831686015116810190508060e01b90508084526004840193505050611ae4565b506003860660018114611b775760028114611b8757611b92565b613d3d60f01b6002830352611b92565b603d60f81b60018303525b508484525050819450505050505b919050565b611bae82610e6e565b611bed576040517f08c379a0000000000000000000000000000000000000000000000000000000008152600401611be4906136f7565b60405180910390fd5b80600660008481526020019081526020016000209080519060200190611c1492919061226d565b505050565b505050565b6000611c3f8473ffffffffffffffffffffffffffffffffffffffff16611f2b565b15611d99578373ffffffffffffffffffffffffffffffffffffffff1663150b7a02611c68610eda565b8786866040518563ffffffff1660e01b8152600401611c8a949392919061376c565b6020604051808303816000875af1925050508015611cc657506040513d601f19601f82011682018060405250810190611cc391906137cd565b60015b611d49573d8060008114611cf6576040519150601f19603f3d011682016040523d82523d6000602084013e611cfb565b606091505b50600081511415611d41576040517f08c379a0000000000000000000000000000000000000000000000000000000008152600401611d3890613495565b60405180910390fd5b805181602001fd5b63150b7a0260e01b7bffffffffffffffffffffffffffffffffffffffffffffffffffffffff1916817bffffffffffffffffffffffffffffffffffffffffffffffffffffffff191614915050611d9e565b600190505b949350505050565b606060405180602001604052806000815250905090565b6060611dc882610e6e565b611e07576040517f08c379a0000000000000000000000000000000000000000000000000000000008152600401611dfe9061386c565b60405180910390fd5b6000611e11611da6565b90506000815111611e315760405180602001604052806000815250611e5c565b80611e3b84611f3e565b604051602001611e4c929190613547565b6040516020818303038152906040525b915050919050565b611e6e838361209f565b611e7b6000848484611c1e565b611eba576040517f08c379a0000000000000000000000000000000000000000000000000000000008152600401611eb190613495565b60405180910390fd5b505050565b60008083611ecc42611f3e565b611ed585611f3e565b604051602001611ee793929190612db4565b604051602081830303815290604052905080604051602001611f09919061388c565b6040516020818303038152906040528051906020012060001c91505092915050565b600080823b905060008111915050919050565b60606000821415611f86576040518060400160405280600181526020017f3000000000000000000000000000000000000000000000000000000000000000815250905061209a565b600082905060005b60008214611fb8578080611fa1906138a3565b915050600a82611fb191906135fa565b9150611f8e565b60008167ffffffffffffffff811115611fd457611fd36126e5565b5b6040519080825280601f01601f1916602001820160405280156120065781602001600182028036833780820191505090505b5090505b600085146120935760018261201f919061332d565b9150600a8561202e919061359a565b603061203a9190613361565b60f81b8183815181106120505761204f6135cb565b5b60200101907effffffffffffffffffffffffffffffffffffffffffffffffffffffffffffff1916908160001a905350600a8561208c91906135fa565b945061200a565b8093505050505b919050565b600073ffffffffffffffffffffffffffffffffffffffff168273ffffffffffffffffffffffffffffffffffffffff16141561210f576040517f08c379a000000000000000000000000000000000000000000000000000000000815260040161210690613938565b60405180910390fd5b61211881610e6e565b15612158576040517f08c379a000000000000000000000000000000000000000000000000000000000815260040161214f906139a4565b60405180910390fd5b61216460008383611c19565b6001600360008473ffffffffffffffffffffffffffffffffffffffff1673ffffffffffffffffffffffffffffffffffffffff16815260200190815260200160002060008282546121b49190613361565b92505081905550816002600083815260200190815260200160002060006101000a81548173ffffffffffffffffffffffffffffffffffffffff021916908373ffffffffffffffffffffffffffffffffffffffff160217905550808273ffffffffffffffffffffffffffffffffffffffff16600073ffffffffffffffffffffffffffffffffffffffff167fddf252ad1be2c89b69c2b068fc378daa952ba7f163c4a11628f55a4df523b3ef60405160405180910390a45050565b82805461227990612902565b90600052602060002090601f01602090048101928261229b57600085556122e2565b82601f106122b457805160ff19168380011785556122e2565b828001600101855582156122e2579182015b828111156122e15782518255916020019190600101906122c6565b5b5090506122ef91906122f3565b5090565b5b8082111561230c5760008160009055506001016122f4565b5090565b6000604051905090565b600080fd5b600080fd5b60007fffffffff0000000000000000000000000000000000000000000000000000000082169050919050565b61235981612324565b811461236457600080fd5b50565b60008135905061237681612350565b92915050565b6000602082840312156123925761239161231a565b5b60006123a084828501612367565b91505092915050565b60008115159050919050565b6123be816123a9565b82525050565b60006020820190506123d960008301846123b5565b92915050565b600081519050919050565b600082825260208201905092915050565b60005b838110156124195780820151818401526020810190506123fe565b83811115612428576000848401525b50505050565b6000601f19601f8301169050919050565b600061244a826123df565b61245481856123ea565b93506124648185602086016123fb565b61246d8161242e565b840191505092915050565b60006020820190508181036000830152612492818461243f565b905092915050565b6000819050919050565b6124ad8161249a565b81146124b857600080fd5b50565b6000813590506124ca816124a4565b92915050565b6000602082840312156124e6576124e561231a565b5b60006124f4848285016124bb565b91505092915050565b600073ffffffffffffffffffffffffffffffffffffffff82169050919050565b6000612528826124fd565b9050919050565b6125388161251d565b82525050565b6000602082019050612553600083018461252f565b92915050565b6125628161251d565b811461256d57600080fd5b50565b60008135905061257f81612559565b92915050565b6000806040838503121561259c5761259b61231a565b5b60006125aa85828601612570565b92505060206125bb858286016124bb565b9150509250929050565b6000806000606084860312156125de576125dd61231a565b5b60006125ec86828701612570565b93505060206125fd86828701612570565b925050604061260e868287016124bb565b9150509250925092565b6126218161249a565b82525050565b600060208201905061263c6000830184612618565b92915050565b6000602082840312156126585761265761231a565b5b600061266684828501612570565b91505092915050565b612678816123a9565b811461268357600080fd5b50565b6000813590506126958161266f565b92915050565b600080604083850312156126b2576126b161231a565b5b60006126c085828601612570565b92505060206126d185828601612686565b9150509250929050565b600080fd5b600080fd5b7f4e487b7100000000000000000000000000000000000000000000000000000000600052604160045260246000fd5b61271d8261242e565b810181811067ffffffffffffffff8211171561273c5761273b6126e5565b5b80604052505050565b600061274f612310565b905061275b8282612714565b919050565b600067ffffffffffffffff82111561277b5761277a6126e5565b5b6127848261242e565b9050602081019050919050565b82818337600083830152505050565b60006127b36127ae84612760565b612745565b9050828152602081018484840111156127cf576127ce6126e0565b5b6127da848285612791565b509392505050565b600082601f8301126127f7576127f66126db565b5b81356128078482602086016127a0565b91505092915050565b6000806000806080858703121561282a5761282961231a565b5b600061283887828801612570565b945050602061284987828801612570565b935050604061285a878288016124bb565b925050606085013567ffffffffffffffff81111561287b5761287a61231f565b5b612887878288016127e2565b91505092959194509250565b600080604083850312156128aa576128a961231a565b5b60006128b885828601612570565b92505060206128c985828601612570565b9150509250929050565b7f4e487b7100000000000000000000000000000000000000000000000000000000600052602260045260246000fd5b6000600282049050600182168061291a57607f821691505b6020821081141561292e5761292d6128d3565b5b50919050565b7f4552433732313a20617070726f76656420717565727920666f72206e6f6e657860008201527f697374656e7420746f6b656e0000000000000000000000000000000000000000602082015250565b6000612990602c836123ea565b915061299b82612934565b604082019050919050565b600060208201905081810360008301526129bf81612983565b9050919050565b7f4552433732313a20617070726f76616c20746f2063757272656e74206f776e6560008201527f7200000000000000000000000000000000000000000000000000000000000000602082015250565b6000612a226021836123ea565b9150612a2d826129c6565b604082019050919050565b60006020820190508181036000830152612a5181612a15565b9050919050565b7f4552433732313a20617070726f76652063616c6c6572206973206e6f74206f7760008201527f6e6572206e6f7220617070726f76656420666f7220616c6c0000000000000000602082015250565b6000612ab46038836123ea565b9150612abf82612a58565b604082019050919050565b60006020820190508181036000830152612ae381612aa7565b9050919050565b7f4552433732313a207472616e736665722063616c6c6572206973206e6f74206f60008201527f776e6572206e6f7220617070726f766564000000000000000000000000000000602082015250565b6000612b466031836123ea565b9150612b5182612aea565b604082019050919050565b60006020820190508181036000830152612b7581612b39565b9050919050565b7f4552433732313a206f776e657220717565727920666f72206e6f6e657869737460008201527f656e7420746f6b656e0000000000000000000000000000000000000000000000602082015250565b6000612bd86029836123ea565b9150612be382612b7c565b604082019050919050565b60006020820190508181036000830152612c0781612bcb565b9050919050565b7f4552433732313a2062616c616e636520717565727920666f7220746865207a6560008201527f726f206164647265737300000000000000000000000000000000000000000000602082015250565b6000612c6a602a836123ea565b9150612c7582612c0e565b604082019050919050565b60006020820190508181036000830152612c9981612c5d565b9050919050565b7f4f776e61626c653a2063616c6c6572206973206e6f7420746865206f776e6572600082015250565b6000612cd66020836123ea565b9150612ce182612ca0565b602082019050919050565b60006020820190508181036000830152612d0581612cc9565b9050919050565b7f416c6c204e4654732068617665206265656e206d696e74656400000000000000600082015250565b6000612d426019836123ea565b9150612d4d82612d0c565b602082019050919050565b60006020820190508181036000830152612d7181612d35565b9050919050565b600081905092915050565b6000612d8e826123df565b612d988185612d78565b9350612da88185602086016123fb565b80840191505092915050565b6000612dc08286612d83565b9150612dcc8285612d83565b9150612dd88284612d83565b9150819050949350505050565b60008190508160005260206000209050919050565b60008154612e0781612902565b612e118186612d78565b94506001821660008114612e2c5760018114612e3d57612e70565b60ff19831686528186019350612e70565b612e4685612de5565b60005b83811015612e6857815481890152600182019150602081019050612e49565b838801955050505b50505092915050565b6000612e858286612dfa565b9150612e918285612d83565b9150612e9d8284612dfa565b9150819050949350505050565b7f7b226e616d65223a202200000000000000000000000000000000000000000000600082015250565b6000612ee0600a83612d78565b9150612eeb82612eaa565b600a82019050919050565b7f222c20226465736372697074696f6e223a2022416e206570696320636f6c6c6560008201527f6374696f6e206f6620636f6f6c206e616d6573222c2022696d616765223a202260208201527f646174613a696d6167652f7376672b786d6c3b6261736536342c000000000000604082015250565b6000612f78605a83612d78565b9150612f8382612ef6565b605a82019050919050565b7f227d000000000000000000000000000000000000000000000000000000000000600082015250565b6000612fc4600283612d78565b9150612fcf82612f8e565b600282019050919050565b6000612fe582612ed3565b9150612ff18285612d83565b9150612ffc82612f6b565b91506130088284612d83565b915061301382612fb7565b91508190509392505050565b7f646174613a6170706c69636174696f6e2f6a736f6e3b6261736536342c000000600082015250565b6000613055601d83612d78565b91506130608261301f565b601d82019050919050565b600061307682613048565b91506130828284612d83565b915081905092915050565b60006040820190506130a2600083018561252f565b6130af6020830184612618565b9392505050565b7f4f776e61626c653a206e6577206f776e657220697320746865207a65726f206160008201527f6464726573730000000000000000000000000000000000000000000000000000602082015250565b60006131126026836123ea565b915061311d826130b6565b604082019050919050565b6000602082019050818103600083015261314181613105565b9050919050565b7f4552433732313a206f70657261746f7220717565727920666f72206e6f6e657860008201527f697374656e7420746f6b656e0000000000000000000000000000000000000000602082015250565b60006131a4602c836123ea565b91506131af82613148565b604082019050919050565b600060208201905081810360008301526131d381613197565b9050919050565b7f4552433732313a207472616e73666572206f6620746f6b656e2074686174206960008201527f73206e6f74206f776e0000000000000000000000000000000000000000000000602082015250565b60006132366029836123ea565b9150613241826131da565b604082019050919050565b6000602082019050818103600083015261326581613229565b9050919050565b7f4552433732313a207472616e7366657220746f20746865207a65726f2061646460008201527f7265737300000000000000000000000000000000000000000000000000000000602082015250565b60006132c86024836123ea565b91506132d38261326c565b604082019050919050565b600060208201905081810360008301526132f7816132bb565b9050919050565b7f4e487b7100000000000000000000000000000000000000000000000000000000600052601160045260246000fd5b60006133388261249a565b91506133438361249a565b925082821015613356576133556132fe565b5b828203905092915050565b600061336c8261249a565b91506133778361249a565b9250827fffffffffffffffffffffffffffffffffffffffffffffffffffffffffffffffff038211156133ac576133ab6132fe565b5b828201905092915050565b7f4552433732313a20617070726f766520746f2063616c6c657200000000000000600082015250565b60006133ed6019836123ea565b91506133f8826133b7565b602082019050919050565b6000602082019050818103600083015261341c816133e0565b9050919050565b7f4552433732313a207472616e7366657220746f206e6f6e20455243373231526560008201527f63656976657220696d706c656d656e7465720000000000000000000000000000602082015250565b600061347f6032836123ea565b915061348a82613423565b604082019050919050565b600060208201905081810360008301526134ae81613472565b9050919050565b7f45524337323155524953746f726167653a2055524920717565727920666f722060008201527f6e6f6e6578697374656e7420746f6b656e000000000000000000000000000000602082015250565b60006135116031836123ea565b915061351c826134b5565b604082019050919050565b6000602082019050818103600083015261354081613504565b9050919050565b60006135538285612d83565b915061355f8284612d83565b91508190509392505050565b7f4e487b7100000000000000000000000000000000000000000000000000000000600052601260045260246000fd5b60006135a58261249a565b91506135b08361249a565b9250826135c0576135bf61356b565b5b828206905092915050565b7f4e487b7100000000000000000000000000000000000000000000000000000000600052603260045260246000fd5b60006136058261249a565b91506136108361249a565b9250826136205761361f61356b565b5b828204905092915050565b60006136368261249a565b91506136418361249a565b9250817fffffffffffffffffffffffffffffffffffffffffffffffffffffffffffffffff048311821515161561367a576136796132fe565b5b828202905092915050565b7f45524337323155524953746f726167653a2055524920736574206f66206e6f6e60008201527f6578697374656e7420746f6b656e000000000000000000000000000000000000602082015250565b60006136e1602e836123ea565b91506136ec82613685565b604082019050919050565b60006020820190508181036000830152613710816136d4565b9050919050565b600081519050919050565b600082825260208201905092915050565b600061373e82613717565b6137488185613722565b93506137588185602086016123fb565b6137618161242e565b840191505092915050565b6000608082019050613781600083018761252f565b61378e602083018661252f565b61379b6040830185612618565b81810360608301526137ad8184613733565b905095945050505050565b6000815190506137c781612350565b92915050565b6000602082840312156137e3576137e261231a565b5b60006137f1848285016137b8565b91505092915050565b7f4552433732314d657461646174613a2055524920717565727920666f72206e6f60008201527f6e6578697374656e7420746f6b656e0000000000000000000000000000000000602082015250565b6000613856602f836123ea565b9150613861826137fa565b604082019050919050565b6000602082019050818103600083015261388581613849565b9050919050565b60006138988284612d83565b915081905092915050565b60006138ae8261249a565b91507fffffffffffffffffffffffffffffffffffffffffffffffffffffffffffffffff8214156138e1576138e06132fe565b5b600182019050919050565b7f4552433732313a206d696e7420746f20746865207a65726f2061646472657373600082015250565b60006139226020836123ea565b915061392d826138ec565b602082019050919050565b6000602082019050818103600083015261395181613915565b9050919050565b7f4552433732313a20746f6b656e20616c7265616479206d696e74656400000000600082015250565b600061398e601c836123ea565b915061399982613958565b602082019050919050565b600060208201905081810360008301526139bd81613981565b905091905056fe4142434445464748494a4b4c4d4e4f505152535455565758595a6162636465666768696a6b6c6d6e6f707172737475767778797a303132333435363738392b2fa264697066735822122056496f691bce9f1a2e44653c926991a909d5a87b1d74e900717296690291267164736f6c634300080b00333c73766720786d6c6e733d27687474703a2f2f7777772e77332e6f72672f323030302f73766727207072657365727665417370656374526174696f3d27784d696e594d696e206d656574272076696577426f783d273020302033353020333530273e3c7374796c653e2e62617365207b2066696c6c3a2077686974653b20666f6e742d66616d696c793a2073657269663b20666f6e742d73697a653a20323470783b207d3c2f7374796c653e3c726563742077696474683d273130302527206865696768743d2731303025272066696c6c3d27626c61636b27202f3e3c7465787420783d273530252720793d273530252720636c6173733d27626173652720646f6d696e616e742d626173656c696e653d276d6964646c652720746578742d616e63686f723d276d6964646c65273e",
  "linkReferences": {},
  "deployedLinkReferences": {}
}