{
  "_format": "hh-sol-artifact-1",
  "contractName": "EpicNFT",
  "sourceName": "contracts/EpicNFT.sol",
  "abi": [
    {
      "inputs": [],
      "stateMutability": "nonpayable",
      "type": "constructor"
    },
    {
      "anonymous": false,
      "inputs": [
        {
          "indexed": true,
          "internalType": "address",
          "name": "owner",
          "type": "address"
        },
        {
          "indexed": true,
          "internalType": "address",
          "name": "approved",
          "type": "address"
        },
        {
          "indexed": true,
          "internalType": "uint256",
          "name": "tokenId",
          "type": "uint256"
        }
      ],
      "name": "Approval",
      "type": "event"
    },
    {
      "anonymous": false,
      "inputs": [
        {
          "indexed": true,
          "internalType": "address",
          "name": "owner",
          "type": "address"
        },
        {
          "indexed": true,
          "internalType": "address",
          "name": "operator",
          "type": "address"
        },
        {
          "indexed": false,
          "internalType": "bool",
          "name": "approved",
          "type": "bool"
        }
      ],
      "name": "ApprovalForAll",
      "type": "event"
    },
    {
      "anonymous": false,
      "inputs": [
        {
          "indexed": false,
          "internalType": "address",
          "name": "sender",
          "type": "address"
        },
        {
          "indexed": false,
          "internalType": "uint256",
          "name": "tokenId",
          "type": "uint256"
        }
      ],
      "name": "NewEpicNFTMinted",
      "type": "event"
    },
    {
      "anonymous": false,
      "inputs": [
        {
          "indexed": true,
          "internalType": "address",
          "name": "from",
          "type": "address"
        },
        {
          "indexed": true,
          "internalType": "address",
          "name": "to",
          "type": "address"
        },
        {
          "indexed": true,
          "internalType": "uint256",
          "name": "tokenId",
          "type": "uint256"
        }
      ],
      "name": "Transfer",
      "type": "event"
    },
    {
      "inputs": [],
      "name": "MAX_SUPPLY",
      "outputs": [
        {
          "internalType": "uint256",
          "name": "",
          "type": "uint256"
        }
      ],
      "stateMutability": "view",
      "type": "function"
    },
    {
      "inputs": [
        {
          "internalType": "address",
          "name": "to",
          "type": "address"
        },
        {
          "internalType": "uint256",
          "name": "tokenId",
          "type": "uint256"
        }
      ],
      "name": "approve",
      "outputs": [],
      "stateMutability": "nonpayable",
      "type": "function"
    },
    {
      "inputs": [
        {
          "internalType": "address",
          "name": "owner",
          "type": "address"
        }
      ],
      "name": "balanceOf",
      "outputs": [
        {
          "internalType": "uint256",
          "name": "",
          "type": "uint256"
        }
      ],
      "stateMutability": "view",
      "type": "function"
    },
    {
      "inputs": [
        {
          "internalType": "uint256",
          "name": "tokenId",
          "type": "uint256"
        }
      ],
      "name": "getApproved",
      "outputs": [
        {
          "internalType": "address",
          "name": "",
          "type": "address"
        }
      ],
      "stateMutability": "view",
      "type": "function"
    },
    {
      "inputs": [],
      "name": "getMintedCount",
      "outputs": [
        {
          "internalType": "uint256",
          "name": "",
          "type": "uint256"
        }
      ],
      "stateMutability": "view",
      "type": "function"
    },
    {
      "inputs": [
        {
          "internalType": "address",
          "name": "owner",
          "type": "address"
        },
        {
          "internalType": "address",
          "name": "operator",
          "type": "address"
        }
      ],
      "name": "isApprovedForAll",
      "outputs": [
        {
          "internalType": "bool",
          "name": "",
          "type": "bool"
        }
      ],
      "stateMutability": "view",
      "type": "function"
    },
    {
      "inputs": [
        {
          "internalType": "string",
          "name": "_data",
          "type": "string"
        },
        {
          "internalType": "string",
          "name": "_description",
          "type": "string"
        }
      ],
      "name": "mintCustomNFT",
      "outputs": [],
      "stateMutability": "nonpayable",
      "type": "function"
    },
    {
      "inputs": [],
      "name": "name",
      "outputs": [
        {
          "internalType": "string",
          "name": "",
          "type": "string"
        }
      ],
      "stateMutability": "view",
      "type": "function"
    },
    {
      "inputs": [
        {
          "internalType": "uint256",
          "name": "tokenId",
          "type": "uint256"
        }
      ],
      "name": "ownerOf",
      "outputs": [
        {
          "internalType": "address",
          "name": "",
          "type": "address"
        }
      ],
      "stateMutability": "view",
      "type": "function"
    },
    {
      "inputs": [
        {
          "internalType": "address",
          "name": "from",
          "type": "address"
        },
        {
          "internalType": "address",
          "name": "to",
          "type": "address"
        },
        {
          "internalType": "uint256",
          "name": "tokenId",
          "type": "uint256"
        }
      ],
      "name": "safeTransferFrom",
      "outputs": [],
      "stateMutability": "nonpayable",
      "type": "function"
    },
    {
      "inputs": [
        {
          "internalType": "address",
          "name": "from",
          "type": "address"
        },
        {
          "internalType": "address",
          "name": "to",
          "type": "address"
        },
        {
          "internalType": "uint256",
          "name": "tokenId",
          "type": "uint256"
        },
        {
          "internalType": "bytes",
          "name": "_data",
          "type": "bytes"
        }
      ],
      "name": "safeTransferFrom",
      "outputs": [],
      "stateMutability": "nonpayable",
      "type": "function"
    },
    {
      "inputs": [
        {
          "internalType": "address",
          "name": "operator",
          "type": "address"
        },
        {
          "internalType": "bool",
          "name": "approved",
          "type": "bool"
        }
      ],
      "name": "setApprovalForAll",
      "outputs": [],
      "stateMutability": "nonpayable",
      "type": "function"
    },
    {
      "inputs": [
        {
          "internalType": "bytes4",
          "name": "interfaceId",
          "type": "bytes4"
        }
      ],
      "name": "supportsInterface",
      "outputs": [
        {
          "internalType": "bool",
          "name": "",
          "type": "bool"
        }
      ],
      "stateMutability": "view",
      "type": "function"
    },
    {
      "inputs": [],
      "name": "symbol",
      "outputs": [
        {
          "internalType": "string",
          "name": "",
          "type": "string"
        }
      ],
      "stateMutability": "view",
      "type": "function"
    },
    {
      "inputs": [
        {
          "internalType": "uint256",
          "name": "tokenId",
          "type": "uint256"
        }
      ],
      "name": "tokenURI",
      "outputs": [
        {
          "internalType": "string",
          "name": "",
          "type": "string"
        }
      ],
      "stateMutability": "view",
      "type": "function"
    },
    {
      "inputs": [
        {
          "internalType": "address",
          "name": "from",
          "type": "address"
        },
        {
          "internalType": "address",
          "name": "to",
          "type": "address"
        },
        {
          "internalType": "uint256",
          "name": "tokenId",
          "type": "uint256"
        }
      ],
      "name": "transferFrom",
      "outputs": [],
      "stateMutability": "nonpayable",
      "type": "function"
    }
  ],
  "bytecode": "0x608060405260405180610160016040528061012f8152602001620035cc61012f913960079080519060200190620000389291906200013b565b506040518060400160405280600d81526020017f3c2f746578743e3c2f7376673e0000000000000000000000000000000000000081525060089080519060200190620000869291906200013b565b503480156200009457600080fd5b506040518060400160405280600f81526020017f52616e646f6d2054686f756768747300000000000000000000000000000000008152506040518060400160405280600281526020017f52540000000000000000000000000000000000000000000000000000000000008152508160009080519060200190620001199291906200013b565b508060019080519060200190620001329291906200013b565b50505062000250565b82805462000149906200021a565b90600052602060002090601f0160209004810192826200016d5760008555620001b9565b82601f106200018857805160ff1916838001178555620001b9565b82800160010185558215620001b9579182015b82811115620001b85782518255916020019190600101906200019b565b5b509050620001c89190620001cc565b5090565b5b80821115620001e7576000816000905550600101620001cd565b5090565b7f4e487b7100000000000000000000000000000000000000000000000000000000600052602260045260246000fd5b600060028204905060018216806200023357607f821691505b602082108114156200024a5762000249620001eb565b5b50919050565b61336c80620002606000396000f3fe608060405234801561001057600080fd5b50600436106101005760003560e01c80636352211e11610097578063b88d4fde11610066578063b88d4fde146102ab578063c87b56dd146102c7578063e985e9c5146102f7578063ebc9bd3b1461032757610100565b80636352211e1461021157806370a082311461024157806395d89b4114610271578063a22cb4651461028f57610100565b8063095ea7b3116100d3578063095ea7b31461019f57806323b872dd146101bb57806332cb6b0c146101d757806342842e0e146101f557610100565b806301ffc9a7146101055780630674b1a41461013557806306fdde0314610151578063081812fc1461016f575b600080fd5b61011f600480360381019061011a9190611c9d565b610345565b60405161012c9190611ce5565b60405180910390f35b61014f600480360381019061014a9190611e46565b610427565b005b6101596104e4565b6040516101669190611f46565b60405180910390f35b61018960048036038101906101849190611f9e565b610576565b604051610196919061200c565b60405180910390f35b6101b960048036038101906101b49190612053565b6105fb565b005b6101d560048036038101906101d09190612093565b610713565b005b6101df610773565b6040516101ec91906120f5565b60405180910390f35b61020f600480360381019061020a9190612093565b610779565b005b61022b60048036038101906102269190611f9e565b610799565b604051610238919061200c565b60405180910390f35b61025b60048036038101906102569190612110565b61084b565b60405161026891906120f5565b60405180910390f35b610279610903565b6040516102869190611f46565b60405180910390f35b6102a960048036038101906102a49190612169565b610995565b005b6102c560048036038101906102c0919061224a565b6109ab565b005b6102e160048036038101906102dc9190611f9e565b610a0d565b6040516102ee9190611f46565b60405180910390f35b610311600480360381019061030c91906122cd565b610a1f565b60405161031e9190611ce5565b60405180910390f35b61032f610ab3565b60405161033c91906120f5565b60405180910390f35b60007f80ac58cd000000000000000000000000000000000000000000000000000000007bffffffffffffffffffffffffffffffffffffffffffffffffffffffff1916827bffffffffffffffffffffffffffffffffffffffffffffffffffffffff1916148061041057507f5b5e139f000000000000000000000000000000000000000000000000000000007bffffffffffffffffffffffffffffffffffffffffffffffffffffffff1916827bffffffffffffffffffffffffffffffffffffffffffffffffffffffff1916145b80610420575061041f82610ac4565b5b9050919050565b60006104336009610b2e565b90506102d18110610479576040517f08c379a000000000000000000000000000000000000000000000000000000000815260040161047090612359565b60405180910390fd5b6104836009610b3c565b61048d3382610b52565b60006104998484610b70565b90506104a58282610ba3565b7febb98688741ffa4c7589bf325de30cf7becb63de567842e1ccdb6cb949fdc82c33836040516104d6929190612379565b60405180910390a150505050565b6060600080546104f3906123d1565b80601f016020809104026020016040519081016040528092919081815260200182805461051f906123d1565b801561056c5780601f106105415761010080835404028352916020019161056c565b820191906000526020600020905b81548152906001019060200180831161054f57829003601f168201915b5050505050905090565b600061058182610c17565b6105c0576040517f08c379a00000000000000000000000000000000000000000000000000000000081526004016105b790612475565b60405180910390fd5b6004600083815260200190815260200160002060009054906101000a900473ffffffffffffffffffffffffffffffffffffffff169050919050565b600061060682610799565b90508073ffffffffffffffffffffffffffffffffffffffff168373ffffffffffffffffffffffffffffffffffffffff161415610677576040517f08c379a000000000000000000000000000000000000000000000000000000000815260040161066e90612507565b60405180910390fd5b8073ffffffffffffffffffffffffffffffffffffffff16610696610c83565b73ffffffffffffffffffffffffffffffffffffffff1614806106c557506106c4816106bf610c83565b610a1f565b5b610704576040517f08c379a00000000000000000000000000000000000000000000000000000000081526004016106fb90612599565b60405180910390fd5b61070e8383610c8b565b505050565b61072461071e610c83565b82610d44565b610763576040517f08c379a000000000000000000000000000000000000000000000000000000000815260040161075a9061262b565b60405180910390fd5b61076e838383610e22565b505050565b6102d181565b610794838383604051806020016040528060008152506109ab565b505050565b6000806002600084815260200190815260200160002060009054906101000a900473ffffffffffffffffffffffffffffffffffffffff169050600073ffffffffffffffffffffffffffffffffffffffff168173ffffffffffffffffffffffffffffffffffffffff161415610842576040517f08c379a0000000000000000000000000000000000000000000000000000000008152600401610839906126bd565b60405180910390fd5b80915050919050565b60008073ffffffffffffffffffffffffffffffffffffffff168273ffffffffffffffffffffffffffffffffffffffff1614156108bc576040517f08c379a00000000000000000000000000000000000000000000000000000000081526004016108b39061274f565b60405180910390fd5b600360008373ffffffffffffffffffffffffffffffffffffffff1673ffffffffffffffffffffffffffffffffffffffff168152602001908152602001600020549050919050565b606060018054610912906123d1565b80601f016020809104026020016040519081016040528092919081815260200182805461093e906123d1565b801561098b5780601f106109605761010080835404028352916020019161098b565b820191906000526020600020905b81548152906001019060200180831161096e57829003601f168201915b5050505050905090565b6109a76109a0610c83565b838361107e565b5050565b6109bc6109b6610c83565b83610d44565b6109fb576040517f08c379a00000000000000000000000000000000000000000000000000000000081526004016109f29061262b565b60405180910390fd5b610a07848484846111eb565b50505050565b6060610a1882611247565b9050919050565b6000600560008473ffffffffffffffffffffffffffffffffffffffff1673ffffffffffffffffffffffffffffffffffffffff16815260200190815260200160002060008373ffffffffffffffffffffffffffffffffffffffff1673ffffffffffffffffffffffffffffffffffffffff16815260200190815260200160002060009054906101000a900460ff16905092915050565b6000610abf6009610b2e565b905090565b60007f01ffc9a7000000000000000000000000000000000000000000000000000000007bffffffffffffffffffffffffffffffffffffffffffffffffffffffff1916827bffffffffffffffffffffffffffffffffffffffffffffffffffffffff1916149050919050565b600081600001549050919050565b6001816000016000828254019250508190555050565b610b6c828260405180602001604052806000815250611399565b5050565b6060610b7c83836113f4565b604051602001610b8c91906127f7565b604051602081830303815290604052905092915050565b610bac82610c17565b610beb576040517f08c379a0000000000000000000000000000000000000000000000000000000008152600401610be29061288b565b60405180910390fd5b80600660008481526020019081526020016000209080519060200190610c12929190611b8e565b505050565b60008073ffffffffffffffffffffffffffffffffffffffff166002600084815260200190815260200160002060009054906101000a900473ffffffffffffffffffffffffffffffffffffffff1673ffffffffffffffffffffffffffffffffffffffff1614159050919050565b600033905090565b816004600083815260200190815260200160002060006101000a81548173ffffffffffffffffffffffffffffffffffffffff021916908373ffffffffffffffffffffffffffffffffffffffff160217905550808273ffffffffffffffffffffffffffffffffffffffff16610cfe83610799565b73ffffffffffffffffffffffffffffffffffffffff167f8c5be1e5ebec7d5bd14f71427d1e84f3dd0314c0f7b2291e5b200ac8c7c3b92560405160405180910390a45050565b6000610d4f82610c17565b610d8e576040517f08c379a0000000000000000000000000000000000000000000000000000000008152600401610d859061291d565b60405180910390fd5b6000610d9983610799565b90508073ffffffffffffffffffffffffffffffffffffffff168473ffffffffffffffffffffffffffffffffffffffff161480610e0857508373ffffffffffffffffffffffffffffffffffffffff16610df084610576565b73ffffffffffffffffffffffffffffffffffffffff16145b80610e195750610e188185610a1f565b5b91505092915050565b8273ffffffffffffffffffffffffffffffffffffffff16610e4282610799565b73ffffffffffffffffffffffffffffffffffffffff1614610e98576040517f08c379a0000000000000000000000000000000000000000000000000000000008152600401610e8f906129af565b60405180910390fd5b600073ffffffffffffffffffffffffffffffffffffffff168273ffffffffffffffffffffffffffffffffffffffff161415610f08576040517f08c379a0000000000000000000000000000000000000000000000000000000008152600401610eff90612a41565b60405180910390fd5b610f1383838361143a565b610f1e600082610c8b565b6001600360008573ffffffffffffffffffffffffffffffffffffffff1673ffffffffffffffffffffffffffffffffffffffff1681526020019081526020016000206000828254610f6e9190612a90565b925050819055506001600360008473ffffffffffffffffffffffffffffffffffffffff1673ffffffffffffffffffffffffffffffffffffffff1681526020019081526020016000206000828254610fc59190612ac4565b92505081905550816002600083815260200190815260200160002060006101000a81548173ffffffffffffffffffffffffffffffffffffffff021916908373ffffffffffffffffffffffffffffffffffffffff160217905550808273ffffffffffffffffffffffffffffffffffffffff168473ffffffffffffffffffffffffffffffffffffffff167fddf252ad1be2c89b69c2b068fc378daa952ba7f163c4a11628f55a4df523b3ef60405160405180910390a4505050565b8173ffffffffffffffffffffffffffffffffffffffff168373ffffffffffffffffffffffffffffffffffffffff1614156110ed576040517f08c379a00000000000000000000000000000000000000000000000000000000081526004016110e490612b66565b60405180910390fd5b80600560008573ffffffffffffffffffffffffffffffffffffffff1673ffffffffffffffffffffffffffffffffffffffff16815260200190815260200160002060008473ffffffffffffffffffffffffffffffffffffffff1673ffffffffffffffffffffffffffffffffffffffff16815260200190815260200160002060006101000a81548160ff0219169083151502179055508173ffffffffffffffffffffffffffffffffffffffff168373ffffffffffffffffffffffffffffffffffffffff167f17307eab39ab6107e8899845ad3d59bd9653f200f220920489ca2b5937696c31836040516111de9190611ce5565b60405180910390a3505050565b6111f6848484610e22565b6112028484848461143f565b611241576040517f08c379a000000000000000000000000000000000000000000000000000000000815260040161123890612bf8565b60405180910390fd5b50505050565b606061125282610c17565b611291576040517f08c379a000000000000000000000000000000000000000000000000000000000815260040161128890612c8a565b60405180910390fd5b60006006600084815260200190815260200160002080546112b1906123d1565b80601f01602080910402602001604051908101604052809291908181526020018280546112dd906123d1565b801561132a5780601f106112ff5761010080835404028352916020019161132a565b820191906000526020600020905b81548152906001019060200180831161130d57829003601f168201915b50505050509050600061133b6115c7565b9050600081511415611351578192505050611394565b60008251111561138657808260405160200161136e929190612caa565b60405160208183030381529060405292505050611394565b61138f846115de565b925050505b919050565b6113a38383611685565b6113b0600084848461143f565b6113ef576040517f08c379a00000000000000000000000000000000000000000000000000000000081526004016113e690612bf8565b60405180910390fd5b505050565b6060611432838361140c61140787611853565b611882565b60405160200161141e93929190612e24565b604051602081830303815290604052611882565b905092915050565b505050565b60006114608473ffffffffffffffffffffffffffffffffffffffff16611a1a565b156115ba578373ffffffffffffffffffffffffffffffffffffffff1663150b7a02611489610c83565b8786866040518563ffffffff1660e01b81526004016114ab9493929190612ed6565b6020604051808303816000875af19250505080156114e757506040513d601f19601f820116820180604052508101906114e49190612f37565b60015b61156a573d8060008114611517576040519150601f19603f3d011682016040523d82523d6000602084013e61151c565b606091505b50600081511415611562576040517f08c379a000000000000000000000000000000000000000000000000000000000815260040161155990612bf8565b60405180910390fd5b805181602001fd5b63150b7a0260e01b7bffffffffffffffffffffffffffffffffffffffffffffffffffffffff1916817bffffffffffffffffffffffffffffffffffffffffffffffffffffffff1916149150506115bf565b600190505b949350505050565b606060405180602001604052806000815250905090565b60606115e982610c17565b611628576040517f08c379a000000000000000000000000000000000000000000000000000000000815260040161161f90612fd6565b60405180910390fd5b60006116326115c7565b90506000815111611652576040518060200160405280600081525061167d565b8061165c84611a2d565b60405160200161166d929190612caa565b6040516020818303038152906040525b915050919050565b600073ffffffffffffffffffffffffffffffffffffffff168273ffffffffffffffffffffffffffffffffffffffff1614156116f5576040517f08c379a00000000000000000000000000000000000000000000000000000000081526004016116ec90613042565b60405180910390fd5b6116fe81610c17565b1561173e576040517f08c379a0000000000000000000000000000000000000000000000000000000008152600401611735906130ae565b60405180910390fd5b61174a6000838361143a565b6001600360008473ffffffffffffffffffffffffffffffffffffffff1673ffffffffffffffffffffffffffffffffffffffff168152602001908152602001600020600082825461179a9190612ac4565b92505081905550816002600083815260200190815260200160002060006101000a81548173ffffffffffffffffffffffffffffffffffffffff021916908373ffffffffffffffffffffffffffffffffffffffff160217905550808273ffffffffffffffffffffffffffffffffffffffff16600073ffffffffffffffffffffffffffffffffffffffff167fddf252ad1be2c89b69c2b068fc378daa952ba7f163c4a11628f55a4df523b3ef60405160405180910390a45050565b6060600782600860405160200161186c93929190613162565b6040516020818303038152906040529050919050565b606060008251905060008114156118ab5760405180602001604052806000815250915050611a15565b600060036002836118bc9190612ac4565b6118c691906131c2565b60046118d291906131f3565b905060006020826118e39190612ac4565b67ffffffffffffffff8111156118fc576118fb611d1b565b5b6040519080825280601f01601f19166020018201604052801561192e5781602001600182028036833780820191505090505b50905060006040518060600160405280604081526020016132f7604091399050600181016020830160005b868110156119d25760038101905062ffffff818a015116603f8160121c168401518060081b905060ff603f83600c1c1686015116810190508060081b905060ff603f8360061c1686015116810190508060081b905060ff603f831686015116810190508060e01b90508084526004840193505050611959565b5060038606600181146119ec57600281146119fc57611a07565b613d3d60f01b6002830352611a07565b603d60f81b60018303525b508484525050819450505050505b919050565b600080823b905060008111915050919050565b60606000821415611a75576040518060400160405280600181526020017f30000000000000000000000000000000000000000000000000000000000000008152509050611b89565b600082905060005b60008214611aa7578080611a909061324d565b915050600a82611aa091906131c2565b9150611a7d565b60008167ffffffffffffffff811115611ac357611ac2611d1b565b5b6040519080825280601f01601f191660200182016040528015611af55781602001600182028036833780820191505090505b5090505b60008514611b8257600182611b0e9190612a90565b9150600a85611b1d9190613296565b6030611b299190612ac4565b60f81b818381518110611b3f57611b3e6132c7565b5b60200101907effffffffffffffffffffffffffffffffffffffffffffffffffffffffffffff1916908160001a905350600a85611b7b91906131c2565b9450611af9565b8093505050505b919050565b828054611b9a906123d1565b90600052602060002090601f016020900481019282611bbc5760008555611c03565b82601f10611bd557805160ff1916838001178555611c03565b82800160010185558215611c03579182015b82811115611c02578251825591602001919060010190611be7565b5b509050611c109190611c14565b5090565b5b80821115611c2d576000816000905550600101611c15565b5090565b6000604051905090565b600080fd5b600080fd5b60007fffffffff0000000000000000000000000000000000000000000000000000000082169050919050565b611c7a81611c45565b8114611c8557600080fd5b50565b600081359050611c9781611c71565b92915050565b600060208284031215611cb357611cb2611c3b565b5b6000611cc184828501611c88565b91505092915050565b60008115159050919050565b611cdf81611cca565b82525050565b6000602082019050611cfa6000830184611cd6565b92915050565b600080fd5b600080fd5b6000601f19601f8301169050919050565b7f4e487b7100000000000000000000000000000000000000000000000000000000600052604160045260246000fd5b611d5382611d0a565b810181811067ffffffffffffffff82111715611d7257611d71611d1b565b5b80604052505050565b6000611d85611c31565b9050611d918282611d4a565b919050565b600067ffffffffffffffff821115611db157611db0611d1b565b5b611dba82611d0a565b9050602081019050919050565b82818337600083830152505050565b6000611de9611de484611d96565b611d7b565b905082815260208101848484011115611e0557611e04611d05565b5b611e10848285611dc7565b509392505050565b600082601f830112611e2d57611e2c611d00565b5b8135611e3d848260208601611dd6565b91505092915050565b60008060408385031215611e5d57611e5c611c3b565b5b600083013567ffffffffffffffff811115611e7b57611e7a611c40565b5b611e8785828601611e18565b925050602083013567ffffffffffffffff811115611ea857611ea7611c40565b5b611eb485828601611e18565b9150509250929050565b600081519050919050565b600082825260208201905092915050565b60005b83811015611ef8578082015181840152602081019050611edd565b83811115611f07576000848401525b50505050565b6000611f1882611ebe565b611f228185611ec9565b9350611f32818560208601611eda565b611f3b81611d0a565b840191505092915050565b60006020820190508181036000830152611f608184611f0d565b905092915050565b6000819050919050565b611f7b81611f68565b8114611f8657600080fd5b50565b600081359050611f9881611f72565b92915050565b600060208284031215611fb457611fb3611c3b565b5b6000611fc284828501611f89565b91505092915050565b600073ffffffffffffffffffffffffffffffffffffffff82169050919050565b6000611ff682611fcb565b9050919050565b61200681611feb565b82525050565b60006020820190506120216000830184611ffd565b92915050565b61203081611feb565b811461203b57600080fd5b50565b60008135905061204d81612027565b92915050565b6000806040838503121561206a57612069611c3b565b5b60006120788582860161203e565b925050602061208985828601611f89565b9150509250929050565b6000806000606084860312156120ac576120ab611c3b565b5b60006120ba8682870161203e565b93505060206120cb8682870161203e565b92505060406120dc86828701611f89565b9150509250925092565b6120ef81611f68565b82525050565b600060208201905061210a60008301846120e6565b92915050565b60006020828403121561212657612125611c3b565b5b60006121348482850161203e565b91505092915050565b61214681611cca565b811461215157600080fd5b50565b6000813590506121638161213d565b92915050565b600080604083850312156121805761217f611c3b565b5b600061218e8582860161203e565b925050602061219f85828601612154565b9150509250929050565b600067ffffffffffffffff8211156121c4576121c3611d1b565b5b6121cd82611d0a565b9050602081019050919050565b60006121ed6121e8846121a9565b611d7b565b90508281526020810184848401111561220957612208611d05565b5b612214848285611dc7565b509392505050565b600082601f83011261223157612230611d00565b5b81356122418482602086016121da565b91505092915050565b6000806000806080858703121561226457612263611c3b565b5b60006122728782880161203e565b94505060206122838782880161203e565b935050604061229487828801611f89565b925050606085013567ffffffffffffffff8111156122b5576122b4611c40565b5b6122c18782880161221c565b91505092959194509250565b600080604083850312156122e4576122e3611c3b565b5b60006122f28582860161203e565b92505060206123038582860161203e565b9150509250929050565b7f416c6c204e4654732068617665206265656e206d696e74656400000000000000600082015250565b6000612343601983611ec9565b915061234e8261230d565b602082019050919050565b6000602082019050818103600083015261237281612336565b9050919050565b600060408201905061238e6000830185611ffd565b61239b60208301846120e6565b9392505050565b7f4e487b7100000000000000000000000000000000000000000000000000000000600052602260045260246000fd5b600060028204905060018216806123e957607f821691505b602082108114156123fd576123fc6123a2565b5b50919050565b7f4552433732313a20617070726f76656420717565727920666f72206e6f6e657860008201527f697374656e7420746f6b656e0000000000000000000000000000000000000000602082015250565b600061245f602c83611ec9565b915061246a82612403565b604082019050919050565b6000602082019050818103600083015261248e81612452565b9050919050565b7f4552433732313a20617070726f76616c20746f2063757272656e74206f776e6560008201527f7200000000000000000000000000000000000000000000000000000000000000602082015250565b60006124f1602183611ec9565b91506124fc82612495565b604082019050919050565b60006020820190508181036000830152612520816124e4565b9050919050565b7f4552433732313a20617070726f76652063616c6c6572206973206e6f74206f7760008201527f6e6572206e6f7220617070726f76656420666f7220616c6c0000000000000000602082015250565b6000612583603883611ec9565b915061258e82612527565b604082019050919050565b600060208201905081810360008301526125b281612576565b9050919050565b7f4552433732313a207472616e736665722063616c6c6572206973206e6f74206f60008201527f776e6572206e6f7220617070726f766564000000000000000000000000000000602082015250565b6000612615603183611ec9565b9150612620826125b9565b604082019050919050565b6000602082019050818103600083015261264481612608565b9050919050565b7f4552433732313a206f776e657220717565727920666f72206e6f6e657869737460008201527f656e7420746f6b656e0000000000000000000000000000000000000000000000602082015250565b60006126a7602983611ec9565b91506126b28261264b565b604082019050919050565b600060208201905081810360008301526126d68161269a565b9050919050565b7f4552433732313a2062616c616e636520717565727920666f7220746865207a6560008201527f726f206164647265737300000000000000000000000000000000000000000000602082015250565b6000612739602a83611ec9565b9150612744826126dd565b604082019050919050565b600060208201905081810360008301526127688161272c565b9050919050565b600081905092915050565b7f646174613a6170706c69636174696f6e2f6a736f6e3b6261736536342c000000600082015250565b60006127b0601d8361276f565b91506127bb8261277a565b601d82019050919050565b60006127d182611ebe565b6127db818561276f565b93506127eb818560208601611eda565b80840191505092915050565b6000612802826127a3565b915061280e82846127c6565b915081905092915050565b7f45524337323155524953746f726167653a2055524920736574206f66206e6f6e60008201527f6578697374656e7420746f6b656e000000000000000000000000000000000000602082015250565b6000612875602e83611ec9565b915061288082612819565b604082019050919050565b600060208201905081810360008301526128a481612868565b9050919050565b7f4552433732313a206f70657261746f7220717565727920666f72206e6f6e657860008201527f697374656e7420746f6b656e0000000000000000000000000000000000000000602082015250565b6000612907602c83611ec9565b9150612912826128ab565b604082019050919050565b60006020820190508181036000830152612936816128fa565b9050919050565b7f4552433732313a207472616e73666572206f6620746f6b656e2074686174206960008201527f73206e6f74206f776e0000000000000000000000000000000000000000000000602082015250565b6000612999602983611ec9565b91506129a48261293d565b604082019050919050565b600060208201905081810360008301526129c88161298c565b9050919050565b7f4552433732313a207472616e7366657220746f20746865207a65726f2061646460008201527f7265737300000000000000000000000000000000000000000000000000000000602082015250565b6000612a2b602483611ec9565b9150612a36826129cf565b604082019050919050565b60006020820190508181036000830152612a5a81612a1e565b9050919050565b7f4e487b7100000000000000000000000000000000000000000000000000000000600052601160045260246000fd5b6000612a9b82611f68565b9150612aa683611f68565b925082821015612ab957612ab8612a61565b5b828203905092915050565b6000612acf82611f68565b9150612ada83611f68565b9250827fffffffffffffffffffffffffffffffffffffffffffffffffffffffffffffffff03821115612b0f57612b0e612a61565b5b828201905092915050565b7f4552433732313a20617070726f766520746f2063616c6c657200000000000000600082015250565b6000612b50601983611ec9565b9150612b5b82612b1a565b602082019050919050565b60006020820190508181036000830152612b7f81612b43565b9050919050565b7f4552433732313a207472616e7366657220746f206e6f6e20455243373231526560008201527f63656976657220696d706c656d656e7465720000000000000000000000000000602082015250565b6000612be2603283611ec9565b9150612bed82612b86565b604082019050919050565b60006020820190508181036000830152612c1181612bd5565b9050919050565b7f45524337323155524953746f726167653a2055524920717565727920666f722060008201527f6e6f6e6578697374656e7420746f6b656e000000000000000000000000000000602082015250565b6000612c74603183611ec9565b9150612c7f82612c18565b604082019050919050565b60006020820190508181036000830152612ca381612c67565b9050919050565b6000612cb682856127c6565b9150612cc282846127c6565b91508190509392505050565b7f7b226e616d65223a202200000000000000000000000000000000000000000000600082015250565b6000612d04600a8361276f565b9150612d0f82612cce565b600a82019050919050565b7f222c20226465736372697074696f6e223a202200000000000000000000000000600082015250565b6000612d5060138361276f565b9150612d5b82612d1a565b601382019050919050565b7f222c2022696d616765223a2022646174613a696d6167652f7376672b786d6c3b60008201527f6261736536342c00000000000000000000000000000000000000000000000000602082015250565b6000612dc260278361276f565b9150612dcd82612d66565b602782019050919050565b7f227d000000000000000000000000000000000000000000000000000000000000600082015250565b6000612e0e60028361276f565b9150612e1982612dd8565b600282019050919050565b6000612e2f82612cf7565b9150612e3b82866127c6565b9150612e4682612d43565b9150612e5282856127c6565b9150612e5d82612db5565b9150612e6982846127c6565b9150612e7482612e01565b9150819050949350505050565b600081519050919050565b600082825260208201905092915050565b6000612ea882612e81565b612eb28185612e8c565b9350612ec2818560208601611eda565b612ecb81611d0a565b840191505092915050565b6000608082019050612eeb6000830187611ffd565b612ef86020830186611ffd565b612f0560408301856120e6565b8181036060830152612f178184612e9d565b905095945050505050565b600081519050612f3181611c71565b92915050565b600060208284031215612f4d57612f4c611c3b565b5b6000612f5b84828501612f22565b91505092915050565b7f4552433732314d657461646174613a2055524920717565727920666f72206e6f60008201527f6e6578697374656e7420746f6b656e0000000000000000000000000000000000602082015250565b6000612fc0602f83611ec9565b9150612fcb82612f64565b604082019050919050565b60006020820190508181036000830152612fef81612fb3565b9050919050565b7f4552433732313a206d696e7420746f20746865207a65726f2061646472657373600082015250565b600061302c602083611ec9565b915061303782612ff6565b602082019050919050565b6000602082019050818103600083015261305b8161301f565b9050919050565b7f4552433732313a20746f6b656e20616c7265616479206d696e74656400000000600082015250565b6000613098601c83611ec9565b91506130a382613062565b602082019050919050565b600060208201905081810360008301526130c78161308b565b9050919050565b60008190508160005260206000209050919050565b600081546130f0816123d1565b6130fa818661276f565b94506001821660008114613115576001811461312657613159565b60ff19831686528186019350613159565b61312f856130ce565b60005b8381101561315157815481890152600182019150602081019050613132565b838801955050505b50505092915050565b600061316e82866130e3565b915061317a82856127c6565b915061318682846130e3565b9150819050949350505050565b7f4e487b7100000000000000000000000000000000000000000000000000000000600052601260045260246000fd5b60006131cd82611f68565b91506131d883611f68565b9250826131e8576131e7613193565b5b828204905092915050565b60006131fe82611f68565b915061320983611f68565b9250817fffffffffffffffffffffffffffffffffffffffffffffffffffffffffffffffff048311821515161561324257613241612a61565b5b828202905092915050565b600061325882611f68565b91507fffffffffffffffffffffffffffffffffffffffffffffffffffffffffffffffff82141561328b5761328a612a61565b5b600182019050919050565b60006132a182611f68565b91506132ac83611f68565b9250826132bc576132bb613193565b5b828206905092915050565b7f4e487b7100000000000000000000000000000000000000000000000000000000600052603260045260246000fdfe4142434445464748494a4b4c4d4e4f505152535455565758595a6162636465666768696a6b6c6d6e6f707172737475767778797a303132333435363738392b2fa2646970667358221220a3828b21a63381e8fff32cedb472721c5d17bebafc5c2160d1f6caa3d2f0342264736f6c634300080b00333c73766720786d6c6e733d27687474703a2f2f7777772e77332e6f72672f323030302f73766727207072657365727665417370656374526174696f3d27784d696e594d696e206d656574272076696577426f783d273020302033353020333530273e3c7374796c653e2e62617365207b2066696c6c3a2077686974653b20666f6e742d66616d696c793a2073657269663b20666f6e742d73697a653a20323470783b207d3c2f7374796c653e3c726563742077696474683d273130302527206865696768743d2731303025272066696c6c3d27626c61636b27202f3e3c7465787420783d273530252720793d273530252720636c6173733d27626173652720646f6d696e616e742d626173656c696e653d276d6964646c652720746578742d616e63686f723d276d6964646c65273e",
  "linkReferences": {},
  "deployedLinkReferences": {}
}