{
  "_format": "hh-sol-artifact-1",
  "contractName": "EpicNFT",
  "sourceName": "contracts/EpicNFT.sol",
  "abi": [
    {
      "inputs": [],
      "stateMutability": "nonpayable",
      "type": "constructor"
    },
    {
      "anonymous": false,
      "inputs": [
        {
          "indexed": true,
          "internalType": "address",
          "name": "owner",
          "type": "address"
        },
        {
          "indexed": true,
          "internalType": "address",
          "name": "approved",
          "type": "address"
        },
        {
          "indexed": true,
          "internalType": "uint256",
          "name": "tokenId",
          "type": "uint256"
        }
      ],
      "name": "Approval",
      "type": "event"
    },
    {
      "anonymous": false,
      "inputs": [
        {
          "indexed": true,
          "internalType": "address",
          "name": "owner",
          "type": "address"
        },
        {
          "indexed": true,
          "internalType": "address",
          "name": "operator",
          "type": "address"
        },
        {
          "indexed": false,
          "internalType": "bool",
          "name": "approved",
          "type": "bool"
        }
      ],
      "name": "ApprovalForAll",
      "type": "event"
    },
    {
      "anonymous": false,
      "inputs": [
        {
          "indexed": false,
          "internalType": "address",
          "name": "sender",
          "type": "address"
        },
        {
          "indexed": false,
          "internalType": "uint256",
          "name": "tokenId",
          "type": "uint256"
        }
      ],
      "name": "NewEpicNFTMinted",
      "type": "event"
    },
    {
      "anonymous": false,
      "inputs": [
        {
          "indexed": true,
          "internalType": "address",
          "name": "from",
          "type": "address"
        },
        {
          "indexed": true,
          "internalType": "address",
          "name": "to",
          "type": "address"
        },
        {
          "indexed": true,
          "internalType": "uint256",
          "name": "tokenId",
          "type": "uint256"
        }
      ],
      "name": "Transfer",
      "type": "event"
    },
    {
      "inputs": [],
      "name": "MAX_SUPPLY",
      "outputs": [
        {
          "internalType": "uint256",
          "name": "",
          "type": "uint256"
        }
      ],
      "stateMutability": "view",
      "type": "function"
    },
    {
      "inputs": [
        {
          "internalType": "address",
          "name": "to",
          "type": "address"
        },
        {
          "internalType": "uint256",
          "name": "tokenId",
          "type": "uint256"
        }
      ],
      "name": "approve",
      "outputs": [],
      "stateMutability": "nonpayable",
      "type": "function"
    },
    {
      "inputs": [
        {
          "internalType": "address",
          "name": "owner",
          "type": "address"
        }
      ],
      "name": "balanceOf",
      "outputs": [
        {
          "internalType": "uint256",
          "name": "",
          "type": "uint256"
        }
      ],
      "stateMutability": "view",
      "type": "function"
    },
    {
      "inputs": [
        {
          "internalType": "uint256",
          "name": "tokenId",
          "type": "uint256"
        }
      ],
      "name": "getApproved",
      "outputs": [
        {
          "internalType": "address",
          "name": "",
          "type": "address"
        }
      ],
      "stateMutability": "view",
      "type": "function"
    },
    {
      "inputs": [],
      "name": "getMintedCount",
      "outputs": [
        {
          "internalType": "uint256",
          "name": "",
          "type": "uint256"
        }
      ],
      "stateMutability": "view",
      "type": "function"
    },
    {
      "inputs": [
        {
          "internalType": "address",
          "name": "owner",
          "type": "address"
        },
        {
          "internalType": "address",
          "name": "operator",
          "type": "address"
        }
      ],
      "name": "isApprovedForAll",
      "outputs": [
        {
          "internalType": "bool",
          "name": "",
          "type": "bool"
        }
      ],
      "stateMutability": "view",
      "type": "function"
    },
    {
      "inputs": [
        {
          "internalType": "string",
          "name": "_data",
          "type": "string"
        }
      ],
      "name": "mintCustomNFT",
      "outputs": [],
      "stateMutability": "nonpayable",
      "type": "function"
    },
    {
      "inputs": [],
      "name": "name",
      "outputs": [
        {
          "internalType": "string",
          "name": "",
          "type": "string"
        }
      ],
      "stateMutability": "view",
      "type": "function"
    },
    {
      "inputs": [
        {
          "internalType": "uint256",
          "name": "tokenId",
          "type": "uint256"
        }
      ],
      "name": "ownerOf",
      "outputs": [
        {
          "internalType": "address",
          "name": "",
          "type": "address"
        }
      ],
      "stateMutability": "view",
      "type": "function"
    },
    {
      "inputs": [
        {
          "internalType": "address",
          "name": "from",
          "type": "address"
        },
        {
          "internalType": "address",
          "name": "to",
          "type": "address"
        },
        {
          "internalType": "uint256",
          "name": "tokenId",
          "type": "uint256"
        }
      ],
      "name": "safeTransferFrom",
      "outputs": [],
      "stateMutability": "nonpayable",
      "type": "function"
    },
    {
      "inputs": [
        {
          "internalType": "address",
          "name": "from",
          "type": "address"
        },
        {
          "internalType": "address",
          "name": "to",
          "type": "address"
        },
        {
          "internalType": "uint256",
          "name": "tokenId",
          "type": "uint256"
        },
        {
          "internalType": "bytes",
          "name": "_data",
          "type": "bytes"
        }
      ],
      "name": "safeTransferFrom",
      "outputs": [],
      "stateMutability": "nonpayable",
      "type": "function"
    },
    {
      "inputs": [
        {
          "internalType": "address",
          "name": "operator",
          "type": "address"
        },
        {
          "internalType": "bool",
          "name": "approved",
          "type": "bool"
        }
      ],
      "name": "setApprovalForAll",
      "outputs": [],
      "stateMutability": "nonpayable",
      "type": "function"
    },
    {
      "inputs": [
        {
          "internalType": "bytes4",
          "name": "interfaceId",
          "type": "bytes4"
        }
      ],
      "name": "supportsInterface",
      "outputs": [
        {
          "internalType": "bool",
          "name": "",
          "type": "bool"
        }
      ],
      "stateMutability": "view",
      "type": "function"
    },
    {
      "inputs": [],
      "name": "symbol",
      "outputs": [
        {
          "internalType": "string",
          "name": "",
          "type": "string"
        }
      ],
      "stateMutability": "view",
      "type": "function"
    },
    {
      "inputs": [
        {
          "internalType": "uint256",
          "name": "tokenId",
          "type": "uint256"
        }
      ],
      "name": "tokenURI",
      "outputs": [
        {
          "internalType": "string",
          "name": "",
          "type": "string"
        }
      ],
      "stateMutability": "view",
      "type": "function"
    },
    {
      "inputs": [
        {
          "internalType": "address",
          "name": "from",
          "type": "address"
        },
        {
          "internalType": "address",
          "name": "to",
          "type": "address"
        },
        {
          "internalType": "uint256",
          "name": "tokenId",
          "type": "uint256"
        }
      ],
      "name": "transferFrom",
      "outputs": [],
      "stateMutability": "nonpayable",
      "type": "function"
    }
  ],
  "bytecode": "0x608060405260405180610160016040528061012f81526020016200379361012f913960079080519060200190620000389291906200016d565b506040518060400160405280600d81526020017f3c2f746578743e3c2f7376673e0000000000000000000000000000000000000081525060089080519060200190620000869291906200016d565b503480156200009457600080fd5b506040518060400160405280601781526020017f43617375616c2054686f756768747320262049646561730000000000000000008152506040518060400160405280600381526020017f43544900000000000000000000000000000000000000000000000000000000008152508160009080519060200190620001199291906200016d565b508060019080519060200190620001329291906200016d565b5050506040518060e0016040528060b28152602001620038c260b29139600a9080519060200190620001669291906200016d565b5062000282565b8280546200017b906200024c565b90600052602060002090601f0160209004810192826200019f5760008555620001eb565b82601f10620001ba57805160ff1916838001178555620001eb565b82800160010185558215620001eb579182015b82811115620001ea578251825591602001919060010190620001cd565b5b509050620001fa9190620001fe565b5090565b5b8082111562000219576000816000905550600101620001ff565b5090565b7f4e487b7100000000000000000000000000000000000000000000000000000000600052602260045260246000fd5b600060028204905060018216806200026557607f821691505b602082108114156200027c576200027b6200021d565b5b50919050565b61350180620002926000396000f3fe608060405234801561001057600080fd5b50600436106101005760003560e01c806370a0823111610097578063c87b56dd11610066578063c87b56dd146102ab578063da7fb253146102db578063e985e9c5146102f7578063ebc9bd3b1461032757610100565b806370a082311461022557806395d89b4114610255578063a22cb46514610273578063b88d4fde1461028f57610100565b806323b872dd116100d357806323b872dd1461019f57806332cb6b0c146101bb57806342842e0e146101d95780636352211e146101f557610100565b806301ffc9a71461010557806306fdde0314610135578063081812fc14610153578063095ea7b314610183575b600080fd5b61011f600480360381019061011a9190611e2a565b610345565b60405161012c9190611e72565b60405180910390f35b61013d610427565b60405161014a9190611f26565b60405180910390f35b61016d60048036038101906101689190611f7e565b6104b9565b60405161017a9190611fec565b60405180910390f35b61019d60048036038101906101989190612033565b61053e565b005b6101b960048036038101906101b49190612073565b610656565b005b6101c36106b6565b6040516101d091906120d5565b60405180910390f35b6101f360048036038101906101ee9190612073565b6106bc565b005b61020f600480360381019061020a9190611f7e565b6106dc565b60405161021c9190611fec565b60405180910390f35b61023f600480360381019061023a91906120f0565b61078e565b60405161024c91906120d5565b60405180910390f35b61025d610846565b60405161026a9190611f26565b60405180910390f35b61028d60048036038101906102889190612149565b6108d8565b005b6102a960048036038101906102a491906122be565b6108ee565b005b6102c560048036038101906102c09190611f7e565b610950565b6040516102d29190611f26565b60405180910390f35b6102f560048036038101906102f091906123e2565b610962565b005b610311600480360381019061030c919061242b565b610ae7565b60405161031e9190611e72565b60405180910390f35b61032f610b7b565b60405161033c91906120d5565b60405180910390f35b60007f80ac58cd000000000000000000000000000000000000000000000000000000007bffffffffffffffffffffffffffffffffffffffffffffffffffffffff1916827bffffffffffffffffffffffffffffffffffffffffffffffffffffffff1916148061041057507f5b5e139f000000000000000000000000000000000000000000000000000000007bffffffffffffffffffffffffffffffffffffffffffffffffffffffff1916827bffffffffffffffffffffffffffffffffffffffffffffffffffffffff1916145b80610420575061041f82610b8c565b5b9050919050565b6060600080546104369061249a565b80601f01602080910402602001604051908101604052809291908181526020018280546104629061249a565b80156104af5780601f10610484576101008083540402835291602001916104af565b820191906000526020600020905b81548152906001019060200180831161049257829003601f168201915b5050505050905090565b60006104c482610bf6565b610503576040517f08c379a00000000000000000000000000000000000000000000000000000000081526004016104fa9061253e565b60405180910390fd5b6004600083815260200190815260200160002060009054906101000a900473ffffffffffffffffffffffffffffffffffffffff169050919050565b6000610549826106dc565b90508073ffffffffffffffffffffffffffffffffffffffff168373ffffffffffffffffffffffffffffffffffffffff1614156105ba576040517f08c379a00000000000000000000000000000000000000000000000000000000081526004016105b1906125d0565b60405180910390fd5b8073ffffffffffffffffffffffffffffffffffffffff166105d9610c62565b73ffffffffffffffffffffffffffffffffffffffff161480610608575061060781610602610c62565b610ae7565b5b610647576040517f08c379a000000000000000000000000000000000000000000000000000000000815260040161063e90612662565b60405180910390fd5b6106518383610c6a565b505050565b610667610661610c62565b82610d23565b6106a6576040517f08c379a000000000000000000000000000000000000000000000000000000000815260040161069d906126f4565b60405180910390fd5b6106b1838383610e01565b505050565b6102d181565b6106d7838383604051806020016040528060008152506108ee565b505050565b6000806002600084815260200190815260200160002060009054906101000a900473ffffffffffffffffffffffffffffffffffffffff169050600073ffffffffffffffffffffffffffffffffffffffff168173ffffffffffffffffffffffffffffffffffffffff161415610785576040517f08c379a000000000000000000000000000000000000000000000000000000000815260040161077c90612786565b60405180910390fd5b80915050919050565b60008073ffffffffffffffffffffffffffffffffffffffff168273ffffffffffffffffffffffffffffffffffffffff1614156107ff576040517f08c379a00000000000000000000000000000000000000000000000000000000081526004016107f690612818565b60405180910390fd5b600360008373ffffffffffffffffffffffffffffffffffffffff1673ffffffffffffffffffffffffffffffffffffffff168152602001908152602001600020549050919050565b6060600180546108559061249a565b80601f01602080910402602001604051908101604052809291908181526020018280546108819061249a565b80156108ce5780601f106108a3576101008083540402835291602001916108ce565b820191906000526020600020905b8154815290600101906020018083116108b157829003601f168201915b5050505050905090565b6108ea6108e3610c62565b838361105d565b5050565b6108ff6108f9610c62565b83610d23565b61093e576040517f08c379a0000000000000000000000000000000000000000000000000000000008152600401610935906126f4565b60405180910390fd5b61094a848484846111ca565b50505050565b606061095b82611226565b9050919050565b600061096e6009611378565b90506102d181106109b4576040517f08c379a00000000000000000000000000000000000000000000000000000000081526004016109ab90612884565b60405180910390fd5b6109be6009611386565b6109c8338261139c565b6000610a5e83600a80546109db9061249a565b80601f0160208091040260200160405190810160405280929190818152602001828054610a079061249a565b8015610a545780601f10610a2957610100808354040283529160200191610a54565b820191906000526020600020905b815481529060010190602001808311610a3757829003601f168201915b50505050506113ba565b9050610a9f6040518060400160405280600d81526020017f66696e616c546f6b656e55726900000000000000000000000000000000000000815250826113ed565b610aa98282611489565b7febb98688741ffa4c7589bf325de30cf7becb63de567842e1ccdb6cb949fdc82c3383604051610ada9291906128a4565b60405180910390a1505050565b6000600560008473ffffffffffffffffffffffffffffffffffffffff1673ffffffffffffffffffffffffffffffffffffffff16815260200190815260200160002060008373ffffffffffffffffffffffffffffffffffffffff1673ffffffffffffffffffffffffffffffffffffffff16815260200190815260200160002060009054906101000a900460ff16905092915050565b6000610b876009611378565b905090565b60007f01ffc9a7000000000000000000000000000000000000000000000000000000007bffffffffffffffffffffffffffffffffffffffffffffffffffffffff1916827bffffffffffffffffffffffffffffffffffffffffffffffffffffffff1916149050919050565b60008073ffffffffffffffffffffffffffffffffffffffff166002600084815260200190815260200160002060009054906101000a900473ffffffffffffffffffffffffffffffffffffffff1673ffffffffffffffffffffffffffffffffffffffff1614159050919050565b600033905090565b816004600083815260200190815260200160002060006101000a81548173ffffffffffffffffffffffffffffffffffffffff021916908373ffffffffffffffffffffffffffffffffffffffff160217905550808273ffffffffffffffffffffffffffffffffffffffff16610cdd836106dc565b73ffffffffffffffffffffffffffffffffffffffff167f8c5be1e5ebec7d5bd14f71427d1e84f3dd0314c0f7b2291e5b200ac8c7c3b92560405160405180910390a45050565b6000610d2e82610bf6565b610d6d576040517f08c379a0000000000000000000000000000000000000000000000000000000008152600401610d649061293f565b60405180910390fd5b6000610d78836106dc565b90508073ffffffffffffffffffffffffffffffffffffffff168473ffffffffffffffffffffffffffffffffffffffff161480610de757508373ffffffffffffffffffffffffffffffffffffffff16610dcf846104b9565b73ffffffffffffffffffffffffffffffffffffffff16145b80610df85750610df78185610ae7565b5b91505092915050565b8273ffffffffffffffffffffffffffffffffffffffff16610e21826106dc565b73ffffffffffffffffffffffffffffffffffffffff1614610e77576040517f08c379a0000000000000000000000000000000000000000000000000000000008152600401610e6e906129d1565b60405180910390fd5b600073ffffffffffffffffffffffffffffffffffffffff168273ffffffffffffffffffffffffffffffffffffffff161415610ee7576040517f08c379a0000000000000000000000000000000000000000000000000000000008152600401610ede90612a63565b60405180910390fd5b610ef28383836114fd565b610efd600082610c6a565b6001600360008573ffffffffffffffffffffffffffffffffffffffff1673ffffffffffffffffffffffffffffffffffffffff1681526020019081526020016000206000828254610f4d9190612ab2565b925050819055506001600360008473ffffffffffffffffffffffffffffffffffffffff1673ffffffffffffffffffffffffffffffffffffffff1681526020019081526020016000206000828254610fa49190612ae6565b92505081905550816002600083815260200190815260200160002060006101000a81548173ffffffffffffffffffffffffffffffffffffffff021916908373ffffffffffffffffffffffffffffffffffffffff160217905550808273ffffffffffffffffffffffffffffffffffffffff168473ffffffffffffffffffffffffffffffffffffffff167fddf252ad1be2c89b69c2b068fc378daa952ba7f163c4a11628f55a4df523b3ef60405160405180910390a4505050565b8173ffffffffffffffffffffffffffffffffffffffff168373ffffffffffffffffffffffffffffffffffffffff1614156110cc576040517f08c379a00000000000000000000000000000000000000000000000000000000081526004016110c390612b88565b60405180910390fd5b80600560008573ffffffffffffffffffffffffffffffffffffffff1673ffffffffffffffffffffffffffffffffffffffff16815260200190815260200160002060008473ffffffffffffffffffffffffffffffffffffffff1673ffffffffffffffffffffffffffffffffffffffff16815260200190815260200160002060006101000a81548160ff0219169083151502179055508173ffffffffffffffffffffffffffffffffffffffff168373ffffffffffffffffffffffffffffffffffffffff167f17307eab39ab6107e8899845ad3d59bd9653f200f220920489ca2b5937696c31836040516111bd9190611e72565b60405180910390a3505050565b6111d5848484610e01565b6111e184848484611502565b611220576040517f08c379a000000000000000000000000000000000000000000000000000000000815260040161121790612c1a565b60405180910390fd5b50505050565b606061123182610bf6565b611270576040517f08c379a000000000000000000000000000000000000000000000000000000000815260040161126790612cac565b60405180910390fd5b60006006600084815260200190815260200160002080546112909061249a565b80601f01602080910402602001604051908101604052809291908181526020018280546112bc9061249a565b80156113095780601f106112de57610100808354040283529160200191611309565b820191906000526020600020905b8154815290600101906020018083116112ec57829003601f168201915b50505050509050600061131a61168a565b9050600081511415611330578192505050611373565b60008251111561136557808260405160200161134d929190612d08565b60405160208183030381529060405292505050611373565b61136e846116a1565b925050505b919050565b600081600001549050919050565b6001816000016000828254019250508190555050565b6113b6828260405180602001604052806000815250611748565b5050565b60606113c683836117a3565b6040516020016113d69190612d78565b604051602081830303815290604052905092915050565b6114858282604051602401611403929190612d9a565b6040516020818303038152906040527f4b5c4277000000000000000000000000000000000000000000000000000000007bffffffffffffffffffffffffffffffffffffffffffffffffffffffff19166020820180517bffffffffffffffffffffffffffffffffffffffffffffffffffffffff83818316178352505050506117e9565b5050565b61149282610bf6565b6114d1576040517f08c379a00000000000000000000000000000000000000000000000000000000081526004016114c890612e43565b60405180910390fd5b806006600084815260200190815260200160002090805190602001906114f8929190611d1b565b505050565b505050565b60006115238473ffffffffffffffffffffffffffffffffffffffff16611812565b1561167d578373ffffffffffffffffffffffffffffffffffffffff1663150b7a0261154c610c62565b8786866040518563ffffffff1660e01b815260040161156e9493929190612eb8565b6020604051808303816000875af19250505080156115aa57506040513d601f19601f820116820180604052508101906115a79190612f19565b60015b61162d573d80600081146115da576040519150601f19603f3d011682016040523d82523d6000602084013e6115df565b606091505b50600081511415611625576040517f08c379a000000000000000000000000000000000000000000000000000000000815260040161161c90612c1a565b60405180910390fd5b805181602001fd5b63150b7a0260e01b7bffffffffffffffffffffffffffffffffffffffffffffffffffffffff1916817bffffffffffffffffffffffffffffffffffffffffffffffffffffffff191614915050611682565b600190505b949350505050565b606060405180602001604052806000815250905090565b60606116ac82610bf6565b6116eb576040517f08c379a00000000000000000000000000000000000000000000000000000000081526004016116e290612fb8565b60405180910390fd5b60006116f561168a565b905060008151116117155760405180602001604052806000815250611740565b8061171f84611825565b604051602001611730929190612d08565b6040516020818303038152906040525b915050919050565b6117528383611986565b61175f6000848484611502565b61179e576040517f08c379a000000000000000000000000000000000000000000000000000000000815260040161179590612c1a565b60405180910390fd5b505050565b60606117e183836117bb6117b687611b54565b611b83565b6040516020016117cd9392919061312e565b604051602081830303815290604052611b83565b905092915050565b60008151905060006a636f6e736f6c652e6c6f679050602083016000808483855afa5050505050565b600080823b905060008111915050919050565b6060600082141561186d576040518060400160405280600181526020017f30000000000000000000000000000000000000000000000000000000000000008152509050611981565b600082905060005b6000821461189f5780806118889061318b565b915050600a826118989190613203565b9150611875565b60008167ffffffffffffffff8111156118bb576118ba612193565b5b6040519080825280601f01601f1916602001820160405280156118ed5781602001600182028036833780820191505090505b5090505b6000851461197a576001826119069190612ab2565b9150600a856119159190613234565b60306119219190612ae6565b60f81b81838151811061193757611936613265565b5b60200101907effffffffffffffffffffffffffffffffffffffffffffffffffffffffffffff1916908160001a905350600a856119739190613203565b94506118f1565b8093505050505b919050565b600073ffffffffffffffffffffffffffffffffffffffff168273ffffffffffffffffffffffffffffffffffffffff1614156119f6576040517f08c379a00000000000000000000000000000000000000000000000000000000081526004016119ed906132e0565b60405180910390fd5b6119ff81610bf6565b15611a3f576040517f08c379a0000000000000000000000000000000000000000000000000000000008152600401611a369061334c565b60405180910390fd5b611a4b600083836114fd565b6001600360008473ffffffffffffffffffffffffffffffffffffffff1673ffffffffffffffffffffffffffffffffffffffff1681526020019081526020016000206000828254611a9b9190612ae6565b92505081905550816002600083815260200190815260200160002060006101000a81548173ffffffffffffffffffffffffffffffffffffffff021916908373ffffffffffffffffffffffffffffffffffffffff160217905550808273ffffffffffffffffffffffffffffffffffffffff16600073ffffffffffffffffffffffffffffffffffffffff167fddf252ad1be2c89b69c2b068fc378daa952ba7f163c4a11628f55a4df523b3ef60405160405180910390a45050565b60606007826008604051602001611b6d93929190613400565b6040516020818303038152906040529050919050565b60606000825190506000811415611bac5760405180602001604052806000815250915050611d16565b60006003600283611bbd9190612ae6565b611bc79190613203565b6004611bd39190613431565b90506000602082611be49190612ae6565b67ffffffffffffffff811115611bfd57611bfc612193565b5b6040519080825280601f01601f191660200182016040528015611c2f5781602001600182028036833780820191505090505b509050600060405180606001604052806040815260200161348c604091399050600181016020830160005b86811015611cd35760038101905062ffffff818a015116603f8160121c168401518060081b905060ff603f83600c1c1686015116810190508060081b905060ff603f8360061c1686015116810190508060081b905060ff603f831686015116810190508060e01b90508084526004840193505050611c5a565b506003860660018114611ced5760028114611cfd57611d08565b613d3d60f01b6002830352611d08565b603d60f81b60018303525b508484525050819450505050505b919050565b828054611d279061249a565b90600052602060002090601f016020900481019282611d495760008555611d90565b82601f10611d6257805160ff1916838001178555611d90565b82800160010185558215611d90579182015b82811115611d8f578251825591602001919060010190611d74565b5b509050611d9d9190611da1565b5090565b5b80821115611dba576000816000905550600101611da2565b5090565b6000604051905090565b600080fd5b600080fd5b60007fffffffff0000000000000000000000000000000000000000000000000000000082169050919050565b611e0781611dd2565b8114611e1257600080fd5b50565b600081359050611e2481611dfe565b92915050565b600060208284031215611e4057611e3f611dc8565b5b6000611e4e84828501611e15565b91505092915050565b60008115159050919050565b611e6c81611e57565b82525050565b6000602082019050611e876000830184611e63565b92915050565b600081519050919050565b600082825260208201905092915050565b60005b83811015611ec7578082015181840152602081019050611eac565b83811115611ed6576000848401525b50505050565b6000601f19601f8301169050919050565b6000611ef882611e8d565b611f028185611e98565b9350611f12818560208601611ea9565b611f1b81611edc565b840191505092915050565b60006020820190508181036000830152611f408184611eed565b905092915050565b6000819050919050565b611f5b81611f48565b8114611f6657600080fd5b50565b600081359050611f7881611f52565b92915050565b600060208284031215611f9457611f93611dc8565b5b6000611fa284828501611f69565b91505092915050565b600073ffffffffffffffffffffffffffffffffffffffff82169050919050565b6000611fd682611fab565b9050919050565b611fe681611fcb565b82525050565b60006020820190506120016000830184611fdd565b92915050565b61201081611fcb565b811461201b57600080fd5b50565b60008135905061202d81612007565b92915050565b6000806040838503121561204a57612049611dc8565b5b60006120588582860161201e565b925050602061206985828601611f69565b9150509250929050565b60008060006060848603121561208c5761208b611dc8565b5b600061209a8682870161201e565b93505060206120ab8682870161201e565b92505060406120bc86828701611f69565b9150509250925092565b6120cf81611f48565b82525050565b60006020820190506120ea60008301846120c6565b92915050565b60006020828403121561210657612105611dc8565b5b60006121148482850161201e565b91505092915050565b61212681611e57565b811461213157600080fd5b50565b6000813590506121438161211d565b92915050565b600080604083850312156121605761215f611dc8565b5b600061216e8582860161201e565b925050602061217f85828601612134565b9150509250929050565b600080fd5b600080fd5b7f4e487b7100000000000000000000000000000000000000000000000000000000600052604160045260246000fd5b6121cb82611edc565b810181811067ffffffffffffffff821117156121ea576121e9612193565b5b80604052505050565b60006121fd611dbe565b905061220982826121c2565b919050565b600067ffffffffffffffff82111561222957612228612193565b5b61223282611edc565b9050602081019050919050565b82818337600083830152505050565b600061226161225c8461220e565b6121f3565b90508281526020810184848401111561227d5761227c61218e565b5b61228884828561223f565b509392505050565b600082601f8301126122a5576122a4612189565b5b81356122b584826020860161224e565b91505092915050565b600080600080608085870312156122d8576122d7611dc8565b5b60006122e68782880161201e565b94505060206122f78782880161201e565b935050604061230887828801611f69565b925050606085013567ffffffffffffffff81111561232957612328611dcd565b5b61233587828801612290565b91505092959194509250565b600067ffffffffffffffff82111561235c5761235b612193565b5b61236582611edc565b9050602081019050919050565b600061238561238084612341565b6121f3565b9050828152602081018484840111156123a1576123a061218e565b5b6123ac84828561223f565b509392505050565b600082601f8301126123c9576123c8612189565b5b81356123d9848260208601612372565b91505092915050565b6000602082840312156123f8576123f7611dc8565b5b600082013567ffffffffffffffff81111561241657612415611dcd565b5b612422848285016123b4565b91505092915050565b6000806040838503121561244257612441611dc8565b5b60006124508582860161201e565b92505060206124618582860161201e565b9150509250929050565b7f4e487b7100000000000000000000000000000000000000000000000000000000600052602260045260246000fd5b600060028204905060018216806124b257607f821691505b602082108114156124c6576124c561246b565b5b50919050565b7f4552433732313a20617070726f76656420717565727920666f72206e6f6e657860008201527f697374656e7420746f6b656e0000000000000000000000000000000000000000602082015250565b6000612528602c83611e98565b9150612533826124cc565b604082019050919050565b600060208201905081810360008301526125578161251b565b9050919050565b7f4552433732313a20617070726f76616c20746f2063757272656e74206f776e6560008201527f7200000000000000000000000000000000000000000000000000000000000000602082015250565b60006125ba602183611e98565b91506125c58261255e565b604082019050919050565b600060208201905081810360008301526125e9816125ad565b9050919050565b7f4552433732313a20617070726f76652063616c6c6572206973206e6f74206f7760008201527f6e6572206e6f7220617070726f76656420666f7220616c6c0000000000000000602082015250565b600061264c603883611e98565b9150612657826125f0565b604082019050919050565b6000602082019050818103600083015261267b8161263f565b9050919050565b7f4552433732313a207472616e736665722063616c6c6572206973206e6f74206f60008201527f776e6572206e6f7220617070726f766564000000000000000000000000000000602082015250565b60006126de603183611e98565b91506126e982612682565b604082019050919050565b6000602082019050818103600083015261270d816126d1565b9050919050565b7f4552433732313a206f776e657220717565727920666f72206e6f6e657869737460008201527f656e7420746f6b656e0000000000000000000000000000000000000000000000602082015250565b6000612770602983611e98565b915061277b82612714565b604082019050919050565b6000602082019050818103600083015261279f81612763565b9050919050565b7f4552433732313a2062616c616e636520717565727920666f7220746865207a6560008201527f726f206164647265737300000000000000000000000000000000000000000000602082015250565b6000612802602a83611e98565b915061280d826127a6565b604082019050919050565b60006020820190508181036000830152612831816127f5565b9050919050565b7f416c6c204e4654732068617665206265656e206d696e74656400000000000000600082015250565b600061286e601983611e98565b915061287982612838565b602082019050919050565b6000602082019050818103600083015261289d81612861565b9050919050565b60006040820190506128b96000830185611fdd565b6128c660208301846120c6565b9392505050565b7f4552433732313a206f70657261746f7220717565727920666f72206e6f6e657860008201527f697374656e7420746f6b656e0000000000000000000000000000000000000000602082015250565b6000612929602c83611e98565b9150612934826128cd565b604082019050919050565b600060208201905081810360008301526129588161291c565b9050919050565b7f4552433732313a207472616e73666572206f6620746f6b656e2074686174206960008201527f73206e6f74206f776e0000000000000000000000000000000000000000000000602082015250565b60006129bb602983611e98565b91506129c68261295f565b604082019050919050565b600060208201905081810360008301526129ea816129ae565b9050919050565b7f4552433732313a207472616e7366657220746f20746865207a65726f2061646460008201527f7265737300000000000000000000000000000000000000000000000000000000602082015250565b6000612a4d602483611e98565b9150612a58826129f1565b604082019050919050565b60006020820190508181036000830152612a7c81612a40565b9050919050565b7f4e487b7100000000000000000000000000000000000000000000000000000000600052601160045260246000fd5b6000612abd82611f48565b9150612ac883611f48565b925082821015612adb57612ada612a83565b5b828203905092915050565b6000612af182611f48565b9150612afc83611f48565b9250827fffffffffffffffffffffffffffffffffffffffffffffffffffffffffffffffff03821115612b3157612b30612a83565b5b828201905092915050565b7f4552433732313a20617070726f766520746f2063616c6c657200000000000000600082015250565b6000612b72601983611e98565b9150612b7d82612b3c565b602082019050919050565b60006020820190508181036000830152612ba181612b65565b9050919050565b7f4552433732313a207472616e7366657220746f206e6f6e20455243373231526560008201527f63656976657220696d706c656d656e7465720000000000000000000000000000602082015250565b6000612c04603283611e98565b9150612c0f82612ba8565b604082019050919050565b60006020820190508181036000830152612c3381612bf7565b9050919050565b7f45524337323155524953746f726167653a2055524920717565727920666f722060008201527f6e6f6e6578697374656e7420746f6b656e000000000000000000000000000000602082015250565b6000612c96603183611e98565b9150612ca182612c3a565b604082019050919050565b60006020820190508181036000830152612cc581612c89565b9050919050565b600081905092915050565b6000612ce282611e8d565b612cec8185612ccc565b9350612cfc818560208601611ea9565b80840191505092915050565b6000612d148285612cd7565b9150612d208284612cd7565b91508190509392505050565b7f646174613a6170706c69636174696f6e2f6a736f6e3b6261736536342c000000600082015250565b6000612d62601d83612ccc565b9150612d6d82612d2c565b601d82019050919050565b6000612d8382612d55565b9150612d8f8284612cd7565b915081905092915050565b60006040820190508181036000830152612db48185611eed565b90508181036020830152612dc88184611eed565b90509392505050565b7f45524337323155524953746f726167653a2055524920736574206f66206e6f6e60008201527f6578697374656e7420746f6b656e000000000000000000000000000000000000602082015250565b6000612e2d602e83611e98565b9150612e3882612dd1565b604082019050919050565b60006020820190508181036000830152612e5c81612e20565b9050919050565b600081519050919050565b600082825260208201905092915050565b6000612e8a82612e63565b612e948185612e6e565b9350612ea4818560208601611ea9565b612ead81611edc565b840191505092915050565b6000608082019050612ecd6000830187611fdd565b612eda6020830186611fdd565b612ee760408301856120c6565b8181036060830152612ef98184612e7f565b905095945050505050565b600081519050612f1381611dfe565b92915050565b600060208284031215612f2f57612f2e611dc8565b5b6000612f3d84828501612f04565b91505092915050565b7f4552433732314d657461646174613a2055524920717565727920666f72206e6f60008201527f6e6578697374656e7420746f6b656e0000000000000000000000000000000000602082015250565b6000612fa2602f83611e98565b9150612fad82612f46565b604082019050919050565b60006020820190508181036000830152612fd181612f95565b9050919050565b7f7b226e616d65223a202200000000000000000000000000000000000000000000600082015250565b600061300e600a83612ccc565b915061301982612fd8565b600a82019050919050565b7f222c20226465736372697074696f6e223a202200000000000000000000000000600082015250565b600061305a601383612ccc565b915061306582613024565b601382019050919050565b7f222c2022696d616765223a2022646174613a696d6167652f7376672b786d6c3b60008201527f6261736536342c00000000000000000000000000000000000000000000000000602082015250565b60006130cc602783612ccc565b91506130d782613070565b602782019050919050565b7f227d000000000000000000000000000000000000000000000000000000000000600082015250565b6000613118600283612ccc565b9150613123826130e2565b600282019050919050565b600061313982613001565b91506131458286612cd7565b91506131508261304d565b915061315c8285612cd7565b9150613167826130bf565b91506131738284612cd7565b915061317e8261310b565b9150819050949350505050565b600061319682611f48565b91507fffffffffffffffffffffffffffffffffffffffffffffffffffffffffffffffff8214156131c9576131c8612a83565b5b600182019050919050565b7f4e487b7100000000000000000000000000000000000000000000000000000000600052601260045260246000fd5b600061320e82611f48565b915061321983611f48565b925082613229576132286131d4565b5b828204905092915050565b600061323f82611f48565b915061324a83611f48565b92508261325a576132596131d4565b5b828206905092915050565b7f4e487b7100000000000000000000000000000000000000000000000000000000600052603260045260246000fd5b7f4552433732313a206d696e7420746f20746865207a65726f2061646472657373600082015250565b60006132ca602083611e98565b91506132d582613294565b602082019050919050565b600060208201905081810360008301526132f9816132bd565b9050919050565b7f4552433732313a20746f6b656e20616c7265616479206d696e74656400000000600082015250565b6000613336601c83611e98565b915061334182613300565b602082019050919050565b6000602082019050818103600083015261336581613329565b9050919050565b60008190508160005260206000209050919050565b6000815461338e8161249a565b6133988186612ccc565b945060018216600081146133b357600181146133c4576133f7565b60ff198316865281860193506133f7565b6133cd8561336c565b60005b838110156133ef578154818901526001820191506020810190506133d0565b838801955050505b50505092915050565b600061340c8286613381565b91506134188285612cd7565b91506134248284613381565b9150819050949350505050565b600061343c82611f48565b915061344783611f48565b9250817fffffffffffffffffffffffffffffffffffffffffffffffffffffffffffffffff04831182151516156134805761347f612a83565b5b82820290509291505056fe4142434445464748494a4b4c4d4e4f505152535455565758595a6162636465666768696a6b6c6d6e6f707172737475767778797a303132333435363738392b2fa2646970667358221220ce3cfe012e992cc97b5d106243c0cf41de1be275e8c90280285bf9e1e2f9483764736f6c634300080b00333c73766720786d6c6e733d27687474703a2f2f7777772e77332e6f72672f323030302f73766727207072657365727665417370656374526174696f3d27784d696e594d696e206d656574272076696577426f783d273020302033353020333530273e3c7374796c653e2e62617365207b2066696c6c3a2077686974653b20666f6e742d66616d696c793a2073657269663b20666f6e742d73697a653a20323470783b207d3c2f7374796c653e3c726563742077696474683d273130302527206865696768743d2731303025272066696c6c3d27626c61636b27202f3e3c7465787420783d273530252720793d273530252720636c6173733d27626173652720646f6d696e616e742d626173656c696e653d276d6964646c652720746578742d616e63686f723d276d6964646c65273e52656d656d62657220796f75722074686f756768747320616e64206964656173206279206372656174696e6720616e20756e69717565204e46542c20706572736f6e616c697a656420617320796f7520776973682e204d61726b206d656d6f7261626c65206576656e7473206279206d696e74696e6720796f757220637573746f6d697a6564204e4654206f6e2074686520506f6c79676f6e206e6574776f726b2e2046756c6c79206f6e2d636861696e2e",
  "linkReferences": {},
  "deployedLinkReferences": {}
}