{
  "_format": "hh-sol-artifact-1",
  "contractName": "EpicNFT",
  "sourceName": "contracts/EpicNFT.sol",
  "abi": [
    {
      "inputs": [],
      "stateMutability": "nonpayable",
      "type": "constructor"
    },
    {
      "anonymous": false,
      "inputs": [
        {
          "indexed": true,
          "internalType": "address",
          "name": "owner",
          "type": "address"
        },
        {
          "indexed": true,
          "internalType": "address",
          "name": "approved",
          "type": "address"
        },
        {
          "indexed": true,
          "internalType": "uint256",
          "name": "tokenId",
          "type": "uint256"
        }
      ],
      "name": "Approval",
      "type": "event"
    },
    {
      "anonymous": false,
      "inputs": [
        {
          "indexed": true,
          "internalType": "address",
          "name": "owner",
          "type": "address"
        },
        {
          "indexed": true,
          "internalType": "address",
          "name": "operator",
          "type": "address"
        },
        {
          "indexed": false,
          "internalType": "bool",
          "name": "approved",
          "type": "bool"
        }
      ],
      "name": "ApprovalForAll",
      "type": "event"
    },
    {
      "anonymous": false,
      "inputs": [
        {
          "indexed": true,
          "internalType": "address",
          "name": "previousOwner",
          "type": "address"
        },
        {
          "indexed": true,
          "internalType": "address",
          "name": "newOwner",
          "type": "address"
        }
      ],
      "name": "OwnershipTransferred",
      "type": "event"
    },
    {
      "anonymous": false,
      "inputs": [
        {
          "indexed": true,
          "internalType": "address",
          "name": "from",
          "type": "address"
        },
        {
          "indexed": true,
          "internalType": "address",
          "name": "to",
          "type": "address"
        },
        {
          "indexed": true,
          "internalType": "uint256",
          "name": "tokenId",
          "type": "uint256"
        }
      ],
      "name": "Transfer",
      "type": "event"
    },
    {
      "inputs": [
        {
          "internalType": "address",
          "name": "to",
          "type": "address"
        },
        {
          "internalType": "uint256",
          "name": "tokenId",
          "type": "uint256"
        }
      ],
      "name": "approve",
      "outputs": [],
      "stateMutability": "nonpayable",
      "type": "function"
    },
    {
      "inputs": [
        {
          "internalType": "address",
          "name": "owner",
          "type": "address"
        }
      ],
      "name": "balanceOf",
      "outputs": [
        {
          "internalType": "uint256",
          "name": "",
          "type": "uint256"
        }
      ],
      "stateMutability": "view",
      "type": "function"
    },
    {
      "inputs": [
        {
          "internalType": "uint256",
          "name": "tokenId",
          "type": "uint256"
        }
      ],
      "name": "getApproved",
      "outputs": [
        {
          "internalType": "address",
          "name": "",
          "type": "address"
        }
      ],
      "stateMutability": "view",
      "type": "function"
    },
    {
      "inputs": [
        {
          "internalType": "address",
          "name": "owner",
          "type": "address"
        },
        {
          "internalType": "address",
          "name": "operator",
          "type": "address"
        }
      ],
      "name": "isApprovedForAll",
      "outputs": [
        {
          "internalType": "bool",
          "name": "",
          "type": "bool"
        }
      ],
      "stateMutability": "view",
      "type": "function"
    },
    {
      "inputs": [],
      "name": "makeAnEpicNFT",
      "outputs": [],
      "stateMutability": "nonpayable",
      "type": "function"
    },
    {
      "inputs": [],
      "name": "name",
      "outputs": [
        {
          "internalType": "string",
          "name": "",
          "type": "string"
        }
      ],
      "stateMutability": "view",
      "type": "function"
    },
    {
      "inputs": [],
      "name": "owner",
      "outputs": [
        {
          "internalType": "address",
          "name": "",
          "type": "address"
        }
      ],
      "stateMutability": "view",
      "type": "function"
    },
    {
      "inputs": [
        {
          "internalType": "uint256",
          "name": "tokenId",
          "type": "uint256"
        }
      ],
      "name": "ownerOf",
      "outputs": [
        {
          "internalType": "address",
          "name": "",
          "type": "address"
        }
      ],
      "stateMutability": "view",
      "type": "function"
    },
    {
      "inputs": [],
      "name": "renounceOwnership",
      "outputs": [],
      "stateMutability": "nonpayable",
      "type": "function"
    },
    {
      "inputs": [
        {
          "internalType": "address",
          "name": "from",
          "type": "address"
        },
        {
          "internalType": "address",
          "name": "to",
          "type": "address"
        },
        {
          "internalType": "uint256",
          "name": "tokenId",
          "type": "uint256"
        }
      ],
      "name": "safeTransferFrom",
      "outputs": [],
      "stateMutability": "nonpayable",
      "type": "function"
    },
    {
      "inputs": [
        {
          "internalType": "address",
          "name": "from",
          "type": "address"
        },
        {
          "internalType": "address",
          "name": "to",
          "type": "address"
        },
        {
          "internalType": "uint256",
          "name": "tokenId",
          "type": "uint256"
        },
        {
          "internalType": "bytes",
          "name": "_data",
          "type": "bytes"
        }
      ],
      "name": "safeTransferFrom",
      "outputs": [],
      "stateMutability": "nonpayable",
      "type": "function"
    },
    {
      "inputs": [
        {
          "internalType": "address",
          "name": "operator",
          "type": "address"
        },
        {
          "internalType": "bool",
          "name": "approved",
          "type": "bool"
        }
      ],
      "name": "setApprovalForAll",
      "outputs": [],
      "stateMutability": "nonpayable",
      "type": "function"
    },
    {
      "inputs": [
        {
          "internalType": "bytes4",
          "name": "interfaceId",
          "type": "bytes4"
        }
      ],
      "name": "supportsInterface",
      "outputs": [
        {
          "internalType": "bool",
          "name": "",
          "type": "bool"
        }
      ],
      "stateMutability": "view",
      "type": "function"
    },
    {
      "inputs": [],
      "name": "symbol",
      "outputs": [
        {
          "internalType": "string",
          "name": "",
          "type": "string"
        }
      ],
      "stateMutability": "view",
      "type": "function"
    },
    {
      "inputs": [
        {
          "internalType": "uint256",
          "name": "tokenId",
          "type": "uint256"
        }
      ],
      "name": "tokenURI",
      "outputs": [
        {
          "internalType": "string",
          "name": "",
          "type": "string"
        }
      ],
      "stateMutability": "view",
      "type": "function"
    },
    {
      "inputs": [
        {
          "internalType": "address",
          "name": "from",
          "type": "address"
        },
        {
          "internalType": "address",
          "name": "to",
          "type": "address"
        },
        {
          "internalType": "uint256",
          "name": "tokenId",
          "type": "uint256"
        }
      ],
      "name": "transferFrom",
      "outputs": [],
      "stateMutability": "nonpayable",
      "type": "function"
    },
    {
      "inputs": [
        {
          "internalType": "address",
          "name": "newOwner",
          "type": "address"
        }
      ],
      "name": "transferOwnership",
      "outputs": [],
      "stateMutability": "nonpayable",
      "type": "function"
    }
  ],
  "bytecode": "0x608060405260405180610160016040528061012f81526020016200442561012f913960099080519060200190620000389291906200096a565b506040518060400160405280600d81526020017f3c2f746578743e3c2f7376673e00000000000000000000000000000000000000815250600a9080519060200190620000869291906200096a565b506040518061014001604052806040518060400160405280600481526020017f436174730000000000000000000000000000000000000000000000000000000081525081526020016040518060400160405280600481526020017f446f67730000000000000000000000000000000000000000000000000000000081525081526020016040518060400160405280600681526020017f486f72736573000000000000000000000000000000000000000000000000000081525081526020016040518060400160405280600581526020017f42756c6c7300000000000000000000000000000000000000000000000000000081525081526020016040518060400160405280600581526020017f426561727300000000000000000000000000000000000000000000000000000081525081526020016040518060400160405280600881526020017f436869636b656e7300000000000000000000000000000000000000000000000081525081526020016040518060400160405280600481526020017f526174730000000000000000000000000000000000000000000000000000000081525081526020016040518060400160405280600781526020017f526162626974730000000000000000000000000000000000000000000000000081525081526020016040518060400160405280600681526020017f536e616b6573000000000000000000000000000000000000000000000000000081525081526020016040518060400160405280600681526020017f5768616c65730000000000000000000000000000000000000000000000000000815250815250600b90600a620002f1929190620009fb565b506040518061014001604052806040518060400160405280600481526020017f4c696b650000000000000000000000000000000000000000000000000000000081525081526020016040518060400160405280600481526020017f4c6f76650000000000000000000000000000000000000000000000000000000081525081526020016040518060400160405280600481526020017f486174650000000000000000000000000000000000000000000000000000000081525081526020016040518060400160405280600481526020017f4b696c6c0000000000000000000000000000000000000000000000000000000081525081526020016040518060400160405280600381526020017f456174000000000000000000000000000000000000000000000000000000000081525081526020016040518060400160405280600781526020017f44697374726f790000000000000000000000000000000000000000000000000081525081526020016040518060400160405280600781526020017f4162616e646f6e0000000000000000000000000000000000000000000000000081525081526020016040518060400160405280600481526020017f426561740000000000000000000000000000000000000000000000000000000081525081526020016040518060400160405280600581526020017f50756e636800000000000000000000000000000000000000000000000000000081525081526020016040518060400160405280600581526020017f4275696c64000000000000000000000000000000000000000000000000000000815250815250600c90600a6200055c929190620009fb565b506040518061014001604052806040518060400160405280600781526020017f426974636f696e0000000000000000000000000000000000000000000000000081525081526020016040518060400160405280600881526020017f457468657265756d00000000000000000000000000000000000000000000000081525081526020016040518060400160405280600881526020017f506f6c6b61646f7400000000000000000000000000000000000000000000000081525081526020016040518060400160405280600781526020017f43617264616e6f0000000000000000000000000000000000000000000000000081525081526020016040518060400160405280600681526020017f536f6c616e61000000000000000000000000000000000000000000000000000081525081526020016040518060400160405280600581526020017f546572726100000000000000000000000000000000000000000000000000000081525081526020016040518060400160405280600981526020017f4176616c616e636865000000000000000000000000000000000000000000000081525081526020016040518060400160405280600681526020017f456c726f6e64000000000000000000000000000000000000000000000000000081525081526020016040518060400160405280600781526020017f506f6c79676f6e0000000000000000000000000000000000000000000000000081525081526020016040518060400160405280600681526020017f46616e746f6d0000000000000000000000000000000000000000000000000000815250815250600d90600a620007c7929190620009fb565b50348015620007d557600080fd5b506040518060400160405280600481526020017f45706963000000000000000000000000000000000000000000000000000000008152506040518060400160405280600381526020017f455043000000000000000000000000000000000000000000000000000000000081525081600090805190602001906200085a9291906200096a565b508060019080519060200190620008739291906200096a565b505050620008966200088a6200089c60201b60201c565b620008a460201b60201c565b62000b54565b600033905090565b6000600760009054906101000a900473ffffffffffffffffffffffffffffffffffffffff16905081600760006101000a81548173ffffffffffffffffffffffffffffffffffffffff021916908373ffffffffffffffffffffffffffffffffffffffff1602179055508173ffffffffffffffffffffffffffffffffffffffff168173ffffffffffffffffffffffffffffffffffffffff167f8be0079c531659141344cd1fd0a4f28419497f9722a3daafe3b4186f6b6457e060405160405180910390a35050565b828054620009789062000b1e565b90600052602060002090601f0160209004810192826200099c5760008555620009e8565b82601f10620009b757805160ff1916838001178555620009e8565b82800160010185558215620009e8579182015b82811115620009e7578251825591602001919060010190620009ca565b5b509050620009f7919062000a62565b5090565b82805482825590600052602060002090810192821562000a4f579160200282015b8281111562000a4e57825182908051906020019062000a3d9291906200096a565b509160200191906001019062000a1c565b5b50905062000a5e919062000a81565b5090565b5b8082111562000a7d57600081600090555060010162000a63565b5090565b5b8082111562000aa5576000818162000a9b919062000aa9565b5060010162000a82565b5090565b50805462000ab79062000b1e565b6000825580601f1062000acb575062000aec565b601f01602090049060005260206000209081019062000aeb919062000a62565b5b50565b7f4e487b7100000000000000000000000000000000000000000000000000000000600052602260045260246000fd5b6000600282049050600182168062000b3757607f821691505b6020821081141562000b4e5762000b4d62000aef565b5b50919050565b6138c18062000b646000396000f3fe608060405234801561001057600080fd5b506004361061010b5760003560e01c8063715018a6116100a2578063b88d4fde11610071578063b88d4fde146102a4578063c87b56dd146102c0578063de9d132f146102f0578063e985e9c5146102fa578063f2fde38b1461032a5761010b565b8063715018a6146102425780638da5cb5b1461024c57806395d89b411461026a578063a22cb465146102885761010b565b806323b872dd116100de57806323b872dd146101aa57806342842e0e146101c65780636352211e146101e257806370a08231146102125761010b565b806301ffc9a71461011057806306fdde0314610140578063081812fc1461015e578063095ea7b31461018e575b600080fd5b61012a60048036038101906101259190612298565b610346565b60405161013791906122e0565b60405180910390f35b610148610428565b6040516101559190612394565b60405180910390f35b610178600480360381019061017391906123ec565b6104ba565b604051610185919061245a565b60405180910390f35b6101a860048036038101906101a391906124a1565b61053f565b005b6101c460048036038101906101bf91906124e1565b610657565b005b6101e060048036038101906101db91906124e1565b6106b7565b005b6101fc60048036038101906101f791906123ec565b6106d7565b604051610209919061245a565b60405180910390f35b61022c60048036038101906102279190612534565b610789565b6040516102399190612570565b60405180910390f35b61024a610841565b005b6102546108c9565b604051610261919061245a565b60405180910390f35b6102726108f3565b60405161027f9190612394565b60405180910390f35b6102a2600480360381019061029d91906125b7565b610985565b005b6102be60048036038101906102b9919061272c565b61099b565b005b6102da60048036038101906102d591906123ec565b6109fd565b6040516102e79190612394565b60405180910390f35b6102f8610a0f565b005b610314600480360381019061030f91906127af565b610b94565b60405161032191906122e0565b60405180910390f35b610344600480360381019061033f9190612534565b610c28565b005b60007f80ac58cd000000000000000000000000000000000000000000000000000000007bffffffffffffffffffffffffffffffffffffffffffffffffffffffff1916827bffffffffffffffffffffffffffffffffffffffffffffffffffffffff1916148061041157507f5b5e139f000000000000000000000000000000000000000000000000000000007bffffffffffffffffffffffffffffffffffffffffffffffffffffffff1916827bffffffffffffffffffffffffffffffffffffffffffffffffffffffff1916145b80610421575061042082610d20565b5b9050919050565b6060600080546104379061281e565b80601f01602080910402602001604051908101604052809291908181526020018280546104639061281e565b80156104b05780601f10610485576101008083540402835291602001916104b0565b820191906000526020600020905b81548152906001019060200180831161049357829003601f168201915b5050505050905090565b60006104c582610d8a565b610504576040517f08c379a00000000000000000000000000000000000000000000000000000000081526004016104fb906128c2565b60405180910390fd5b6004600083815260200190815260200160002060009054906101000a900473ffffffffffffffffffffffffffffffffffffffff169050919050565b600061054a826106d7565b90508073ffffffffffffffffffffffffffffffffffffffff168373ffffffffffffffffffffffffffffffffffffffff1614156105bb576040517f08c379a00000000000000000000000000000000000000000000000000000000081526004016105b290612954565b60405180910390fd5b8073ffffffffffffffffffffffffffffffffffffffff166105da610df6565b73ffffffffffffffffffffffffffffffffffffffff161480610609575061060881610603610df6565b610b94565b5b610648576040517f08c379a000000000000000000000000000000000000000000000000000000000815260040161063f906129e6565b60405180910390fd5b6106528383610dfe565b505050565b610668610662610df6565b82610eb7565b6106a7576040517f08c379a000000000000000000000000000000000000000000000000000000000815260040161069e90612a78565b60405180910390fd5b6106b2838383610f95565b505050565b6106d28383836040518060200160405280600081525061099b565b505050565b6000806002600084815260200190815260200160002060009054906101000a900473ffffffffffffffffffffffffffffffffffffffff169050600073ffffffffffffffffffffffffffffffffffffffff168173ffffffffffffffffffffffffffffffffffffffff161415610780576040517f08c379a000000000000000000000000000000000000000000000000000000000815260040161077790612b0a565b60405180910390fd5b80915050919050565b60008073ffffffffffffffffffffffffffffffffffffffff168273ffffffffffffffffffffffffffffffffffffffff1614156107fa576040517f08c379a00000000000000000000000000000000000000000000000000000000081526004016107f190612b9c565b60405180910390fd5b600360008373ffffffffffffffffffffffffffffffffffffffff1673ffffffffffffffffffffffffffffffffffffffff168152602001908152602001600020549050919050565b610849610df6565b73ffffffffffffffffffffffffffffffffffffffff166108676108c9565b73ffffffffffffffffffffffffffffffffffffffff16146108bd576040517f08c379a00000000000000000000000000000000000000000000000000000000081526004016108b490612c08565b60405180910390fd5b6108c760006111f1565b565b6000600760009054906101000a900473ffffffffffffffffffffffffffffffffffffffff16905090565b6060600180546109029061281e565b80601f016020809104026020016040519081016040528092919081815260200182805461092e9061281e565b801561097b5780601f106109505761010080835404028352916020019161097b565b820191906000526020600020905b81548152906001019060200180831161095e57829003601f168201915b5050505050905090565b610997610990610df6565b83836112b7565b5050565b6109ac6109a6610df6565b83610eb7565b6109eb576040517f08c379a00000000000000000000000000000000000000000000000000000000081526004016109e290612a78565b60405180910390fd5b6109f784848484611424565b50505050565b6060610a0882611480565b9050919050565b610a17610df6565b73ffffffffffffffffffffffffffffffffffffffff16610a356108c9565b73ffffffffffffffffffffffffffffffffffffffff1614610a8b576040517f08c379a0000000000000000000000000000000000000000000000000000000008152600401610a8290612c08565b60405180910390fd5b6000610a9760086115d2565b9050610aa360086115e0565b610aad33826115f6565b6000610ab882611614565b90506000610ac58361171b565b90506000610ad284611822565b90506000838383604051602001610aeb93929190612c64565b60405160208183030381529060405290506000600982600a604051602001610b1593929190612d29565b60405160208183030381529060405290506000610b5a83610b3584611929565b604051602001610b46929190612e8a565b604051602081830303815290604052611929565b9050600081604051602001610b6f9190612f1b565b6040516020818303038152906040529050610b8a8882611ac1565b5050505050505050565b6000600560008473ffffffffffffffffffffffffffffffffffffffff1673ffffffffffffffffffffffffffffffffffffffff16815260200190815260200160002060008373ffffffffffffffffffffffffffffffffffffffff1673ffffffffffffffffffffffffffffffffffffffff16815260200190815260200160002060009054906101000a900460ff16905092915050565b610c30610df6565b73ffffffffffffffffffffffffffffffffffffffff16610c4e6108c9565b73ffffffffffffffffffffffffffffffffffffffff1614610ca4576040517f08c379a0000000000000000000000000000000000000000000000000000000008152600401610c9b90612c08565b60405180910390fd5b600073ffffffffffffffffffffffffffffffffffffffff168173ffffffffffffffffffffffffffffffffffffffff161415610d14576040517f08c379a0000000000000000000000000000000000000000000000000000000008152600401610d0b90612faf565b60405180910390fd5b610d1d816111f1565b50565b60007f01ffc9a7000000000000000000000000000000000000000000000000000000007bffffffffffffffffffffffffffffffffffffffffffffffffffffffff1916827bffffffffffffffffffffffffffffffffffffffffffffffffffffffff1916149050919050565b60008073ffffffffffffffffffffffffffffffffffffffff166002600084815260200190815260200160002060009054906101000a900473ffffffffffffffffffffffffffffffffffffffff1673ffffffffffffffffffffffffffffffffffffffff1614159050919050565b600033905090565b816004600083815260200190815260200160002060006101000a81548173ffffffffffffffffffffffffffffffffffffffff021916908373ffffffffffffffffffffffffffffffffffffffff160217905550808273ffffffffffffffffffffffffffffffffffffffff16610e71836106d7565b73ffffffffffffffffffffffffffffffffffffffff167f8c5be1e5ebec7d5bd14f71427d1e84f3dd0314c0f7b2291e5b200ac8c7c3b92560405160405180910390a45050565b6000610ec282610d8a565b610f01576040517f08c379a0000000000000000000000000000000000000000000000000000000008152600401610ef890613041565b60405180910390fd5b6000610f0c836106d7565b90508073ffffffffffffffffffffffffffffffffffffffff168473ffffffffffffffffffffffffffffffffffffffff161480610f7b57508373ffffffffffffffffffffffffffffffffffffffff16610f63846104ba565b73ffffffffffffffffffffffffffffffffffffffff16145b80610f8c5750610f8b8185610b94565b5b91505092915050565b8273ffffffffffffffffffffffffffffffffffffffff16610fb5826106d7565b73ffffffffffffffffffffffffffffffffffffffff161461100b576040517f08c379a0000000000000000000000000000000000000000000000000000000008152600401611002906130d3565b60405180910390fd5b600073ffffffffffffffffffffffffffffffffffffffff168273ffffffffffffffffffffffffffffffffffffffff16141561107b576040517f08c379a000000000000000000000000000000000000000000000000000000000815260040161107290613165565b60405180910390fd5b611086838383611b35565b611091600082610dfe565b6001600360008573ffffffffffffffffffffffffffffffffffffffff1673ffffffffffffffffffffffffffffffffffffffff16815260200190815260200160002060008282546110e191906131b4565b925050819055506001600360008473ffffffffffffffffffffffffffffffffffffffff1673ffffffffffffffffffffffffffffffffffffffff168152602001908152602001600020600082825461113891906131e8565b92505081905550816002600083815260200190815260200160002060006101000a81548173ffffffffffffffffffffffffffffffffffffffff021916908373ffffffffffffffffffffffffffffffffffffffff160217905550808273ffffffffffffffffffffffffffffffffffffffff168473ffffffffffffffffffffffffffffffffffffffff167fddf252ad1be2c89b69c2b068fc378daa952ba7f163c4a11628f55a4df523b3ef60405160405180910390a4505050565b6000600760009054906101000a900473ffffffffffffffffffffffffffffffffffffffff16905081600760006101000a81548173ffffffffffffffffffffffffffffffffffffffff021916908373ffffffffffffffffffffffffffffffffffffffff1602179055508173ffffffffffffffffffffffffffffffffffffffff168173ffffffffffffffffffffffffffffffffffffffff167f8be0079c531659141344cd1fd0a4f28419497f9722a3daafe3b4186f6b6457e060405160405180910390a35050565b8173ffffffffffffffffffffffffffffffffffffffff168373ffffffffffffffffffffffffffffffffffffffff161415611326576040517f08c379a000000000000000000000000000000000000000000000000000000000815260040161131d9061328a565b60405180910390fd5b80600560008573ffffffffffffffffffffffffffffffffffffffff1673ffffffffffffffffffffffffffffffffffffffff16815260200190815260200160002060008473ffffffffffffffffffffffffffffffffffffffff1673ffffffffffffffffffffffffffffffffffffffff16815260200190815260200160002060006101000a81548160ff0219169083151502179055508173ffffffffffffffffffffffffffffffffffffffff168373ffffffffffffffffffffffffffffffffffffffff167f17307eab39ab6107e8899845ad3d59bd9653f200f220920489ca2b5937696c318360405161141791906122e0565b60405180910390a3505050565b61142f848484610f95565b61143b84848484611b3a565b61147a576040517f08c379a00000000000000000000000000000000000000000000000000000000081526004016114719061331c565b60405180910390fd5b50505050565b606061148b82610d8a565b6114ca576040517f08c379a00000000000000000000000000000000000000000000000000000000081526004016114c1906133ae565b60405180910390fd5b60006006600084815260200190815260200160002080546114ea9061281e565b80601f01602080910402602001604051908101604052809291908181526020018280546115169061281e565b80156115635780601f1061153857610100808354040283529160200191611563565b820191906000526020600020905b81548152906001019060200180831161154657829003601f168201915b505050505090506000611574611cc2565b905060008151141561158a5781925050506115cd565b6000825111156115bf5780826040516020016115a79291906133ce565b604051602081830303815290604052925050506115cd565b6115c884611cd9565b925050505b919050565b600081600001549050919050565b6001816000016000828254019250508190555050565b611610828260405180602001604052806000815250611d80565b5050565b606060006116576040518060400160405280600a81526020017f46495253545f574f52440000000000000000000000000000000000000000000081525084611ddb565b9050600b805490508161166a9190613421565b9050600b81815481106116805761167f613452565b5b9060005260206000200180546116959061281e565b80601f01602080910402602001604051908101604052809291908181526020018280546116c19061281e565b801561170e5780601f106116e35761010080835404028352916020019161170e565b820191906000526020600020905b8154815290600101906020018083116116f157829003601f168201915b5050505050915050919050565b6060600061175e6040518060400160405280600b81526020017f5345434f4e445f574f524400000000000000000000000000000000000000000081525084611ddb565b9050600c80549050816117719190613421565b9050600c818154811061178757611786613452565b5b90600052602060002001805461179c9061281e565b80601f01602080910402602001604051908101604052809291908181526020018280546117c89061281e565b80156118155780601f106117ea57610100808354040283529160200191611815565b820191906000526020600020905b8154815290600101906020018083116117f857829003601f168201915b5050505050915050919050565b606060006118656040518060400160405280600a81526020017f54484952445f574f52440000000000000000000000000000000000000000000081525084611ddb565b9050600d80549050816118789190613421565b9050600d818154811061188e5761188d613452565b5b9060005260206000200180546118a39061281e565b80601f01602080910402602001604051908101604052809291908181526020018280546118cf9061281e565b801561191c5780601f106118f15761010080835404028352916020019161191c565b820191906000526020600020905b8154815290600101906020018083116118ff57829003601f168201915b5050505050915050919050565b606060008251905060008114156119525760405180602001604052806000815250915050611abc565b6000600360028361196391906131e8565b61196d9190613481565b600461197991906134b2565b9050600060208261198a91906131e8565b67ffffffffffffffff8111156119a3576119a2612601565b5b6040519080825280601f01601f1916602001820160405280156119d55781602001600182028036833780820191505090505b509050600060405180606001604052806040815260200161384c604091399050600181016020830160005b86811015611a795760038101905062ffffff818a015116603f8160121c168401518060081b905060ff603f83600c1c1686015116810190508060081b905060ff603f8360061c1686015116810190508060081b905060ff603f831686015116810190508060e01b90508084526004840193505050611a00565b506003860660018114611a935760028114611aa357611aae565b613d3d60f01b6002830352611aae565b603d60f81b60018303525b508484525050819450505050505b919050565b611aca82610d8a565b611b09576040517f08c379a0000000000000000000000000000000000000000000000000000000008152600401611b009061357e565b60405180910390fd5b80600660008481526020019081526020016000209080519060200190611b30929190612189565b505050565b505050565b6000611b5b8473ffffffffffffffffffffffffffffffffffffffff16611e47565b15611cb5578373ffffffffffffffffffffffffffffffffffffffff1663150b7a02611b84610df6565b8786866040518563ffffffff1660e01b8152600401611ba694939291906135f3565b6020604051808303816000875af1925050508015611be257506040513d601f19601f82011682018060405250810190611bdf9190613654565b60015b611c65573d8060008114611c12576040519150601f19603f3d011682016040523d82523d6000602084013e611c17565b606091505b50600081511415611c5d576040517f08c379a0000000000000000000000000000000000000000000000000000000008152600401611c549061331c565b60405180910390fd5b805181602001fd5b63150b7a0260e01b7bffffffffffffffffffffffffffffffffffffffffffffffffffffffff1916817bffffffffffffffffffffffffffffffffffffffffffffffffffffffff191614915050611cba565b600190505b949350505050565b606060405180602001604052806000815250905090565b6060611ce482610d8a565b611d23576040517f08c379a0000000000000000000000000000000000000000000000000000000008152600401611d1a906136f3565b60405180910390fd5b6000611d2d611cc2565b90506000815111611d4d5760405180602001604052806000815250611d78565b80611d5784611e5a565b604051602001611d689291906133ce565b6040516020818303038152906040525b915050919050565b611d8a8383611fbb565b611d976000848484611b3a565b611dd6576040517f08c379a0000000000000000000000000000000000000000000000000000000008152600401611dcd9061331c565b60405180910390fd5b505050565b60008083611de842611e5a565b611df185611e5a565b604051602001611e0393929190612c64565b604051602081830303815290604052905080604051602001611e259190613713565b6040516020818303038152906040528051906020012060001c91505092915050565b600080823b905060008111915050919050565b60606000821415611ea2576040518060400160405280600181526020017f30000000000000000000000000000000000000000000000000000000000000008152509050611fb6565b600082905060005b60008214611ed4578080611ebd9061372a565b915050600a82611ecd9190613481565b9150611eaa565b60008167ffffffffffffffff811115611ef057611eef612601565b5b6040519080825280601f01601f191660200182016040528015611f225781602001600182028036833780820191505090505b5090505b60008514611faf57600182611f3b91906131b4565b9150600a85611f4a9190613421565b6030611f5691906131e8565b60f81b818381518110611f6c57611f6b613452565b5b60200101907effffffffffffffffffffffffffffffffffffffffffffffffffffffffffffff1916908160001a905350600a85611fa89190613481565b9450611f26565b8093505050505b919050565b600073ffffffffffffffffffffffffffffffffffffffff168273ffffffffffffffffffffffffffffffffffffffff16141561202b576040517f08c379a0000000000000000000000000000000000000000000000000000000008152600401612022906137bf565b60405180910390fd5b61203481610d8a565b15612074576040517f08c379a000000000000000000000000000000000000000000000000000000000815260040161206b9061382b565b60405180910390fd5b61208060008383611b35565b6001600360008473ffffffffffffffffffffffffffffffffffffffff1673ffffffffffffffffffffffffffffffffffffffff16815260200190815260200160002060008282546120d091906131e8565b92505081905550816002600083815260200190815260200160002060006101000a81548173ffffffffffffffffffffffffffffffffffffffff021916908373ffffffffffffffffffffffffffffffffffffffff160217905550808273ffffffffffffffffffffffffffffffffffffffff16600073ffffffffffffffffffffffffffffffffffffffff167fddf252ad1be2c89b69c2b068fc378daa952ba7f163c4a11628f55a4df523b3ef60405160405180910390a45050565b8280546121959061281e565b90600052602060002090601f0160209004810192826121b757600085556121fe565b82601f106121d057805160ff19168380011785556121fe565b828001600101855582156121fe579182015b828111156121fd5782518255916020019190600101906121e2565b5b50905061220b919061220f565b5090565b5b80821115612228576000816000905550600101612210565b5090565b6000604051905090565b600080fd5b600080fd5b60007fffffffff0000000000000000000000000000000000000000000000000000000082169050919050565b61227581612240565b811461228057600080fd5b50565b6000813590506122928161226c565b92915050565b6000602082840312156122ae576122ad612236565b5b60006122bc84828501612283565b91505092915050565b60008115159050919050565b6122da816122c5565b82525050565b60006020820190506122f560008301846122d1565b92915050565b600081519050919050565b600082825260208201905092915050565b60005b8381101561233557808201518184015260208101905061231a565b83811115612344576000848401525b50505050565b6000601f19601f8301169050919050565b6000612366826122fb565b6123708185612306565b9350612380818560208601612317565b6123898161234a565b840191505092915050565b600060208201905081810360008301526123ae818461235b565b905092915050565b6000819050919050565b6123c9816123b6565b81146123d457600080fd5b50565b6000813590506123e6816123c0565b92915050565b60006020828403121561240257612401612236565b5b6000612410848285016123d7565b91505092915050565b600073ffffffffffffffffffffffffffffffffffffffff82169050919050565b600061244482612419565b9050919050565b61245481612439565b82525050565b600060208201905061246f600083018461244b565b92915050565b61247e81612439565b811461248957600080fd5b50565b60008135905061249b81612475565b92915050565b600080604083850312156124b8576124b7612236565b5b60006124c68582860161248c565b92505060206124d7858286016123d7565b9150509250929050565b6000806000606084860312156124fa576124f9612236565b5b60006125088682870161248c565b93505060206125198682870161248c565b925050604061252a868287016123d7565b9150509250925092565b60006020828403121561254a57612549612236565b5b60006125588482850161248c565b91505092915050565b61256a816123b6565b82525050565b60006020820190506125856000830184612561565b92915050565b612594816122c5565b811461259f57600080fd5b50565b6000813590506125b18161258b565b92915050565b600080604083850312156125ce576125cd612236565b5b60006125dc8582860161248c565b92505060206125ed858286016125a2565b9150509250929050565b600080fd5b600080fd5b7f4e487b7100000000000000000000000000000000000000000000000000000000600052604160045260246000fd5b6126398261234a565b810181811067ffffffffffffffff8211171561265857612657612601565b5b80604052505050565b600061266b61222c565b90506126778282612630565b919050565b600067ffffffffffffffff82111561269757612696612601565b5b6126a08261234a565b9050602081019050919050565b82818337600083830152505050565b60006126cf6126ca8461267c565b612661565b9050828152602081018484840111156126eb576126ea6125fc565b5b6126f68482856126ad565b509392505050565b600082601f830112612713576127126125f7565b5b81356127238482602086016126bc565b91505092915050565b6000806000806080858703121561274657612745612236565b5b60006127548782880161248c565b94505060206127658782880161248c565b9350506040612776878288016123d7565b925050606085013567ffffffffffffffff8111156127975761279661223b565b5b6127a3878288016126fe565b91505092959194509250565b600080604083850312156127c6576127c5612236565b5b60006127d48582860161248c565b92505060206127e58582860161248c565b9150509250929050565b7f4e487b7100000000000000000000000000000000000000000000000000000000600052602260045260246000fd5b6000600282049050600182168061283657607f821691505b6020821081141561284a576128496127ef565b5b50919050565b7f4552433732313a20617070726f76656420717565727920666f72206e6f6e657860008201527f697374656e7420746f6b656e0000000000000000000000000000000000000000602082015250565b60006128ac602c83612306565b91506128b782612850565b604082019050919050565b600060208201905081810360008301526128db8161289f565b9050919050565b7f4552433732313a20617070726f76616c20746f2063757272656e74206f776e6560008201527f7200000000000000000000000000000000000000000000000000000000000000602082015250565b600061293e602183612306565b9150612949826128e2565b604082019050919050565b6000602082019050818103600083015261296d81612931565b9050919050565b7f4552433732313a20617070726f76652063616c6c6572206973206e6f74206f7760008201527f6e6572206e6f7220617070726f76656420666f7220616c6c0000000000000000602082015250565b60006129d0603883612306565b91506129db82612974565b604082019050919050565b600060208201905081810360008301526129ff816129c3565b9050919050565b7f4552433732313a207472616e736665722063616c6c6572206973206e6f74206f60008201527f776e6572206e6f7220617070726f766564000000000000000000000000000000602082015250565b6000612a62603183612306565b9150612a6d82612a06565b604082019050919050565b60006020820190508181036000830152612a9181612a55565b9050919050565b7f4552433732313a206f776e657220717565727920666f72206e6f6e657869737460008201527f656e7420746f6b656e0000000000000000000000000000000000000000000000602082015250565b6000612af4602983612306565b9150612aff82612a98565b604082019050919050565b60006020820190508181036000830152612b2381612ae7565b9050919050565b7f4552433732313a2062616c616e636520717565727920666f7220746865207a6560008201527f726f206164647265737300000000000000000000000000000000000000000000602082015250565b6000612b86602a83612306565b9150612b9182612b2a565b604082019050919050565b60006020820190508181036000830152612bb581612b79565b9050919050565b7f4f776e61626c653a2063616c6c6572206973206e6f7420746865206f776e6572600082015250565b6000612bf2602083612306565b9150612bfd82612bbc565b602082019050919050565b60006020820190508181036000830152612c2181612be5565b9050919050565b600081905092915050565b6000612c3e826122fb565b612c488185612c28565b9350612c58818560208601612317565b80840191505092915050565b6000612c708286612c33565b9150612c7c8285612c33565b9150612c888284612c33565b9150819050949350505050565b60008190508160005260206000209050919050565b60008154612cb78161281e565b612cc18186612c28565b94506001821660008114612cdc5760018114612ced57612d20565b60ff19831686528186019350612d20565b612cf685612c95565b60005b83811015612d1857815481890152600182019150602081019050612cf9565b838801955050505b50505092915050565b6000612d358286612caa565b9150612d418285612c33565b9150612d4d8284612caa565b9150819050949350505050565b7f7b226e616d65223a202200000000000000000000000000000000000000000000600082015250565b6000612d90600a83612c28565b9150612d9b82612d5a565b600a82019050919050565b7f222c20226465736372697074696f6e223a2022416e206570696320636f6c6c6560008201527f6374696f6e206f6620636f6f6c206e616d6573222c2022696d616765223a202260208201527f646174613a696d6167652f7376672b786d6c3b6261736536342c000000000000604082015250565b6000612e28605a83612c28565b9150612e3382612da6565b605a82019050919050565b7f227d000000000000000000000000000000000000000000000000000000000000600082015250565b6000612e74600283612c28565b9150612e7f82612e3e565b600282019050919050565b6000612e9582612d83565b9150612ea18285612c33565b9150612eac82612e1b565b9150612eb88284612c33565b9150612ec382612e67565b91508190509392505050565b7f646174613a6170706c69636174696f6e2f6a736f6e3b6261736536342c000000600082015250565b6000612f05601d83612c28565b9150612f1082612ecf565b601d82019050919050565b6000612f2682612ef8565b9150612f328284612c33565b915081905092915050565b7f4f776e61626c653a206e6577206f776e657220697320746865207a65726f206160008201527f6464726573730000000000000000000000000000000000000000000000000000602082015250565b6000612f99602683612306565b9150612fa482612f3d565b604082019050919050565b60006020820190508181036000830152612fc881612f8c565b9050919050565b7f4552433732313a206f70657261746f7220717565727920666f72206e6f6e657860008201527f697374656e7420746f6b656e0000000000000000000000000000000000000000602082015250565b600061302b602c83612306565b915061303682612fcf565b604082019050919050565b6000602082019050818103600083015261305a8161301e565b9050919050565b7f4552433732313a207472616e73666572206f6620746f6b656e2074686174206960008201527f73206e6f74206f776e0000000000000000000000000000000000000000000000602082015250565b60006130bd602983612306565b91506130c882613061565b604082019050919050565b600060208201905081810360008301526130ec816130b0565b9050919050565b7f4552433732313a207472616e7366657220746f20746865207a65726f2061646460008201527f7265737300000000000000000000000000000000000000000000000000000000602082015250565b600061314f602483612306565b915061315a826130f3565b604082019050919050565b6000602082019050818103600083015261317e81613142565b9050919050565b7f4e487b7100000000000000000000000000000000000000000000000000000000600052601160045260246000fd5b60006131bf826123b6565b91506131ca836123b6565b9250828210156131dd576131dc613185565b5b828203905092915050565b60006131f3826123b6565b91506131fe836123b6565b9250827fffffffffffffffffffffffffffffffffffffffffffffffffffffffffffffffff0382111561323357613232613185565b5b828201905092915050565b7f4552433732313a20617070726f766520746f2063616c6c657200000000000000600082015250565b6000613274601983612306565b915061327f8261323e565b602082019050919050565b600060208201905081810360008301526132a381613267565b9050919050565b7f4552433732313a207472616e7366657220746f206e6f6e20455243373231526560008201527f63656976657220696d706c656d656e7465720000000000000000000000000000602082015250565b6000613306603283612306565b9150613311826132aa565b604082019050919050565b60006020820190508181036000830152613335816132f9565b9050919050565b7f45524337323155524953746f726167653a2055524920717565727920666f722060008201527f6e6f6e6578697374656e7420746f6b656e000000000000000000000000000000602082015250565b6000613398603183612306565b91506133a38261333c565b604082019050919050565b600060208201905081810360008301526133c78161338b565b9050919050565b60006133da8285612c33565b91506133e68284612c33565b91508190509392505050565b7f4e487b7100000000000000000000000000000000000000000000000000000000600052601260045260246000fd5b600061342c826123b6565b9150613437836123b6565b925082613447576134466133f2565b5b828206905092915050565b7f4e487b7100000000000000000000000000000000000000000000000000000000600052603260045260246000fd5b600061348c826123b6565b9150613497836123b6565b9250826134a7576134a66133f2565b5b828204905092915050565b60006134bd826123b6565b91506134c8836123b6565b9250817fffffffffffffffffffffffffffffffffffffffffffffffffffffffffffffffff048311821515161561350157613500613185565b5b828202905092915050565b7f45524337323155524953746f726167653a2055524920736574206f66206e6f6e60008201527f6578697374656e7420746f6b656e000000000000000000000000000000000000602082015250565b6000613568602e83612306565b91506135738261350c565b604082019050919050565b600060208201905081810360008301526135978161355b565b9050919050565b600081519050919050565b600082825260208201905092915050565b60006135c58261359e565b6135cf81856135a9565b93506135df818560208601612317565b6135e88161234a565b840191505092915050565b6000608082019050613608600083018761244b565b613615602083018661244b565b6136226040830185612561565b818103606083015261363481846135ba565b905095945050505050565b60008151905061364e8161226c565b92915050565b60006020828403121561366a57613669612236565b5b60006136788482850161363f565b91505092915050565b7f4552433732314d657461646174613a2055524920717565727920666f72206e6f60008201527f6e6578697374656e7420746f6b656e0000000000000000000000000000000000602082015250565b60006136dd602f83612306565b91506136e882613681565b604082019050919050565b6000602082019050818103600083015261370c816136d0565b9050919050565b600061371f8284612c33565b915081905092915050565b6000613735826123b6565b91507fffffffffffffffffffffffffffffffffffffffffffffffffffffffffffffffff82141561376857613767613185565b5b600182019050919050565b7f4552433732313a206d696e7420746f20746865207a65726f2061646472657373600082015250565b60006137a9602083612306565b91506137b482613773565b602082019050919050565b600060208201905081810360008301526137d88161379c565b9050919050565b7f4552433732313a20746f6b656e20616c7265616479206d696e74656400000000600082015250565b6000613815601c83612306565b9150613820826137df565b602082019050919050565b6000602082019050818103600083015261384481613808565b905091905056fe4142434445464748494a4b4c4d4e4f505152535455565758595a6162636465666768696a6b6c6d6e6f707172737475767778797a303132333435363738392b2fa2646970667358221220dc6660c8611a8c7d340dab7b0a14279a9fd6cad90330736c1e07b5f3016b1aed64736f6c634300080b00333c73766720786d6c6e733d27687474703a2f2f7777772e77332e6f72672f323030302f73766727207072657365727665417370656374526174696f3d27784d696e594d696e206d656574272076696577426f783d273020302033353020333530273e3c7374796c653e2e62617365207b2066696c6c3a2077686974653b20666f6e742d66616d696c793a2073657269663b20666f6e742d73697a653a20323470783b207d3c2f7374796c653e3c726563742077696474683d273130302527206865696768743d2731303025272066696c6c3d27626c61636b27202f3e3c7465787420783d273530252720793d273530252720636c6173733d27626173652720646f6d696e616e742d626173656c696e653d276d6964646c652720746578742d616e63686f723d276d6964646c65273e",
  "linkReferences": {},
  "deployedLinkReferences": {}
}