{
  "_format": "hh-sol-artifact-1",
  "contractName": "EpicNFT",
  "sourceName": "contracts/EpicNFT.sol",
  "abi": [
    {
      "inputs": [
        {
          "internalType": "address",
          "name": "_royaltyToken",
          "type": "address"
        },
        {
          "internalType": "uint256",
          "name": "_royaltyAmount",
          "type": "uint256"
        }
      ],
      "stateMutability": "nonpayable",
      "type": "constructor"
    },
    {
      "anonymous": false,
      "inputs": [
        {
          "indexed": true,
          "internalType": "address",
          "name": "owner",
          "type": "address"
        },
        {
          "indexed": true,
          "internalType": "address",
          "name": "approved",
          "type": "address"
        },
        {
          "indexed": true,
          "internalType": "uint256",
          "name": "tokenId",
          "type": "uint256"
        }
      ],
      "name": "Approval",
      "type": "event"
    },
    {
      "anonymous": false,
      "inputs": [
        {
          "indexed": true,
          "internalType": "address",
          "name": "owner",
          "type": "address"
        },
        {
          "indexed": true,
          "internalType": "address",
          "name": "operator",
          "type": "address"
        },
        {
          "indexed": false,
          "internalType": "bool",
          "name": "approved",
          "type": "bool"
        }
      ],
      "name": "ApprovalForAll",
      "type": "event"
    },
    {
      "anonymous": false,
      "inputs": [
        {
          "indexed": false,
          "internalType": "address",
          "name": "sender",
          "type": "address"
        },
        {
          "indexed": false,
          "internalType": "uint256",
          "name": "tokenId",
          "type": "uint256"
        }
      ],
      "name": "NewEpicNFTMinted",
      "type": "event"
    },
    {
      "anonymous": false,
      "inputs": [
        {
          "indexed": true,
          "internalType": "address",
          "name": "previousOwner",
          "type": "address"
        },
        {
          "indexed": true,
          "internalType": "address",
          "name": "newOwner",
          "type": "address"
        }
      ],
      "name": "OwnershipTransferred",
      "type": "event"
    },
    {
      "anonymous": false,
      "inputs": [
        {
          "indexed": true,
          "internalType": "address",
          "name": "from",
          "type": "address"
        },
        {
          "indexed": true,
          "internalType": "address",
          "name": "to",
          "type": "address"
        },
        {
          "indexed": true,
          "internalType": "uint256",
          "name": "tokenId",
          "type": "uint256"
        }
      ],
      "name": "Transfer",
      "type": "event"
    },
    {
      "inputs": [],
      "name": "MAX_SUPPLY",
      "outputs": [
        {
          "internalType": "uint256",
          "name": "",
          "type": "uint256"
        }
      ],
      "stateMutability": "view",
      "type": "function"
    },
    {
      "inputs": [
        {
          "internalType": "address",
          "name": "to",
          "type": "address"
        },
        {
          "internalType": "uint256",
          "name": "tokenId",
          "type": "uint256"
        }
      ],
      "name": "approve",
      "outputs": [],
      "stateMutability": "nonpayable",
      "type": "function"
    },
    {
      "inputs": [
        {
          "internalType": "address",
          "name": "owner",
          "type": "address"
        }
      ],
      "name": "balanceOf",
      "outputs": [
        {
          "internalType": "uint256",
          "name": "",
          "type": "uint256"
        }
      ],
      "stateMutability": "view",
      "type": "function"
    },
    {
      "inputs": [
        {
          "internalType": "uint256",
          "name": "tokenId",
          "type": "uint256"
        }
      ],
      "name": "getApproved",
      "outputs": [
        {
          "internalType": "address",
          "name": "",
          "type": "address"
        }
      ],
      "stateMutability": "view",
      "type": "function"
    },
    {
      "inputs": [],
      "name": "getMintedCount",
      "outputs": [
        {
          "internalType": "uint256",
          "name": "",
          "type": "uint256"
        }
      ],
      "stateMutability": "view",
      "type": "function"
    },
    {
      "inputs": [
        {
          "internalType": "address",
          "name": "owner",
          "type": "address"
        },
        {
          "internalType": "address",
          "name": "operator",
          "type": "address"
        }
      ],
      "name": "isApprovedForAll",
      "outputs": [
        {
          "internalType": "bool",
          "name": "",
          "type": "bool"
        }
      ],
      "stateMutability": "view",
      "type": "function"
    },
    {
      "inputs": [
        {
          "internalType": "string",
          "name": "_data",
          "type": "string"
        },
        {
          "internalType": "string",
          "name": "_description",
          "type": "string"
        }
      ],
      "name": "mintCustomNFT",
      "outputs": [],
      "stateMutability": "nonpayable",
      "type": "function"
    },
    {
      "inputs": [],
      "name": "name",
      "outputs": [
        {
          "internalType": "string",
          "name": "",
          "type": "string"
        }
      ],
      "stateMutability": "view",
      "type": "function"
    },
    {
      "inputs": [],
      "name": "owner",
      "outputs": [
        {
          "internalType": "address",
          "name": "",
          "type": "address"
        }
      ],
      "stateMutability": "view",
      "type": "function"
    },
    {
      "inputs": [
        {
          "internalType": "uint256",
          "name": "tokenId",
          "type": "uint256"
        }
      ],
      "name": "ownerOf",
      "outputs": [
        {
          "internalType": "address",
          "name": "",
          "type": "address"
        }
      ],
      "stateMutability": "view",
      "type": "function"
    },
    {
      "inputs": [],
      "name": "renounceOwnership",
      "outputs": [],
      "stateMutability": "nonpayable",
      "type": "function"
    },
    {
      "inputs": [
        {
          "internalType": "address",
          "name": "from",
          "type": "address"
        },
        {
          "internalType": "address",
          "name": "to",
          "type": "address"
        },
        {
          "internalType": "uint256",
          "name": "tokenId",
          "type": "uint256"
        }
      ],
      "name": "safeTransferFrom",
      "outputs": [],
      "stateMutability": "nonpayable",
      "type": "function"
    },
    {
      "inputs": [
        {
          "internalType": "address",
          "name": "from",
          "type": "address"
        },
        {
          "internalType": "address",
          "name": "to",
          "type": "address"
        },
        {
          "internalType": "uint256",
          "name": "tokenId",
          "type": "uint256"
        },
        {
          "internalType": "bytes",
          "name": "_data",
          "type": "bytes"
        }
      ],
      "name": "safeTransferFrom",
      "outputs": [],
      "stateMutability": "nonpayable",
      "type": "function"
    },
    {
      "inputs": [
        {
          "internalType": "address",
          "name": "operator",
          "type": "address"
        },
        {
          "internalType": "bool",
          "name": "approved",
          "type": "bool"
        }
      ],
      "name": "setApprovalForAll",
      "outputs": [],
      "stateMutability": "nonpayable",
      "type": "function"
    },
    {
      "inputs": [
        {
          "internalType": "bytes4",
          "name": "interfaceId",
          "type": "bytes4"
        }
      ],
      "name": "supportsInterface",
      "outputs": [
        {
          "internalType": "bool",
          "name": "",
          "type": "bool"
        }
      ],
      "stateMutability": "view",
      "type": "function"
    },
    {
      "inputs": [],
      "name": "symbol",
      "outputs": [
        {
          "internalType": "string",
          "name": "",
          "type": "string"
        }
      ],
      "stateMutability": "view",
      "type": "function"
    },
    {
      "inputs": [
        {
          "internalType": "uint256",
          "name": "tokenId",
          "type": "uint256"
        }
      ],
      "name": "tokenURI",
      "outputs": [
        {
          "internalType": "string",
          "name": "",
          "type": "string"
        }
      ],
      "stateMutability": "view",
      "type": "function"
    },
    {
      "inputs": [
        {
          "internalType": "address",
          "name": "from",
          "type": "address"
        },
        {
          "internalType": "address",
          "name": "to",
          "type": "address"
        },
        {
          "internalType": "uint256",
          "name": "tokenId",
          "type": "uint256"
        }
      ],
      "name": "transferFrom",
      "outputs": [],
      "stateMutability": "nonpayable",
      "type": "function"
    },
    {
      "inputs": [
        {
          "internalType": "address",
          "name": "newOwner",
          "type": "address"
        }
      ],
      "name": "transferOwnership",
      "outputs": [],
      "stateMutability": "nonpayable",
      "type": "function"
    },
    {
      "inputs": [],
      "name": "txFeeAmount",
      "outputs": [
        {
          "internalType": "uint256",
          "name": "",
          "type": "uint256"
        }
      ],
      "stateMutability": "view",
      "type": "function"
    },
    {
      "inputs": [],
      "name": "txFeeToken",
      "outputs": [
        {
          "internalType": "address",
          "name": "",
          "type": "address"
        }
      ],
      "stateMutability": "view",
      "type": "function"
    }
  ],
  "bytecode": "0x608060405260405180610160016040528061012f81526020016200401a61012f9139600890805190602001906200003892919062000298565b506040518060400160405280600d81526020017f3c2f746578743e3c2f7376673e00000000000000000000000000000000000000815250600990805190602001906200008692919062000298565b503480156200009457600080fd5b5060405162004149380380620041498339818101604052810190620000ba9190620003ed565b6040518060400160405280600f81526020017f52616e646f6d2054686f756768747300000000000000000000000000000000008152506040518060400160405280600281526020017f525400000000000000000000000000000000000000000000000000000000000081525081600090805190602001906200013e92919062000298565b5080600190805190602001906200015792919062000298565b5050506200017a6200016e620001ca60201b60201c565b620001d260201b60201c565b81600c60006101000a81548173ffffffffffffffffffffffffffffffffffffffff021916908373ffffffffffffffffffffffffffffffffffffffff16021790555080600b81905550505062000499565b600033905090565b6000600760009054906101000a900473ffffffffffffffffffffffffffffffffffffffff16905081600760006101000a81548173ffffffffffffffffffffffffffffffffffffffff021916908373ffffffffffffffffffffffffffffffffffffffff1602179055508173ffffffffffffffffffffffffffffffffffffffff168173ffffffffffffffffffffffffffffffffffffffff167f8be0079c531659141344cd1fd0a4f28419497f9722a3daafe3b4186f6b6457e060405160405180910390a35050565b828054620002a69062000463565b90600052602060002090601f016020900481019282620002ca576000855562000316565b82601f10620002e557805160ff191683800117855562000316565b8280016001018555821562000316579182015b8281111562000315578251825591602001919060010190620002f8565b5b50905062000325919062000329565b5090565b5b80821115620003445760008160009055506001016200032a565b5090565b600080fd5b600073ffffffffffffffffffffffffffffffffffffffff82169050919050565b60006200037a826200034d565b9050919050565b6200038c816200036d565b81146200039857600080fd5b50565b600081519050620003ac8162000381565b92915050565b6000819050919050565b620003c781620003b2565b8114620003d357600080fd5b50565b600081519050620003e781620003bc565b92915050565b6000806040838503121562000407576200040662000348565b5b600062000417858286016200039b565b92505060206200042a85828601620003d6565b9150509250929050565b7f4e487b7100000000000000000000000000000000000000000000000000000000600052602260045260246000fd5b600060028204905060018216806200047c57607f821691505b6020821081141562000493576200049262000434565b5b50919050565b613b7180620004a96000396000f3fe608060405234801561001057600080fd5b50600436106101375760003560e01c8063715018a6116100b8578063a22cb4651161007c578063a22cb4651461032a578063b88d4fde14610346578063c87b56dd14610362578063e985e9c514610392578063ebc9bd3b146103c2578063f2fde38b146103e057610137565b8063715018a6146102a857806377c567a7146102b25780638da5cb5b146102d05780638fbceaad146102ee57806395d89b411461030c57610137565b806323b872dd116100ff57806323b872dd146101f257806332cb6b0c1461020e57806342842e0e1461022c5780636352211e1461024857806370a082311461027857610137565b806301ffc9a71461013c5780630674b1a41461016c57806306fdde0314610188578063081812fc146101a6578063095ea7b3146101d6575b600080fd5b61015660048036038101906101519190612257565b6103fc565b604051610163919061229f565b60405180910390f35b61018660048036038101906101819190612400565b6104de565b005b61019061059b565b60405161019d9190612500565b60405180910390f35b6101c060048036038101906101bb9190612558565b61062d565b6040516101cd91906125c6565b60405180910390f35b6101f060048036038101906101eb919061260d565b6106b2565b005b61020c6004803603810190610207919061264d565b6107ca565b005b61021661086e565b60405161022391906126af565b60405180910390f35b6102466004803603810190610241919061264d565b610874565b005b610262600480360381019061025d9190612558565b6108d8565b60405161026f91906125c6565b60405180910390f35b610292600480360381019061028d91906126ca565b61098a565b60405161029f91906126af565b60405180910390f35b6102b0610a42565b005b6102ba610aca565b6040516102c791906125c6565b60405180910390f35b6102d8610af0565b6040516102e591906125c6565b60405180910390f35b6102f6610b1a565b60405161030391906126af565b60405180910390f35b610314610b20565b6040516103219190612500565b60405180910390f35b610344600480360381019061033f9190612723565b610bb2565b005b610360600480360381019061035b9190612804565b610bc8565b005b61037c60048036038101906103779190612558565b610c6e565b6040516103899190612500565b60405180910390f35b6103ac60048036038101906103a79190612887565b610c80565b6040516103b9919061229f565b60405180910390f35b6103ca610d14565b6040516103d791906126af565b60405180910390f35b6103fa60048036038101906103f591906126ca565b610d25565b005b60007f80ac58cd000000000000000000000000000000000000000000000000000000007bffffffffffffffffffffffffffffffffffffffffffffffffffffffff1916827bffffffffffffffffffffffffffffffffffffffffffffffffffffffff191614806104c757507f5b5e139f000000000000000000000000000000000000000000000000000000007bffffffffffffffffffffffffffffffffffffffffffffffffffffffff1916827bffffffffffffffffffffffffffffffffffffffffffffffffffffffff1916145b806104d757506104d682610e1d565b5b9050919050565b60006104ea600a610e87565b90506102d18110610530576040517f08c379a000000000000000000000000000000000000000000000000000000000815260040161052790612913565b60405180910390fd5b61053a600a610e95565b6105443382610eab565b60006105508484610ec9565b905061055c8282610efc565b7febb98688741ffa4c7589bf325de30cf7becb63de567842e1ccdb6cb949fdc82c338360405161058d929190612933565b60405180910390a150505050565b6060600080546105aa9061298b565b80601f01602080910402602001604051908101604052809291908181526020018280546105d69061298b565b80156106235780601f106105f857610100808354040283529160200191610623565b820191906000526020600020905b81548152906001019060200180831161060657829003601f168201915b5050505050905090565b600061063882610f70565b610677576040517f08c379a000000000000000000000000000000000000000000000000000000000815260040161066e90612a2f565b60405180910390fd5b6004600083815260200190815260200160002060009054906101000a900473ffffffffffffffffffffffffffffffffffffffff169050919050565b60006106bd826108d8565b90508073ffffffffffffffffffffffffffffffffffffffff168373ffffffffffffffffffffffffffffffffffffffff16141561072e576040517f08c379a000000000000000000000000000000000000000000000000000000000815260040161072590612ac1565b60405180910390fd5b8073ffffffffffffffffffffffffffffffffffffffff1661074d610fdc565b73ffffffffffffffffffffffffffffffffffffffff16148061077c575061077b81610776610fdc565b610c80565b5b6107bb576040517f08c379a00000000000000000000000000000000000000000000000000000000081526004016107b290612b53565b60405180910390fd5b6107c58383610fe4565b505050565b6107db6107d5610fdc565b8261109d565b61081a576040517f08c379a000000000000000000000000000000000000000000000000000000000815260040161081190612be5565b60405180910390fd5b610822610af0565b73ffffffffffffffffffffffffffffffffffffffff163373ffffffffffffffffffffffffffffffffffffffff161461085e5761085d8361117b565b5b610869838383611316565b505050565b6102d181565b61087c610af0565b73ffffffffffffffffffffffffffffffffffffffff163373ffffffffffffffffffffffffffffffffffffffff16146108b8576108b78361117b565b5b6108d383838360405180602001604052806000815250610bc8565b505050565b6000806002600084815260200190815260200160002060009054906101000a900473ffffffffffffffffffffffffffffffffffffffff169050600073ffffffffffffffffffffffffffffffffffffffff168173ffffffffffffffffffffffffffffffffffffffff161415610981576040517f08c379a000000000000000000000000000000000000000000000000000000000815260040161097890612c77565b60405180910390fd5b80915050919050565b60008073ffffffffffffffffffffffffffffffffffffffff168273ffffffffffffffffffffffffffffffffffffffff1614156109fb576040517f08c379a00000000000000000000000000000000000000000000000000000000081526004016109f290612d09565b60405180910390fd5b600360008373ffffffffffffffffffffffffffffffffffffffff1673ffffffffffffffffffffffffffffffffffffffff168152602001908152602001600020549050919050565b610a4a610fdc565b73ffffffffffffffffffffffffffffffffffffffff16610a68610af0565b73ffffffffffffffffffffffffffffffffffffffff1614610abe576040517f08c379a0000000000000000000000000000000000000000000000000000000008152600401610ab590612d75565b60405180910390fd5b610ac86000611572565b565b600c60009054906101000a900473ffffffffffffffffffffffffffffffffffffffff1681565b6000600760009054906101000a900473ffffffffffffffffffffffffffffffffffffffff16905090565b600b5481565b606060018054610b2f9061298b565b80601f0160208091040260200160405190810160405280929190818152602001828054610b5b9061298b565b8015610ba85780601f10610b7d57610100808354040283529160200191610ba8565b820191906000526020600020905b815481529060010190602001808311610b8b57829003601f168201915b5050505050905090565b610bc4610bbd610fdc565b8383611638565b5050565b610bd9610bd3610fdc565b8361109d565b610c18576040517f08c379a0000000000000000000000000000000000000000000000000000000008152600401610c0f90612be5565b60405180910390fd5b610c20610af0565b73ffffffffffffffffffffffffffffffffffffffff163373ffffffffffffffffffffffffffffffffffffffff1614610c5c57610c5b8461117b565b5b610c68848484846117a5565b50505050565b6060610c7982611801565b9050919050565b6000600560008473ffffffffffffffffffffffffffffffffffffffff1673ffffffffffffffffffffffffffffffffffffffff16815260200190815260200160002060008373ffffffffffffffffffffffffffffffffffffffff1673ffffffffffffffffffffffffffffffffffffffff16815260200190815260200160002060009054906101000a900460ff16905092915050565b6000610d20600a610e87565b905090565b610d2d610fdc565b73ffffffffffffffffffffffffffffffffffffffff16610d4b610af0565b73ffffffffffffffffffffffffffffffffffffffff1614610da1576040517f08c379a0000000000000000000000000000000000000000000000000000000008152600401610d9890612d75565b60405180910390fd5b600073ffffffffffffffffffffffffffffffffffffffff168173ffffffffffffffffffffffffffffffffffffffff161415610e11576040517f08c379a0000000000000000000000000000000000000000000000000000000008152600401610e0890612e07565b60405180910390fd5b610e1a81611572565b50565b60007f01ffc9a7000000000000000000000000000000000000000000000000000000007bffffffffffffffffffffffffffffffffffffffffffffffffffffffff1916827bffffffffffffffffffffffffffffffffffffffffffffffffffffffff1916149050919050565b600081600001549050919050565b6001816000016000828254019250508190555050565b610ec5828260405180602001604052806000815250611953565b5050565b6060610ed583836119ae565b604051602001610ee59190612eaf565b604051602081830303815290604052905092915050565b610f0582610f70565b610f44576040517f08c379a0000000000000000000000000000000000000000000000000000000008152600401610f3b90612f43565b60405180910390fd5b80600660008481526020019081526020016000209080519060200190610f6b929190612148565b505050565b60008073ffffffffffffffffffffffffffffffffffffffff166002600084815260200190815260200160002060009054906101000a900473ffffffffffffffffffffffffffffffffffffffff1673ffffffffffffffffffffffffffffffffffffffff1614159050919050565b600033905090565b816004600083815260200190815260200160002060006101000a81548173ffffffffffffffffffffffffffffffffffffffff021916908373ffffffffffffffffffffffffffffffffffffffff160217905550808273ffffffffffffffffffffffffffffffffffffffff16611057836108d8565b73ffffffffffffffffffffffffffffffffffffffff167f8c5be1e5ebec7d5bd14f71427d1e84f3dd0314c0f7b2291e5b200ac8c7c3b92560405160405180910390a45050565b60006110a882610f70565b6110e7576040517f08c379a00000000000000000000000000000000000000000000000000000000081526004016110de90612fd5565b60405180910390fd5b60006110f2836108d8565b90508073ffffffffffffffffffffffffffffffffffffffff168473ffffffffffffffffffffffffffffffffffffffff16148061116157508373ffffffffffffffffffffffffffffffffffffffff166111498461062d565b73ffffffffffffffffffffffffffffffffffffffff16145b8061117257506111718185610c80565b5b91505092915050565b6000600c60009054906101000a900473ffffffffffffffffffffffffffffffffffffffff1673ffffffffffffffffffffffffffffffffffffffff166370a08231336040518263ffffffff1660e01b81526004016111d891906125c6565b602060405180830381865afa1580156111f5573d6000803e3d6000fd5b505050506040513d601f19601f82011682018060405250810190611219919061300a565b9050600b54811015611260576040517f08c379a0000000000000000000000000000000000000000000000000000000008152600401611257906130a9565b60405180910390fd5b6000600c60009054906101000a900473ffffffffffffffffffffffffffffffffffffffff1690508073ffffffffffffffffffffffffffffffffffffffff166323b872dd846112ac610af0565b600b546040518463ffffffff1660e01b81526004016112cd939291906130c9565b6020604051808303816000875af11580156112ec573d6000803e3d6000fd5b505050506040513d601f19601f820116820180604052508101906113109190613115565b50505050565b8273ffffffffffffffffffffffffffffffffffffffff16611336826108d8565b73ffffffffffffffffffffffffffffffffffffffff161461138c576040517f08c379a0000000000000000000000000000000000000000000000000000000008152600401611383906131b4565b60405180910390fd5b600073ffffffffffffffffffffffffffffffffffffffff168273ffffffffffffffffffffffffffffffffffffffff1614156113fc576040517f08c379a00000000000000000000000000000000000000000000000000000000081526004016113f390613246565b60405180910390fd5b6114078383836119f4565b611412600082610fe4565b6001600360008573ffffffffffffffffffffffffffffffffffffffff1673ffffffffffffffffffffffffffffffffffffffff16815260200190815260200160002060008282546114629190613295565b925050819055506001600360008473ffffffffffffffffffffffffffffffffffffffff1673ffffffffffffffffffffffffffffffffffffffff16815260200190815260200160002060008282546114b991906132c9565b92505081905550816002600083815260200190815260200160002060006101000a81548173ffffffffffffffffffffffffffffffffffffffff021916908373ffffffffffffffffffffffffffffffffffffffff160217905550808273ffffffffffffffffffffffffffffffffffffffff168473ffffffffffffffffffffffffffffffffffffffff167fddf252ad1be2c89b69c2b068fc378daa952ba7f163c4a11628f55a4df523b3ef60405160405180910390a4505050565b6000600760009054906101000a900473ffffffffffffffffffffffffffffffffffffffff16905081600760006101000a81548173ffffffffffffffffffffffffffffffffffffffff021916908373ffffffffffffffffffffffffffffffffffffffff1602179055508173ffffffffffffffffffffffffffffffffffffffff168173ffffffffffffffffffffffffffffffffffffffff167f8be0079c531659141344cd1fd0a4f28419497f9722a3daafe3b4186f6b6457e060405160405180910390a35050565b8173ffffffffffffffffffffffffffffffffffffffff168373ffffffffffffffffffffffffffffffffffffffff1614156116a7576040517f08c379a000000000000000000000000000000000000000000000000000000000815260040161169e9061336b565b60405180910390fd5b80600560008573ffffffffffffffffffffffffffffffffffffffff1673ffffffffffffffffffffffffffffffffffffffff16815260200190815260200160002060008473ffffffffffffffffffffffffffffffffffffffff1673ffffffffffffffffffffffffffffffffffffffff16815260200190815260200160002060006101000a81548160ff0219169083151502179055508173ffffffffffffffffffffffffffffffffffffffff168373ffffffffffffffffffffffffffffffffffffffff167f17307eab39ab6107e8899845ad3d59bd9653f200f220920489ca2b5937696c3183604051611798919061229f565b60405180910390a3505050565b6117b0848484611316565b6117bc848484846119f9565b6117fb576040517f08c379a00000000000000000000000000000000000000000000000000000000081526004016117f2906133fd565b60405180910390fd5b50505050565b606061180c82610f70565b61184b576040517f08c379a00000000000000000000000000000000000000000000000000000000081526004016118429061348f565b60405180910390fd5b600060066000848152602001908152602001600020805461186b9061298b565b80601f01602080910402602001604051908101604052809291908181526020018280546118979061298b565b80156118e45780601f106118b9576101008083540402835291602001916118e4565b820191906000526020600020905b8154815290600101906020018083116118c757829003601f168201915b5050505050905060006118f5611b81565b905060008151141561190b57819250505061194e565b6000825111156119405780826040516020016119289291906134af565b6040516020818303038152906040529250505061194e565b61194984611b98565b925050505b919050565b61195d8383611c3f565b61196a60008484846119f9565b6119a9576040517f08c379a00000000000000000000000000000000000000000000000000000000081526004016119a0906133fd565b60405180910390fd5b505050565b60606119ec83836119c66119c187611e0d565b611e3c565b6040516020016119d893929190613629565b604051602081830303815290604052611e3c565b905092915050565b505050565b6000611a1a8473ffffffffffffffffffffffffffffffffffffffff16611fd4565b15611b74578373ffffffffffffffffffffffffffffffffffffffff1663150b7a02611a43610fdc565b8786866040518563ffffffff1660e01b8152600401611a6594939291906136db565b6020604051808303816000875af1925050508015611aa157506040513d601f19601f82011682018060405250810190611a9e919061373c565b60015b611b24573d8060008114611ad1576040519150601f19603f3d011682016040523d82523d6000602084013e611ad6565b606091505b50600081511415611b1c576040517f08c379a0000000000000000000000000000000000000000000000000000000008152600401611b13906133fd565b60405180910390fd5b805181602001fd5b63150b7a0260e01b7bffffffffffffffffffffffffffffffffffffffffffffffffffffffff1916817bffffffffffffffffffffffffffffffffffffffffffffffffffffffff191614915050611b79565b600190505b949350505050565b606060405180602001604052806000815250905090565b6060611ba382610f70565b611be2576040517f08c379a0000000000000000000000000000000000000000000000000000000008152600401611bd9906137db565b60405180910390fd5b6000611bec611b81565b90506000815111611c0c5760405180602001604052806000815250611c37565b80611c1684611fe7565b604051602001611c279291906134af565b6040516020818303038152906040525b915050919050565b600073ffffffffffffffffffffffffffffffffffffffff168273ffffffffffffffffffffffffffffffffffffffff161415611caf576040517f08c379a0000000000000000000000000000000000000000000000000000000008152600401611ca690613847565b60405180910390fd5b611cb881610f70565b15611cf8576040517f08c379a0000000000000000000000000000000000000000000000000000000008152600401611cef906138b3565b60405180910390fd5b611d04600083836119f4565b6001600360008473ffffffffffffffffffffffffffffffffffffffff1673ffffffffffffffffffffffffffffffffffffffff1681526020019081526020016000206000828254611d5491906132c9565b92505081905550816002600083815260200190815260200160002060006101000a81548173ffffffffffffffffffffffffffffffffffffffff021916908373ffffffffffffffffffffffffffffffffffffffff160217905550808273ffffffffffffffffffffffffffffffffffffffff16600073ffffffffffffffffffffffffffffffffffffffff167fddf252ad1be2c89b69c2b068fc378daa952ba7f163c4a11628f55a4df523b3ef60405160405180910390a45050565b60606008826009604051602001611e2693929190613967565b6040516020818303038152906040529050919050565b60606000825190506000811415611e655760405180602001604052806000815250915050611fcf565b60006003600283611e7691906132c9565b611e8091906139c7565b6004611e8c91906139f8565b90506000602082611e9d91906132c9565b67ffffffffffffffff811115611eb657611eb56122d5565b5b6040519080825280601f01601f191660200182016040528015611ee85781602001600182028036833780820191505090505b5090506000604051806060016040528060408152602001613afc604091399050600181016020830160005b86811015611f8c5760038101905062ffffff818a015116603f8160121c168401518060081b905060ff603f83600c1c1686015116810190508060081b905060ff603f8360061c1686015116810190508060081b905060ff603f831686015116810190508060e01b90508084526004840193505050611f13565b506003860660018114611fa65760028114611fb657611fc1565b613d3d60f01b6002830352611fc1565b603d60f81b60018303525b508484525050819450505050505b919050565b600080823b905060008111915050919050565b6060600082141561202f576040518060400160405280600181526020017f30000000000000000000000000000000000000000000000000000000000000008152509050612143565b600082905060005b6000821461206157808061204a90613a52565b915050600a8261205a91906139c7565b9150612037565b60008167ffffffffffffffff81111561207d5761207c6122d5565b5b6040519080825280601f01601f1916602001820160405280156120af5781602001600182028036833780820191505090505b5090505b6000851461213c576001826120c89190613295565b9150600a856120d79190613a9b565b60306120e391906132c9565b60f81b8183815181106120f9576120f8613acc565b5b60200101907effffffffffffffffffffffffffffffffffffffffffffffffffffffffffffff1916908160001a905350600a8561213591906139c7565b94506120b3565b8093505050505b919050565b8280546121549061298b565b90600052602060002090601f01602090048101928261217657600085556121bd565b82601f1061218f57805160ff19168380011785556121bd565b828001600101855582156121bd579182015b828111156121bc5782518255916020019190600101906121a1565b5b5090506121ca91906121ce565b5090565b5b808211156121e75760008160009055506001016121cf565b5090565b6000604051905090565b600080fd5b600080fd5b60007fffffffff0000000000000000000000000000000000000000000000000000000082169050919050565b612234816121ff565b811461223f57600080fd5b50565b6000813590506122518161222b565b92915050565b60006020828403121561226d5761226c6121f5565b5b600061227b84828501612242565b91505092915050565b60008115159050919050565b61229981612284565b82525050565b60006020820190506122b46000830184612290565b92915050565b600080fd5b600080fd5b6000601f19601f8301169050919050565b7f4e487b7100000000000000000000000000000000000000000000000000000000600052604160045260246000fd5b61230d826122c4565b810181811067ffffffffffffffff8211171561232c5761232b6122d5565b5b80604052505050565b600061233f6121eb565b905061234b8282612304565b919050565b600067ffffffffffffffff82111561236b5761236a6122d5565b5b612374826122c4565b9050602081019050919050565b82818337600083830152505050565b60006123a361239e84612350565b612335565b9050828152602081018484840111156123bf576123be6122bf565b5b6123ca848285612381565b509392505050565b600082601f8301126123e7576123e66122ba565b5b81356123f7848260208601612390565b91505092915050565b60008060408385031215612417576124166121f5565b5b600083013567ffffffffffffffff811115612435576124346121fa565b5b612441858286016123d2565b925050602083013567ffffffffffffffff811115612462576124616121fa565b5b61246e858286016123d2565b9150509250929050565b600081519050919050565b600082825260208201905092915050565b60005b838110156124b2578082015181840152602081019050612497565b838111156124c1576000848401525b50505050565b60006124d282612478565b6124dc8185612483565b93506124ec818560208601612494565b6124f5816122c4565b840191505092915050565b6000602082019050818103600083015261251a81846124c7565b905092915050565b6000819050919050565b61253581612522565b811461254057600080fd5b50565b6000813590506125528161252c565b92915050565b60006020828403121561256e5761256d6121f5565b5b600061257c84828501612543565b91505092915050565b600073ffffffffffffffffffffffffffffffffffffffff82169050919050565b60006125b082612585565b9050919050565b6125c0816125a5565b82525050565b60006020820190506125db60008301846125b7565b92915050565b6125ea816125a5565b81146125f557600080fd5b50565b600081359050612607816125e1565b92915050565b60008060408385031215612624576126236121f5565b5b6000612632858286016125f8565b925050602061264385828601612543565b9150509250929050565b600080600060608486031215612666576126656121f5565b5b6000612674868287016125f8565b9350506020612685868287016125f8565b925050604061269686828701612543565b9150509250925092565b6126a981612522565b82525050565b60006020820190506126c460008301846126a0565b92915050565b6000602082840312156126e0576126df6121f5565b5b60006126ee848285016125f8565b91505092915050565b61270081612284565b811461270b57600080fd5b50565b60008135905061271d816126f7565b92915050565b6000806040838503121561273a576127396121f5565b5b6000612748858286016125f8565b92505060206127598582860161270e565b9150509250929050565b600067ffffffffffffffff82111561277e5761277d6122d5565b5b612787826122c4565b9050602081019050919050565b60006127a76127a284612763565b612335565b9050828152602081018484840111156127c3576127c26122bf565b5b6127ce848285612381565b509392505050565b600082601f8301126127eb576127ea6122ba565b5b81356127fb848260208601612794565b91505092915050565b6000806000806080858703121561281e5761281d6121f5565b5b600061282c878288016125f8565b945050602061283d878288016125f8565b935050604061284e87828801612543565b925050606085013567ffffffffffffffff81111561286f5761286e6121fa565b5b61287b878288016127d6565b91505092959194509250565b6000806040838503121561289e5761289d6121f5565b5b60006128ac858286016125f8565b92505060206128bd858286016125f8565b9150509250929050565b7f416c6c204e4654732068617665206265656e206d696e74656400000000000000600082015250565b60006128fd601983612483565b9150612908826128c7565b602082019050919050565b6000602082019050818103600083015261292c816128f0565b9050919050565b600060408201905061294860008301856125b7565b61295560208301846126a0565b9392505050565b7f4e487b7100000000000000000000000000000000000000000000000000000000600052602260045260246000fd5b600060028204905060018216806129a357607f821691505b602082108114156129b7576129b661295c565b5b50919050565b7f4552433732313a20617070726f76656420717565727920666f72206e6f6e657860008201527f697374656e7420746f6b656e0000000000000000000000000000000000000000602082015250565b6000612a19602c83612483565b9150612a24826129bd565b604082019050919050565b60006020820190508181036000830152612a4881612a0c565b9050919050565b7f4552433732313a20617070726f76616c20746f2063757272656e74206f776e6560008201527f7200000000000000000000000000000000000000000000000000000000000000602082015250565b6000612aab602183612483565b9150612ab682612a4f565b604082019050919050565b60006020820190508181036000830152612ada81612a9e565b9050919050565b7f4552433732313a20617070726f76652063616c6c6572206973206e6f74206f7760008201527f6e6572206e6f7220617070726f76656420666f7220616c6c0000000000000000602082015250565b6000612b3d603883612483565b9150612b4882612ae1565b604082019050919050565b60006020820190508181036000830152612b6c81612b30565b9050919050565b7f4552433732313a207472616e736665722063616c6c6572206973206e6f74206f60008201527f776e6572206e6f7220617070726f766564000000000000000000000000000000602082015250565b6000612bcf603183612483565b9150612bda82612b73565b604082019050919050565b60006020820190508181036000830152612bfe81612bc2565b9050919050565b7f4552433732313a206f776e657220717565727920666f72206e6f6e657869737460008201527f656e7420746f6b656e0000000000000000000000000000000000000000000000602082015250565b6000612c61602983612483565b9150612c6c82612c05565b604082019050919050565b60006020820190508181036000830152612c9081612c54565b9050919050565b7f4552433732313a2062616c616e636520717565727920666f7220746865207a6560008201527f726f206164647265737300000000000000000000000000000000000000000000602082015250565b6000612cf3602a83612483565b9150612cfe82612c97565b604082019050919050565b60006020820190508181036000830152612d2281612ce6565b9050919050565b7f4f776e61626c653a2063616c6c6572206973206e6f7420746865206f776e6572600082015250565b6000612d5f602083612483565b9150612d6a82612d29565b602082019050919050565b60006020820190508181036000830152612d8e81612d52565b9050919050565b7f4f776e61626c653a206e6577206f776e657220697320746865207a65726f206160008201527f6464726573730000000000000000000000000000000000000000000000000000602082015250565b6000612df1602683612483565b9150612dfc82612d95565b604082019050919050565b60006020820190508181036000830152612e2081612de4565b9050919050565b600081905092915050565b7f646174613a6170706c69636174696f6e2f6a736f6e3b6261736536342c000000600082015250565b6000612e68601d83612e27565b9150612e7382612e32565b601d82019050919050565b6000612e8982612478565b612e938185612e27565b9350612ea3818560208601612494565b80840191505092915050565b6000612eba82612e5b565b9150612ec68284612e7e565b915081905092915050565b7f45524337323155524953746f726167653a2055524920736574206f66206e6f6e60008201527f6578697374656e7420746f6b656e000000000000000000000000000000000000602082015250565b6000612f2d602e83612483565b9150612f3882612ed1565b604082019050919050565b60006020820190508181036000830152612f5c81612f20565b9050919050565b7f4552433732313a206f70657261746f7220717565727920666f72206e6f6e657860008201527f697374656e7420746f6b656e0000000000000000000000000000000000000000602082015250565b6000612fbf602c83612483565b9150612fca82612f63565b604082019050919050565b60006020820190508181036000830152612fee81612fb2565b9050919050565b6000815190506130048161252c565b92915050565b6000602082840312156130205761301f6121f5565b5b600061302e84828501612ff5565b91505092915050565b7f5468652073656e64657220646f6573206e6f74206861766520656e6f7567682060008201527f726f79616c747920746f6b656e73000000000000000000000000000000000000602082015250565b6000613093602e83612483565b915061309e82613037565b604082019050919050565b600060208201905081810360008301526130c281613086565b9050919050565b60006060820190506130de60008301866125b7565b6130eb60208301856125b7565b6130f860408301846126a0565b949350505050565b60008151905061310f816126f7565b92915050565b60006020828403121561312b5761312a6121f5565b5b600061313984828501613100565b91505092915050565b7f4552433732313a207472616e73666572206f6620746f6b656e2074686174206960008201527f73206e6f74206f776e0000000000000000000000000000000000000000000000602082015250565b600061319e602983612483565b91506131a982613142565b604082019050919050565b600060208201905081810360008301526131cd81613191565b9050919050565b7f4552433732313a207472616e7366657220746f20746865207a65726f2061646460008201527f7265737300000000000000000000000000000000000000000000000000000000602082015250565b6000613230602483612483565b915061323b826131d4565b604082019050919050565b6000602082019050818103600083015261325f81613223565b9050919050565b7f4e487b7100000000000000000000000000000000000000000000000000000000600052601160045260246000fd5b60006132a082612522565b91506132ab83612522565b9250828210156132be576132bd613266565b5b828203905092915050565b60006132d482612522565b91506132df83612522565b9250827fffffffffffffffffffffffffffffffffffffffffffffffffffffffffffffffff0382111561331457613313613266565b5b828201905092915050565b7f4552433732313a20617070726f766520746f2063616c6c657200000000000000600082015250565b6000613355601983612483565b91506133608261331f565b602082019050919050565b6000602082019050818103600083015261338481613348565b9050919050565b7f4552433732313a207472616e7366657220746f206e6f6e20455243373231526560008201527f63656976657220696d706c656d656e7465720000000000000000000000000000602082015250565b60006133e7603283612483565b91506133f28261338b565b604082019050919050565b60006020820190508181036000830152613416816133da565b9050919050565b7f45524337323155524953746f726167653a2055524920717565727920666f722060008201527f6e6f6e6578697374656e7420746f6b656e000000000000000000000000000000602082015250565b6000613479603183612483565b91506134848261341d565b604082019050919050565b600060208201905081810360008301526134a88161346c565b9050919050565b60006134bb8285612e7e565b91506134c78284612e7e565b91508190509392505050565b7f7b226e616d65223a202200000000000000000000000000000000000000000000600082015250565b6000613509600a83612e27565b9150613514826134d3565b600a82019050919050565b7f222c20226465736372697074696f6e223a202200000000000000000000000000600082015250565b6000613555601383612e27565b91506135608261351f565b601382019050919050565b7f222c2022696d616765223a2022646174613a696d6167652f7376672b786d6c3b60008201527f6261736536342c00000000000000000000000000000000000000000000000000602082015250565b60006135c7602783612e27565b91506135d28261356b565b602782019050919050565b7f227d000000000000000000000000000000000000000000000000000000000000600082015250565b6000613613600283612e27565b915061361e826135dd565b600282019050919050565b6000613634826134fc565b91506136408286612e7e565b915061364b82613548565b91506136578285612e7e565b9150613662826135ba565b915061366e8284612e7e565b915061367982613606565b9150819050949350505050565b600081519050919050565b600082825260208201905092915050565b60006136ad82613686565b6136b78185613691565b93506136c7818560208601612494565b6136d0816122c4565b840191505092915050565b60006080820190506136f060008301876125b7565b6136fd60208301866125b7565b61370a60408301856126a0565b818103606083015261371c81846136a2565b905095945050505050565b6000815190506137368161222b565b92915050565b600060208284031215613752576137516121f5565b5b600061376084828501613727565b91505092915050565b7f4552433732314d657461646174613a2055524920717565727920666f72206e6f60008201527f6e6578697374656e7420746f6b656e0000000000000000000000000000000000602082015250565b60006137c5602f83612483565b91506137d082613769565b604082019050919050565b600060208201905081810360008301526137f4816137b8565b9050919050565b7f4552433732313a206d696e7420746f20746865207a65726f2061646472657373600082015250565b6000613831602083612483565b915061383c826137fb565b602082019050919050565b6000602082019050818103600083015261386081613824565b9050919050565b7f4552433732313a20746f6b656e20616c7265616479206d696e74656400000000600082015250565b600061389d601c83612483565b91506138a882613867565b602082019050919050565b600060208201905081810360008301526138cc81613890565b9050919050565b60008190508160005260206000209050919050565b600081546138f58161298b565b6138ff8186612e27565b9450600182166000811461391a576001811461392b5761395e565b60ff1983168652818601935061395e565b613934856138d3565b60005b8381101561395657815481890152600182019150602081019050613937565b838801955050505b50505092915050565b600061397382866138e8565b915061397f8285612e7e565b915061398b82846138e8565b9150819050949350505050565b7f4e487b7100000000000000000000000000000000000000000000000000000000600052601260045260246000fd5b60006139d282612522565b91506139dd83612522565b9250826139ed576139ec613998565b5b828204905092915050565b6000613a0382612522565b9150613a0e83612522565b9250817fffffffffffffffffffffffffffffffffffffffffffffffffffffffffffffffff0483118215151615613a4757613a46613266565b5b828202905092915050565b6000613a5d82612522565b91507fffffffffffffffffffffffffffffffffffffffffffffffffffffffffffffffff821415613a9057613a8f613266565b5b600182019050919050565b6000613aa682612522565b9150613ab183612522565b925082613ac157613ac0613998565b5b828206905092915050565b7f4e487b7100000000000000000000000000000000000000000000000000000000600052603260045260246000fdfe4142434445464748494a4b4c4d4e4f505152535455565758595a6162636465666768696a6b6c6d6e6f707172737475767778797a303132333435363738392b2fa264697066735822122093e835167a60435b8fdcaf2b6ef04205a3172bfd5e1190e1677f811156abc28264736f6c634300080b00333c73766720786d6c6e733d27687474703a2f2f7777772e77332e6f72672f323030302f73766727207072657365727665417370656374526174696f3d27784d696e594d696e206d656574272076696577426f783d273020302033353020333530273e3c7374796c653e2e62617365207b2066696c6c3a2077686974653b20666f6e742d66616d696c793a2073657269663b20666f6e742d73697a653a20323470783b207d3c2f7374796c653e3c726563742077696474683d273130302527206865696768743d2731303025272066696c6c3d27626c61636b27202f3e3c7465787420783d273530252720793d273530252720636c6173733d27626173652720646f6d696e616e742d626173656c696e653d276d6964646c652720746578742d616e63686f723d276d6964646c65273e",
  "linkReferences": {},
  "deployedLinkReferences": {}
}