{
  "_format": "hh-sol-artifact-1",
  "contractName": "EpicNFT",
  "sourceName": "contracts/EpicNFT.sol",
  "abi": [
    {
      "inputs": [],
      "stateMutability": "nonpayable",
      "type": "constructor"
    },
    {
      "anonymous": false,
      "inputs": [
        {
          "indexed": true,
          "internalType": "address",
          "name": "owner",
          "type": "address"
        },
        {
          "indexed": true,
          "internalType": "address",
          "name": "approved",
          "type": "address"
        },
        {
          "indexed": true,
          "internalType": "uint256",
          "name": "tokenId",
          "type": "uint256"
        }
      ],
      "name": "Approval",
      "type": "event"
    },
    {
      "anonymous": false,
      "inputs": [
        {
          "indexed": true,
          "internalType": "address",
          "name": "owner",
          "type": "address"
        },
        {
          "indexed": true,
          "internalType": "address",
          "name": "operator",
          "type": "address"
        },
        {
          "indexed": false,
          "internalType": "bool",
          "name": "approved",
          "type": "bool"
        }
      ],
      "name": "ApprovalForAll",
      "type": "event"
    },
    {
      "anonymous": false,
      "inputs": [
        {
          "indexed": false,
          "internalType": "address",
          "name": "sender",
          "type": "address"
        },
        {
          "indexed": false,
          "internalType": "uint256",
          "name": "tokenId",
          "type": "uint256"
        }
      ],
      "name": "NewEpicNFTMinted",
      "type": "event"
    },
    {
      "anonymous": false,
      "inputs": [
        {
          "indexed": true,
          "internalType": "address",
          "name": "previousOwner",
          "type": "address"
        },
        {
          "indexed": true,
          "internalType": "address",
          "name": "newOwner",
          "type": "address"
        }
      ],
      "name": "OwnershipTransferred",
      "type": "event"
    },
    {
      "anonymous": false,
      "inputs": [
        {
          "indexed": true,
          "internalType": "address",
          "name": "from",
          "type": "address"
        },
        {
          "indexed": true,
          "internalType": "address",
          "name": "to",
          "type": "address"
        },
        {
          "indexed": true,
          "internalType": "uint256",
          "name": "tokenId",
          "type": "uint256"
        }
      ],
      "name": "Transfer",
      "type": "event"
    },
    {
      "inputs": [
        {
          "internalType": "address",
          "name": "to",
          "type": "address"
        },
        {
          "internalType": "uint256",
          "name": "tokenId",
          "type": "uint256"
        }
      ],
      "name": "approve",
      "outputs": [],
      "stateMutability": "nonpayable",
      "type": "function"
    },
    {
      "inputs": [
        {
          "internalType": "address",
          "name": "owner",
          "type": "address"
        }
      ],
      "name": "balanceOf",
      "outputs": [
        {
          "internalType": "uint256",
          "name": "",
          "type": "uint256"
        }
      ],
      "stateMutability": "view",
      "type": "function"
    },
    {
      "inputs": [
        {
          "internalType": "uint256",
          "name": "tokenId",
          "type": "uint256"
        }
      ],
      "name": "getApproved",
      "outputs": [
        {
          "internalType": "address",
          "name": "",
          "type": "address"
        }
      ],
      "stateMutability": "view",
      "type": "function"
    },
    {
      "inputs": [
        {
          "internalType": "address",
          "name": "owner",
          "type": "address"
        },
        {
          "internalType": "address",
          "name": "operator",
          "type": "address"
        }
      ],
      "name": "isApprovedForAll",
      "outputs": [
        {
          "internalType": "bool",
          "name": "",
          "type": "bool"
        }
      ],
      "stateMutability": "view",
      "type": "function"
    },
    {
      "inputs": [],
      "name": "makeAnEpicNFT",
      "outputs": [],
      "stateMutability": "nonpayable",
      "type": "function"
    },
    {
      "inputs": [],
      "name": "name",
      "outputs": [
        {
          "internalType": "string",
          "name": "",
          "type": "string"
        }
      ],
      "stateMutability": "view",
      "type": "function"
    },
    {
      "inputs": [],
      "name": "owner",
      "outputs": [
        {
          "internalType": "address",
          "name": "",
          "type": "address"
        }
      ],
      "stateMutability": "view",
      "type": "function"
    },
    {
      "inputs": [
        {
          "internalType": "uint256",
          "name": "tokenId",
          "type": "uint256"
        }
      ],
      "name": "ownerOf",
      "outputs": [
        {
          "internalType": "address",
          "name": "",
          "type": "address"
        }
      ],
      "stateMutability": "view",
      "type": "function"
    },
    {
      "inputs": [],
      "name": "renounceOwnership",
      "outputs": [],
      "stateMutability": "nonpayable",
      "type": "function"
    },
    {
      "inputs": [
        {
          "internalType": "address",
          "name": "from",
          "type": "address"
        },
        {
          "internalType": "address",
          "name": "to",
          "type": "address"
        },
        {
          "internalType": "uint256",
          "name": "tokenId",
          "type": "uint256"
        }
      ],
      "name": "safeTransferFrom",
      "outputs": [],
      "stateMutability": "nonpayable",
      "type": "function"
    },
    {
      "inputs": [
        {
          "internalType": "address",
          "name": "from",
          "type": "address"
        },
        {
          "internalType": "address",
          "name": "to",
          "type": "address"
        },
        {
          "internalType": "uint256",
          "name": "tokenId",
          "type": "uint256"
        },
        {
          "internalType": "bytes",
          "name": "_data",
          "type": "bytes"
        }
      ],
      "name": "safeTransferFrom",
      "outputs": [],
      "stateMutability": "nonpayable",
      "type": "function"
    },
    {
      "inputs": [
        {
          "internalType": "address",
          "name": "operator",
          "type": "address"
        },
        {
          "internalType": "bool",
          "name": "approved",
          "type": "bool"
        }
      ],
      "name": "setApprovalForAll",
      "outputs": [],
      "stateMutability": "nonpayable",
      "type": "function"
    },
    {
      "inputs": [
        {
          "internalType": "bytes4",
          "name": "interfaceId",
          "type": "bytes4"
        }
      ],
      "name": "supportsInterface",
      "outputs": [
        {
          "internalType": "bool",
          "name": "",
          "type": "bool"
        }
      ],
      "stateMutability": "view",
      "type": "function"
    },
    {
      "inputs": [],
      "name": "symbol",
      "outputs": [
        {
          "internalType": "string",
          "name": "",
          "type": "string"
        }
      ],
      "stateMutability": "view",
      "type": "function"
    },
    {
      "inputs": [
        {
          "internalType": "uint256",
          "name": "tokenId",
          "type": "uint256"
        }
      ],
      "name": "tokenURI",
      "outputs": [
        {
          "internalType": "string",
          "name": "",
          "type": "string"
        }
      ],
      "stateMutability": "view",
      "type": "function"
    },
    {
      "inputs": [
        {
          "internalType": "address",
          "name": "from",
          "type": "address"
        },
        {
          "internalType": "address",
          "name": "to",
          "type": "address"
        },
        {
          "internalType": "uint256",
          "name": "tokenId",
          "type": "uint256"
        }
      ],
      "name": "transferFrom",
      "outputs": [],
      "stateMutability": "nonpayable",
      "type": "function"
    },
    {
      "inputs": [
        {
          "internalType": "address",
          "name": "newOwner",
          "type": "address"
        }
      ],
      "name": "transferOwnership",
      "outputs": [],
      "stateMutability": "nonpayable",
      "type": "function"
    }
  ],
  "bytecode": "0x608060405260405180610160016040528061012f81526020016200448761012f913960099080519060200190620000389291906200096a565b506040518060400160405280600d81526020017f3c2f746578743e3c2f7376673e00000000000000000000000000000000000000815250600a9080519060200190620000869291906200096a565b506040518061014001604052806040518060400160405280600481526020017f436174730000000000000000000000000000000000000000000000000000000081525081526020016040518060400160405280600481526020017f446f67730000000000000000000000000000000000000000000000000000000081525081526020016040518060400160405280600681526020017f486f72736573000000000000000000000000000000000000000000000000000081525081526020016040518060400160405280600581526020017f42756c6c7300000000000000000000000000000000000000000000000000000081525081526020016040518060400160405280600581526020017f426561727300000000000000000000000000000000000000000000000000000081525081526020016040518060400160405280600881526020017f436869636b656e7300000000000000000000000000000000000000000000000081525081526020016040518060400160405280600481526020017f526174730000000000000000000000000000000000000000000000000000000081525081526020016040518060400160405280600781526020017f526162626974730000000000000000000000000000000000000000000000000081525081526020016040518060400160405280600681526020017f536e616b6573000000000000000000000000000000000000000000000000000081525081526020016040518060400160405280600681526020017f5768616c65730000000000000000000000000000000000000000000000000000815250815250600b90600a620002f1929190620009fb565b506040518061014001604052806040518060400160405280600481526020017f4c696b650000000000000000000000000000000000000000000000000000000081525081526020016040518060400160405280600481526020017f4c6f76650000000000000000000000000000000000000000000000000000000081525081526020016040518060400160405280600481526020017f486174650000000000000000000000000000000000000000000000000000000081525081526020016040518060400160405280600481526020017f4b696c6c0000000000000000000000000000000000000000000000000000000081525081526020016040518060400160405280600381526020017f456174000000000000000000000000000000000000000000000000000000000081525081526020016040518060400160405280600781526020017f44697374726f790000000000000000000000000000000000000000000000000081525081526020016040518060400160405280600781526020017f4162616e646f6e0000000000000000000000000000000000000000000000000081525081526020016040518060400160405280600481526020017f426561740000000000000000000000000000000000000000000000000000000081525081526020016040518060400160405280600581526020017f50756e636800000000000000000000000000000000000000000000000000000081525081526020016040518060400160405280600581526020017f4275696c64000000000000000000000000000000000000000000000000000000815250815250600c90600a6200055c929190620009fb565b506040518061014001604052806040518060400160405280600781526020017f426974636f696e0000000000000000000000000000000000000000000000000081525081526020016040518060400160405280600881526020017f457468657265756d00000000000000000000000000000000000000000000000081525081526020016040518060400160405280600881526020017f506f6c6b61646f7400000000000000000000000000000000000000000000000081525081526020016040518060400160405280600781526020017f43617264616e6f0000000000000000000000000000000000000000000000000081525081526020016040518060400160405280600681526020017f536f6c616e61000000000000000000000000000000000000000000000000000081525081526020016040518060400160405280600581526020017f546572726100000000000000000000000000000000000000000000000000000081525081526020016040518060400160405280600981526020017f4176616c616e636865000000000000000000000000000000000000000000000081525081526020016040518060400160405280600681526020017f456c726f6e64000000000000000000000000000000000000000000000000000081525081526020016040518060400160405280600781526020017f506f6c79676f6e0000000000000000000000000000000000000000000000000081525081526020016040518060400160405280600681526020017f46616e746f6d0000000000000000000000000000000000000000000000000000815250815250600d90600a620007c7929190620009fb565b50348015620007d557600080fd5b506040518060400160405280600481526020017f45706963000000000000000000000000000000000000000000000000000000008152506040518060400160405280600381526020017f455043000000000000000000000000000000000000000000000000000000000081525081600090805190602001906200085a9291906200096a565b508060019080519060200190620008739291906200096a565b505050620008966200088a6200089c60201b60201c565b620008a460201b60201c565b62000b54565b600033905090565b6000600760009054906101000a900473ffffffffffffffffffffffffffffffffffffffff16905081600760006101000a81548173ffffffffffffffffffffffffffffffffffffffff021916908373ffffffffffffffffffffffffffffffffffffffff1602179055508173ffffffffffffffffffffffffffffffffffffffff168173ffffffffffffffffffffffffffffffffffffffff167f8be0079c531659141344cd1fd0a4f28419497f9722a3daafe3b4186f6b6457e060405160405180910390a35050565b828054620009789062000b1e565b90600052602060002090601f0160209004810192826200099c5760008555620009e8565b82601f10620009b757805160ff1916838001178555620009e8565b82800160010185558215620009e8579182015b82811115620009e7578251825591602001919060010190620009ca565b5b509050620009f7919062000a62565b5090565b82805482825590600052602060002090810192821562000a4f579160200282015b8281111562000a4e57825182908051906020019062000a3d9291906200096a565b509160200191906001019062000a1c565b5b50905062000a5e919062000a81565b5090565b5b8082111562000a7d57600081600090555060010162000a63565b5090565b5b8082111562000aa5576000818162000a9b919062000aa9565b5060010162000a82565b5090565b50805462000ab79062000b1e565b6000825580601f1062000acb575062000aec565b601f01602090049060005260206000209081019062000aeb919062000a62565b5b50565b7f4e487b7100000000000000000000000000000000000000000000000000000000600052602260045260246000fd5b6000600282049050600182168062000b3757607f821691505b6020821081141562000b4e5762000b4d62000aef565b5b50919050565b6139238062000b646000396000f3fe608060405234801561001057600080fd5b506004361061010b5760003560e01c8063715018a6116100a2578063b88d4fde11610071578063b88d4fde146102a4578063c87b56dd146102c0578063de9d132f146102f0578063e985e9c5146102fa578063f2fde38b1461032a5761010b565b8063715018a6146102425780638da5cb5b1461024c57806395d89b411461026a578063a22cb465146102885761010b565b806323b872dd116100de57806323b872dd146101aa57806342842e0e146101c65780636352211e146101e257806370a08231146102125761010b565b806301ffc9a71461011057806306fdde0314610140578063081812fc1461015e578063095ea7b31461018e575b600080fd5b61012a600480360381019061012591906122d1565b610346565b6040516101379190612319565b60405180910390f35b610148610428565b60405161015591906123cd565b60405180910390f35b61017860048036038101906101739190612425565b6104ba565b6040516101859190612493565b60405180910390f35b6101a860048036038101906101a391906124da565b61053f565b005b6101c460048036038101906101bf919061251a565b610657565b005b6101e060048036038101906101db919061251a565b6106b7565b005b6101fc60048036038101906101f79190612425565b6106d7565b6040516102099190612493565b60405180910390f35b61022c6004803603810190610227919061256d565b610789565b60405161023991906125a9565b60405180910390f35b61024a610841565b005b6102546108c9565b6040516102619190612493565b60405180910390f35b6102726108f3565b60405161027f91906123cd565b60405180910390f35b6102a2600480360381019061029d91906125f0565b610985565b005b6102be60048036038101906102b99190612765565b61099b565b005b6102da60048036038101906102d59190612425565b6109fd565b6040516102e791906123cd565b60405180910390f35b6102f8610a0f565b005b610314600480360381019061030f91906127e8565b610bcd565b6040516103219190612319565b60405180910390f35b610344600480360381019061033f919061256d565b610c61565b005b60007f80ac58cd000000000000000000000000000000000000000000000000000000007bffffffffffffffffffffffffffffffffffffffffffffffffffffffff1916827bffffffffffffffffffffffffffffffffffffffffffffffffffffffff1916148061041157507f5b5e139f000000000000000000000000000000000000000000000000000000007bffffffffffffffffffffffffffffffffffffffffffffffffffffffff1916827bffffffffffffffffffffffffffffffffffffffffffffffffffffffff1916145b80610421575061042082610d59565b5b9050919050565b60606000805461043790612857565b80601f016020809104026020016040519081016040528092919081815260200182805461046390612857565b80156104b05780601f10610485576101008083540402835291602001916104b0565b820191906000526020600020905b81548152906001019060200180831161049357829003601f168201915b5050505050905090565b60006104c582610dc3565b610504576040517f08c379a00000000000000000000000000000000000000000000000000000000081526004016104fb906128fb565b60405180910390fd5b6004600083815260200190815260200160002060009054906101000a900473ffffffffffffffffffffffffffffffffffffffff169050919050565b600061054a826106d7565b90508073ffffffffffffffffffffffffffffffffffffffff168373ffffffffffffffffffffffffffffffffffffffff1614156105bb576040517f08c379a00000000000000000000000000000000000000000000000000000000081526004016105b29061298d565b60405180910390fd5b8073ffffffffffffffffffffffffffffffffffffffff166105da610e2f565b73ffffffffffffffffffffffffffffffffffffffff161480610609575061060881610603610e2f565b610bcd565b5b610648576040517f08c379a000000000000000000000000000000000000000000000000000000000815260040161063f90612a1f565b60405180910390fd5b6106528383610e37565b505050565b610668610662610e2f565b82610ef0565b6106a7576040517f08c379a000000000000000000000000000000000000000000000000000000000815260040161069e90612ab1565b60405180910390fd5b6106b2838383610fce565b505050565b6106d28383836040518060200160405280600081525061099b565b505050565b6000806002600084815260200190815260200160002060009054906101000a900473ffffffffffffffffffffffffffffffffffffffff169050600073ffffffffffffffffffffffffffffffffffffffff168173ffffffffffffffffffffffffffffffffffffffff161415610780576040517f08c379a000000000000000000000000000000000000000000000000000000000815260040161077790612b43565b60405180910390fd5b80915050919050565b60008073ffffffffffffffffffffffffffffffffffffffff168273ffffffffffffffffffffffffffffffffffffffff1614156107fa576040517f08c379a00000000000000000000000000000000000000000000000000000000081526004016107f190612bd5565b60405180910390fd5b600360008373ffffffffffffffffffffffffffffffffffffffff1673ffffffffffffffffffffffffffffffffffffffff168152602001908152602001600020549050919050565b610849610e2f565b73ffffffffffffffffffffffffffffffffffffffff166108676108c9565b73ffffffffffffffffffffffffffffffffffffffff16146108bd576040517f08c379a00000000000000000000000000000000000000000000000000000000081526004016108b490612c41565b60405180910390fd5b6108c7600061122a565b565b6000600760009054906101000a900473ffffffffffffffffffffffffffffffffffffffff16905090565b60606001805461090290612857565b80601f016020809104026020016040519081016040528092919081815260200182805461092e90612857565b801561097b5780601f106109505761010080835404028352916020019161097b565b820191906000526020600020905b81548152906001019060200180831161095e57829003601f168201915b5050505050905090565b610997610990610e2f565b83836112f0565b5050565b6109ac6109a6610e2f565b83610ef0565b6109eb576040517f08c379a00000000000000000000000000000000000000000000000000000000081526004016109e290612ab1565b60405180910390fd5b6109f78484848461145d565b50505050565b6060610a08826114b9565b9050919050565b610a17610e2f565b73ffffffffffffffffffffffffffffffffffffffff16610a356108c9565b73ffffffffffffffffffffffffffffffffffffffff1614610a8b576040517f08c379a0000000000000000000000000000000000000000000000000000000008152600401610a8290612c41565b60405180910390fd5b6000610a97600861160b565b9050610aa36008611619565b610aad338261162f565b6000610ab88261164d565b90506000610ac583611754565b90506000610ad28461185b565b90506000838383604051602001610aeb93929190612c9d565b60405160208183030381529060405290506000600982600a604051602001610b1593929190612d62565b60405160208183030381529060405290506000610b5a83610b3584611962565b604051602001610b46929190612ec3565b604051602081830303815290604052611962565b9050600081604051602001610b6f9190612f54565b6040516020818303038152906040529050610b8a8882611afa565b7febb98688741ffa4c7589bf325de30cf7becb63de567842e1ccdb6cb949fdc82c3389604051610bbb929190612f76565b60405180910390a15050505050505050565b6000600560008473ffffffffffffffffffffffffffffffffffffffff1673ffffffffffffffffffffffffffffffffffffffff16815260200190815260200160002060008373ffffffffffffffffffffffffffffffffffffffff1673ffffffffffffffffffffffffffffffffffffffff16815260200190815260200160002060009054906101000a900460ff16905092915050565b610c69610e2f565b73ffffffffffffffffffffffffffffffffffffffff16610c876108c9565b73ffffffffffffffffffffffffffffffffffffffff1614610cdd576040517f08c379a0000000000000000000000000000000000000000000000000000000008152600401610cd490612c41565b60405180910390fd5b600073ffffffffffffffffffffffffffffffffffffffff168173ffffffffffffffffffffffffffffffffffffffff161415610d4d576040517f08c379a0000000000000000000000000000000000000000000000000000000008152600401610d4490613011565b60405180910390fd5b610d568161122a565b50565b60007f01ffc9a7000000000000000000000000000000000000000000000000000000007bffffffffffffffffffffffffffffffffffffffffffffffffffffffff1916827bffffffffffffffffffffffffffffffffffffffffffffffffffffffff1916149050919050565b60008073ffffffffffffffffffffffffffffffffffffffff166002600084815260200190815260200160002060009054906101000a900473ffffffffffffffffffffffffffffffffffffffff1673ffffffffffffffffffffffffffffffffffffffff1614159050919050565b600033905090565b816004600083815260200190815260200160002060006101000a81548173ffffffffffffffffffffffffffffffffffffffff021916908373ffffffffffffffffffffffffffffffffffffffff160217905550808273ffffffffffffffffffffffffffffffffffffffff16610eaa836106d7565b73ffffffffffffffffffffffffffffffffffffffff167f8c5be1e5ebec7d5bd14f71427d1e84f3dd0314c0f7b2291e5b200ac8c7c3b92560405160405180910390a45050565b6000610efb82610dc3565b610f3a576040517f08c379a0000000000000000000000000000000000000000000000000000000008152600401610f31906130a3565b60405180910390fd5b6000610f45836106d7565b90508073ffffffffffffffffffffffffffffffffffffffff168473ffffffffffffffffffffffffffffffffffffffff161480610fb457508373ffffffffffffffffffffffffffffffffffffffff16610f9c846104ba565b73ffffffffffffffffffffffffffffffffffffffff16145b80610fc55750610fc48185610bcd565b5b91505092915050565b8273ffffffffffffffffffffffffffffffffffffffff16610fee826106d7565b73ffffffffffffffffffffffffffffffffffffffff1614611044576040517f08c379a000000000000000000000000000000000000000000000000000000000815260040161103b90613135565b60405180910390fd5b600073ffffffffffffffffffffffffffffffffffffffff168273ffffffffffffffffffffffffffffffffffffffff1614156110b4576040517f08c379a00000000000000000000000000000000000000000000000000000000081526004016110ab906131c7565b60405180910390fd5b6110bf838383611b6e565b6110ca600082610e37565b6001600360008573ffffffffffffffffffffffffffffffffffffffff1673ffffffffffffffffffffffffffffffffffffffff168152602001908152602001600020600082825461111a9190613216565b925050819055506001600360008473ffffffffffffffffffffffffffffffffffffffff1673ffffffffffffffffffffffffffffffffffffffff1681526020019081526020016000206000828254611171919061324a565b92505081905550816002600083815260200190815260200160002060006101000a81548173ffffffffffffffffffffffffffffffffffffffff021916908373ffffffffffffffffffffffffffffffffffffffff160217905550808273ffffffffffffffffffffffffffffffffffffffff168473ffffffffffffffffffffffffffffffffffffffff167fddf252ad1be2c89b69c2b068fc378daa952ba7f163c4a11628f55a4df523b3ef60405160405180910390a4505050565b6000600760009054906101000a900473ffffffffffffffffffffffffffffffffffffffff16905081600760006101000a81548173ffffffffffffffffffffffffffffffffffffffff021916908373ffffffffffffffffffffffffffffffffffffffff1602179055508173ffffffffffffffffffffffffffffffffffffffff168173ffffffffffffffffffffffffffffffffffffffff167f8be0079c531659141344cd1fd0a4f28419497f9722a3daafe3b4186f6b6457e060405160405180910390a35050565b8173ffffffffffffffffffffffffffffffffffffffff168373ffffffffffffffffffffffffffffffffffffffff16141561135f576040517f08c379a0000000000000000000000000000000000000000000000000000000008152600401611356906132ec565b60405180910390fd5b80600560008573ffffffffffffffffffffffffffffffffffffffff1673ffffffffffffffffffffffffffffffffffffffff16815260200190815260200160002060008473ffffffffffffffffffffffffffffffffffffffff1673ffffffffffffffffffffffffffffffffffffffff16815260200190815260200160002060006101000a81548160ff0219169083151502179055508173ffffffffffffffffffffffffffffffffffffffff168373ffffffffffffffffffffffffffffffffffffffff167f17307eab39ab6107e8899845ad3d59bd9653f200f220920489ca2b5937696c31836040516114509190612319565b60405180910390a3505050565b611468848484610fce565b61147484848484611b73565b6114b3576040517f08c379a00000000000000000000000000000000000000000000000000000000081526004016114aa9061337e565b60405180910390fd5b50505050565b60606114c482610dc3565b611503576040517f08c379a00000000000000000000000000000000000000000000000000000000081526004016114fa90613410565b60405180910390fd5b600060066000848152602001908152602001600020805461152390612857565b80601f016020809104026020016040519081016040528092919081815260200182805461154f90612857565b801561159c5780601f106115715761010080835404028352916020019161159c565b820191906000526020600020905b81548152906001019060200180831161157f57829003601f168201915b5050505050905060006115ad611cfb565b90506000815114156115c3578192505050611606565b6000825111156115f85780826040516020016115e0929190613430565b60405160208183030381529060405292505050611606565b61160184611d12565b925050505b919050565b600081600001549050919050565b6001816000016000828254019250508190555050565b611649828260405180602001604052806000815250611db9565b5050565b606060006116906040518060400160405280600a81526020017f46495253545f574f52440000000000000000000000000000000000000000000081525084611e14565b9050600b80549050816116a39190613483565b9050600b81815481106116b9576116b86134b4565b5b9060005260206000200180546116ce90612857565b80601f01602080910402602001604051908101604052809291908181526020018280546116fa90612857565b80156117475780601f1061171c57610100808354040283529160200191611747565b820191906000526020600020905b81548152906001019060200180831161172a57829003601f168201915b5050505050915050919050565b606060006117976040518060400160405280600b81526020017f5345434f4e445f574f524400000000000000000000000000000000000000000081525084611e14565b9050600c80549050816117aa9190613483565b9050600c81815481106117c0576117bf6134b4565b5b9060005260206000200180546117d590612857565b80601f016020809104026020016040519081016040528092919081815260200182805461180190612857565b801561184e5780601f106118235761010080835404028352916020019161184e565b820191906000526020600020905b81548152906001019060200180831161183157829003601f168201915b5050505050915050919050565b6060600061189e6040518060400160405280600a81526020017f54484952445f574f52440000000000000000000000000000000000000000000081525084611e14565b9050600d80549050816118b19190613483565b9050600d81815481106118c7576118c66134b4565b5b9060005260206000200180546118dc90612857565b80601f016020809104026020016040519081016040528092919081815260200182805461190890612857565b80156119555780601f1061192a57610100808354040283529160200191611955565b820191906000526020600020905b81548152906001019060200180831161193857829003601f168201915b5050505050915050919050565b6060600082519050600081141561198b5760405180602001604052806000815250915050611af5565b6000600360028361199c919061324a565b6119a691906134e3565b60046119b29190613514565b905060006020826119c3919061324a565b67ffffffffffffffff8111156119dc576119db61263a565b5b6040519080825280601f01601f191660200182016040528015611a0e5781602001600182028036833780820191505090505b50905060006040518060600160405280604081526020016138ae604091399050600181016020830160005b86811015611ab25760038101905062ffffff818a015116603f8160121c168401518060081b905060ff603f83600c1c1686015116810190508060081b905060ff603f8360061c1686015116810190508060081b905060ff603f831686015116810190508060e01b90508084526004840193505050611a39565b506003860660018114611acc5760028114611adc57611ae7565b613d3d60f01b6002830352611ae7565b603d60f81b60018303525b508484525050819450505050505b919050565b611b0382610dc3565b611b42576040517f08c379a0000000000000000000000000000000000000000000000000000000008152600401611b39906135e0565b60405180910390fd5b80600660008481526020019081526020016000209080519060200190611b699291906121c2565b505050565b505050565b6000611b948473ffffffffffffffffffffffffffffffffffffffff16611e80565b15611cee578373ffffffffffffffffffffffffffffffffffffffff1663150b7a02611bbd610e2f565b8786866040518563ffffffff1660e01b8152600401611bdf9493929190613655565b6020604051808303816000875af1925050508015611c1b57506040513d601f19601f82011682018060405250810190611c1891906136b6565b60015b611c9e573d8060008114611c4b576040519150601f19603f3d011682016040523d82523d6000602084013e611c50565b606091505b50600081511415611c96576040517f08c379a0000000000000000000000000000000000000000000000000000000008152600401611c8d9061337e565b60405180910390fd5b805181602001fd5b63150b7a0260e01b7bffffffffffffffffffffffffffffffffffffffffffffffffffffffff1916817bffffffffffffffffffffffffffffffffffffffffffffffffffffffff191614915050611cf3565b600190505b949350505050565b606060405180602001604052806000815250905090565b6060611d1d82610dc3565b611d5c576040517f08c379a0000000000000000000000000000000000000000000000000000000008152600401611d5390613755565b60405180910390fd5b6000611d66611cfb565b90506000815111611d865760405180602001604052806000815250611db1565b80611d9084611e93565b604051602001611da1929190613430565b6040516020818303038152906040525b915050919050565b611dc38383611ff4565b611dd06000848484611b73565b611e0f576040517f08c379a0000000000000000000000000000000000000000000000000000000008152600401611e069061337e565b60405180910390fd5b505050565b60008083611e2142611e93565b611e2a85611e93565b604051602001611e3c93929190612c9d565b604051602081830303815290604052905080604051602001611e5e9190613775565b6040516020818303038152906040528051906020012060001c91505092915050565b600080823b905060008111915050919050565b60606000821415611edb576040518060400160405280600181526020017f30000000000000000000000000000000000000000000000000000000000000008152509050611fef565b600082905060005b60008214611f0d578080611ef69061378c565b915050600a82611f0691906134e3565b9150611ee3565b60008167ffffffffffffffff811115611f2957611f2861263a565b5b6040519080825280601f01601f191660200182016040528015611f5b5781602001600182028036833780820191505090505b5090505b60008514611fe857600182611f749190613216565b9150600a85611f839190613483565b6030611f8f919061324a565b60f81b818381518110611fa557611fa46134b4565b5b60200101907effffffffffffffffffffffffffffffffffffffffffffffffffffffffffffff1916908160001a905350600a85611fe191906134e3565b9450611f5f565b8093505050505b919050565b600073ffffffffffffffffffffffffffffffffffffffff168273ffffffffffffffffffffffffffffffffffffffff161415612064576040517f08c379a000000000000000000000000000000000000000000000000000000000815260040161205b90613821565b60405180910390fd5b61206d81610dc3565b156120ad576040517f08c379a00000000000000000000000000000000000000000000000000000000081526004016120a49061388d565b60405180910390fd5b6120b960008383611b6e565b6001600360008473ffffffffffffffffffffffffffffffffffffffff1673ffffffffffffffffffffffffffffffffffffffff1681526020019081526020016000206000828254612109919061324a565b92505081905550816002600083815260200190815260200160002060006101000a81548173ffffffffffffffffffffffffffffffffffffffff021916908373ffffffffffffffffffffffffffffffffffffffff160217905550808273ffffffffffffffffffffffffffffffffffffffff16600073ffffffffffffffffffffffffffffffffffffffff167fddf252ad1be2c89b69c2b068fc378daa952ba7f163c4a11628f55a4df523b3ef60405160405180910390a45050565b8280546121ce90612857565b90600052602060002090601f0160209004810192826121f05760008555612237565b82601f1061220957805160ff1916838001178555612237565b82800160010185558215612237579182015b8281111561223657825182559160200191906001019061221b565b5b5090506122449190612248565b5090565b5b80821115612261576000816000905550600101612249565b5090565b6000604051905090565b600080fd5b600080fd5b60007fffffffff0000000000000000000000000000000000000000000000000000000082169050919050565b6122ae81612279565b81146122b957600080fd5b50565b6000813590506122cb816122a5565b92915050565b6000602082840312156122e7576122e661226f565b5b60006122f5848285016122bc565b91505092915050565b60008115159050919050565b612313816122fe565b82525050565b600060208201905061232e600083018461230a565b92915050565b600081519050919050565b600082825260208201905092915050565b60005b8381101561236e578082015181840152602081019050612353565b8381111561237d576000848401525b50505050565b6000601f19601f8301169050919050565b600061239f82612334565b6123a9818561233f565b93506123b9818560208601612350565b6123c281612383565b840191505092915050565b600060208201905081810360008301526123e78184612394565b905092915050565b6000819050919050565b612402816123ef565b811461240d57600080fd5b50565b60008135905061241f816123f9565b92915050565b60006020828403121561243b5761243a61226f565b5b600061244984828501612410565b91505092915050565b600073ffffffffffffffffffffffffffffffffffffffff82169050919050565b600061247d82612452565b9050919050565b61248d81612472565b82525050565b60006020820190506124a86000830184612484565b92915050565b6124b781612472565b81146124c257600080fd5b50565b6000813590506124d4816124ae565b92915050565b600080604083850312156124f1576124f061226f565b5b60006124ff858286016124c5565b925050602061251085828601612410565b9150509250929050565b6000806000606084860312156125335761253261226f565b5b6000612541868287016124c5565b9350506020612552868287016124c5565b925050604061256386828701612410565b9150509250925092565b6000602082840312156125835761258261226f565b5b6000612591848285016124c5565b91505092915050565b6125a3816123ef565b82525050565b60006020820190506125be600083018461259a565b92915050565b6125cd816122fe565b81146125d857600080fd5b50565b6000813590506125ea816125c4565b92915050565b600080604083850312156126075761260661226f565b5b6000612615858286016124c5565b9250506020612626858286016125db565b9150509250929050565b600080fd5b600080fd5b7f4e487b7100000000000000000000000000000000000000000000000000000000600052604160045260246000fd5b61267282612383565b810181811067ffffffffffffffff821117156126915761269061263a565b5b80604052505050565b60006126a4612265565b90506126b08282612669565b919050565b600067ffffffffffffffff8211156126d0576126cf61263a565b5b6126d982612383565b9050602081019050919050565b82818337600083830152505050565b6000612708612703846126b5565b61269a565b90508281526020810184848401111561272457612723612635565b5b61272f8482856126e6565b509392505050565b600082601f83011261274c5761274b612630565b5b813561275c8482602086016126f5565b91505092915050565b6000806000806080858703121561277f5761277e61226f565b5b600061278d878288016124c5565b945050602061279e878288016124c5565b93505060406127af87828801612410565b925050606085013567ffffffffffffffff8111156127d0576127cf612274565b5b6127dc87828801612737565b91505092959194509250565b600080604083850312156127ff576127fe61226f565b5b600061280d858286016124c5565b925050602061281e858286016124c5565b9150509250929050565b7f4e487b7100000000000000000000000000000000000000000000000000000000600052602260045260246000fd5b6000600282049050600182168061286f57607f821691505b6020821081141561288357612882612828565b5b50919050565b7f4552433732313a20617070726f76656420717565727920666f72206e6f6e657860008201527f697374656e7420746f6b656e0000000000000000000000000000000000000000602082015250565b60006128e5602c8361233f565b91506128f082612889565b604082019050919050565b60006020820190508181036000830152612914816128d8565b9050919050565b7f4552433732313a20617070726f76616c20746f2063757272656e74206f776e6560008201527f7200000000000000000000000000000000000000000000000000000000000000602082015250565b600061297760218361233f565b91506129828261291b565b604082019050919050565b600060208201905081810360008301526129a68161296a565b9050919050565b7f4552433732313a20617070726f76652063616c6c6572206973206e6f74206f7760008201527f6e6572206e6f7220617070726f76656420666f7220616c6c0000000000000000602082015250565b6000612a0960388361233f565b9150612a14826129ad565b604082019050919050565b60006020820190508181036000830152612a38816129fc565b9050919050565b7f4552433732313a207472616e736665722063616c6c6572206973206e6f74206f60008201527f776e6572206e6f7220617070726f766564000000000000000000000000000000602082015250565b6000612a9b60318361233f565b9150612aa682612a3f565b604082019050919050565b60006020820190508181036000830152612aca81612a8e565b9050919050565b7f4552433732313a206f776e657220717565727920666f72206e6f6e657869737460008201527f656e7420746f6b656e0000000000000000000000000000000000000000000000602082015250565b6000612b2d60298361233f565b9150612b3882612ad1565b604082019050919050565b60006020820190508181036000830152612b5c81612b20565b9050919050565b7f4552433732313a2062616c616e636520717565727920666f7220746865207a6560008201527f726f206164647265737300000000000000000000000000000000000000000000602082015250565b6000612bbf602a8361233f565b9150612bca82612b63565b604082019050919050565b60006020820190508181036000830152612bee81612bb2565b9050919050565b7f4f776e61626c653a2063616c6c6572206973206e6f7420746865206f776e6572600082015250565b6000612c2b60208361233f565b9150612c3682612bf5565b602082019050919050565b60006020820190508181036000830152612c5a81612c1e565b9050919050565b600081905092915050565b6000612c7782612334565b612c818185612c61565b9350612c91818560208601612350565b80840191505092915050565b6000612ca98286612c6c565b9150612cb58285612c6c565b9150612cc18284612c6c565b9150819050949350505050565b60008190508160005260206000209050919050565b60008154612cf081612857565b612cfa8186612c61565b94506001821660008114612d155760018114612d2657612d59565b60ff19831686528186019350612d59565b612d2f85612cce565b60005b83811015612d5157815481890152600182019150602081019050612d32565b838801955050505b50505092915050565b6000612d6e8286612ce3565b9150612d7a8285612c6c565b9150612d868284612ce3565b9150819050949350505050565b7f7b226e616d65223a202200000000000000000000000000000000000000000000600082015250565b6000612dc9600a83612c61565b9150612dd482612d93565b600a82019050919050565b7f222c20226465736372697074696f6e223a2022416e206570696320636f6c6c6560008201527f6374696f6e206f6620636f6f6c206e616d6573222c2022696d616765223a202260208201527f646174613a696d6167652f7376672b786d6c3b6261736536342c000000000000604082015250565b6000612e61605a83612c61565b9150612e6c82612ddf565b605a82019050919050565b7f227d000000000000000000000000000000000000000000000000000000000000600082015250565b6000612ead600283612c61565b9150612eb882612e77565b600282019050919050565b6000612ece82612dbc565b9150612eda8285612c6c565b9150612ee582612e54565b9150612ef18284612c6c565b9150612efc82612ea0565b91508190509392505050565b7f646174613a6170706c69636174696f6e2f6a736f6e3b6261736536342c000000600082015250565b6000612f3e601d83612c61565b9150612f4982612f08565b601d82019050919050565b6000612f5f82612f31565b9150612f6b8284612c6c565b915081905092915050565b6000604082019050612f8b6000830185612484565b612f98602083018461259a565b9392505050565b7f4f776e61626c653a206e6577206f776e657220697320746865207a65726f206160008201527f6464726573730000000000000000000000000000000000000000000000000000602082015250565b6000612ffb60268361233f565b915061300682612f9f565b604082019050919050565b6000602082019050818103600083015261302a81612fee565b9050919050565b7f4552433732313a206f70657261746f7220717565727920666f72206e6f6e657860008201527f697374656e7420746f6b656e0000000000000000000000000000000000000000602082015250565b600061308d602c8361233f565b915061309882613031565b604082019050919050565b600060208201905081810360008301526130bc81613080565b9050919050565b7f4552433732313a207472616e73666572206f6620746f6b656e2074686174206960008201527f73206e6f74206f776e0000000000000000000000000000000000000000000000602082015250565b600061311f60298361233f565b915061312a826130c3565b604082019050919050565b6000602082019050818103600083015261314e81613112565b9050919050565b7f4552433732313a207472616e7366657220746f20746865207a65726f2061646460008201527f7265737300000000000000000000000000000000000000000000000000000000602082015250565b60006131b160248361233f565b91506131bc82613155565b604082019050919050565b600060208201905081810360008301526131e0816131a4565b9050919050565b7f4e487b7100000000000000000000000000000000000000000000000000000000600052601160045260246000fd5b6000613221826123ef565b915061322c836123ef565b92508282101561323f5761323e6131e7565b5b828203905092915050565b6000613255826123ef565b9150613260836123ef565b9250827fffffffffffffffffffffffffffffffffffffffffffffffffffffffffffffffff03821115613295576132946131e7565b5b828201905092915050565b7f4552433732313a20617070726f766520746f2063616c6c657200000000000000600082015250565b60006132d660198361233f565b91506132e1826132a0565b602082019050919050565b60006020820190508181036000830152613305816132c9565b9050919050565b7f4552433732313a207472616e7366657220746f206e6f6e20455243373231526560008201527f63656976657220696d706c656d656e7465720000000000000000000000000000602082015250565b600061336860328361233f565b91506133738261330c565b604082019050919050565b600060208201905081810360008301526133978161335b565b9050919050565b7f45524337323155524953746f726167653a2055524920717565727920666f722060008201527f6e6f6e6578697374656e7420746f6b656e000000000000000000000000000000602082015250565b60006133fa60318361233f565b91506134058261339e565b604082019050919050565b60006020820190508181036000830152613429816133ed565b9050919050565b600061343c8285612c6c565b91506134488284612c6c565b91508190509392505050565b7f4e487b7100000000000000000000000000000000000000000000000000000000600052601260045260246000fd5b600061348e826123ef565b9150613499836123ef565b9250826134a9576134a8613454565b5b828206905092915050565b7f4e487b7100000000000000000000000000000000000000000000000000000000600052603260045260246000fd5b60006134ee826123ef565b91506134f9836123ef565b92508261350957613508613454565b5b828204905092915050565b600061351f826123ef565b915061352a836123ef565b9250817fffffffffffffffffffffffffffffffffffffffffffffffffffffffffffffffff0483118215151615613563576135626131e7565b5b828202905092915050565b7f45524337323155524953746f726167653a2055524920736574206f66206e6f6e60008201527f6578697374656e7420746f6b656e000000000000000000000000000000000000602082015250565b60006135ca602e8361233f565b91506135d58261356e565b604082019050919050565b600060208201905081810360008301526135f9816135bd565b9050919050565b600081519050919050565b600082825260208201905092915050565b600061362782613600565b613631818561360b565b9350613641818560208601612350565b61364a81612383565b840191505092915050565b600060808201905061366a6000830187612484565b6136776020830186612484565b613684604083018561259a565b8181036060830152613696818461361c565b905095945050505050565b6000815190506136b0816122a5565b92915050565b6000602082840312156136cc576136cb61226f565b5b60006136da848285016136a1565b91505092915050565b7f4552433732314d657461646174613a2055524920717565727920666f72206e6f60008201527f6e6578697374656e7420746f6b656e0000000000000000000000000000000000602082015250565b600061373f602f8361233f565b915061374a826136e3565b604082019050919050565b6000602082019050818103600083015261376e81613732565b9050919050565b60006137818284612c6c565b915081905092915050565b6000613797826123ef565b91507fffffffffffffffffffffffffffffffffffffffffffffffffffffffffffffffff8214156137ca576137c96131e7565b5b600182019050919050565b7f4552433732313a206d696e7420746f20746865207a65726f2061646472657373600082015250565b600061380b60208361233f565b9150613816826137d5565b602082019050919050565b6000602082019050818103600083015261383a816137fe565b9050919050565b7f4552433732313a20746f6b656e20616c7265616479206d696e74656400000000600082015250565b6000613877601c8361233f565b915061388282613841565b602082019050919050565b600060208201905081810360008301526138a68161386a565b905091905056fe4142434445464748494a4b4c4d4e4f505152535455565758595a6162636465666768696a6b6c6d6e6f707172737475767778797a303132333435363738392b2fa26469706673582212209b6036912db448c69b85ec977279b7f06db48ccb5cc0c2fb305fe4c4209ea28164736f6c634300080b00333c73766720786d6c6e733d27687474703a2f2f7777772e77332e6f72672f323030302f73766727207072657365727665417370656374526174696f3d27784d696e594d696e206d656574272076696577426f783d273020302033353020333530273e3c7374796c653e2e62617365207b2066696c6c3a2077686974653b20666f6e742d66616d696c793a2073657269663b20666f6e742d73697a653a20323470783b207d3c2f7374796c653e3c726563742077696474683d273130302527206865696768743d2731303025272066696c6c3d27626c61636b27202f3e3c7465787420783d273530252720793d273530252720636c6173733d27626173652720646f6d696e616e742d626173656c696e653d276d6964646c652720746578742d616e63686f723d276d6964646c65273e",
  "linkReferences": {},
  "deployedLinkReferences": {}
}